:100000000C942E080C944B080C944B080C944B0841
:100010000C944B080C944B080C944B080C944B0814
:100020000C944B080C944B080C940C1B0C94C01FA4
:100030000C9464330C944B080C944B080C944B08B0
:100040000C944B080C944B080C944B080C944B08E4
:100050000C944B080C94E31B0C944B080C944B0829
:100060000C944B080C944B080C944B080C944B08C4
:100070000C944B080C944B080C944B080C944B08B4
:100080000C944B080C944B080C944B080C944B08A4
:100090000C944B080C944B080C944B080C944B0894
:1000A0000C944B080C944B080C944B0805010980E8
:1000B000A101850319012AB700150126B700950192
:1000C00075108100C0050C0901A101850419012AE0
:1000D000A002150126A002950175108100C005013E
:1000E0000906A1018505050719E029E71500250185
:1000F0009508750181020507190029EF15002501F2
:1001000095F075018102050819012905950575010C
:100110009102950175039101C005010902A1010930
:1001200001A100050919012905150025019505758D
:10013000018102950175038101050109300931151D
:1001400081257F95027508810609381581257F95DF
:100150000175088106050C0A38021581257F950175
:1001600075088106C0C005010906A101050719E04F
:1001700029E715002501950875018102950175088B
:1001800081010507190029FF150026FF0095067556
:100190000881000508190129059505750191029549
:1001A0000175039101C059CCC959CCC959CCC95961
:1001B000CCC959CCC959CCC959CCC959CCC959CCCD
:1001C000C959CCC959CCC959CCC959CCC959CCC9C0
:1001D00059CCC959CCC959CCC959CCC959CCC95920
:1001E000CCC959CCC959CCC959CCC959CCC959CC9D
:1001F000C959CCC959CCC959CCC959CCC959CCC990
:1002000059CCC959CCC959CCC959CCC959CCC959EF
:10021000CCC959CCC959CCC959CCC959CCC959CC6C
:10022000C959CCC959CCC959CCC959CCC959CCC95F
:1002300059CCC959CCC900FFFF00FFFF00FFFF00E8
:10024000FFFF00FFFF00FFFF00FFFF00FFFF00FFB9
:10025000FF00FFFF00FFFF00FFFF00FFFF00FFFFA9
:1002600000FFFF00FFFF00FFFF00FFFF00FFFF0098
:10027000FFFF00FFFF00FFFF00FFFF00FFFF00FF89
:10028000FF00FFFF00FFFF00FFFF00FFFF00FFFF79
:1002900000FFFF00FFFF00FFFF00FFFF00FFFF0068
:1002A000FFFF00FFFF00FFFF00FFFF00FFFF00FF59
:1002B000FF00FFFF00FFFF00FFFF00FFFF00FFFF49
:1002C00000FFFF00FFFF0052FF0052FF0052FF003F
:1002D00052FF0052FF0052FF0052FF0052FF005237
:1002E000FF0052FF0052FF0052FF0052FF0052FF7A
:1002F0000052FF0052FF0052FF0052FF0052FF0069
:1003000052FF0052FF0052FF0052FF0052FF005206
:10031000FF0052FF0052FF0052FF0052FF0052FF49
:100320000052FF0052FF0052FF0052FF0052FF0038
:1003300052FF0052FF0052FF0052FF0052FF0052D6
:10034000FF0052FF0052FF0052FF0052FF0052FF19
:100350000052FF0052FF00000000000000000000FB
:10036000000000000000000000000000000000008D
:10037000000000000000000000000000000000007D
:10038000000000000000000000000000000000006D
:10039000000000000000000000000000000000005D
:1003A000000000000000000000000000000000004D
:1003B000000000000000000000000000000000003D
:1003C000000000000000000000000000000000002D
:1003D000000000000000000000000000000000001D
:1003E000000000000000000000000000000000000D
:1003F00000000000000000000000000000FF0000FE
:10040000000000000000000000FF0000FF0000FFEF
:1004100000000000000000000000000000000000DC
:1004200000000000000000000000000000000000CC
:1004300000000000000000000000000000000000BC
:1004400000000000000000000000000000000000AC
:1004500000FF0000FF0000FF00000000000000009F
:10046000000000000000000000000000000000008C
:10047000000000000000000000000000000000007C
:10048000000000000000000000000000000000006C
:10049000000000000000000000000000000000005C
:1004A000000000000000000000000000000000004C
:1004B000000000000000000000000000000000003C
:1004C000000000000000000000000000000000002C
:1004D000000000000000000000000000000000001C
:1004E000000000000000000000000000000000000C
:1004F00000000000000000000000000000000000FC
:1005000000000000000000000000000000000000EB
:1005100000000000000000000000000000000000DB
:1005200000000000000000000000000000000000CB
:1005300000000000000000000000000000000000BB
:1005400000000000000000000000000000000000AB
:10055000000000000000000000000000000000009B
:10056000000000000000000000000000000000008B
:10057000000000000000000000000000000000007B
:10058000000000000000000000000000000000006B
:10059000000000000000000000000000000000005B
:1005A000000000000000000000000000000000004B
:1005B000000000000000000000000000000000003B
:1005C000000000000000000000000000000000002B
:1005D000000000000000000000000000000000001B
:1005E000000000000000000000000000000000000B
:1005F00000000000000000000000000000000000FB
:1006000000000000000000000000000000000000EA
:1006100000000000000000000000000000000000DA
:100620000000000000000EFFFF0EFFFF0EFFFF0E98
:10063000FFFF0EFFFF0000000000008DFFE900003B
:10064000000000000000008DFFE98DFFE98DFFE94B
:10065000000000000000000000000000000000009A
:1006600000000000000000000000000000000EFF7D
:10067000FF0EFFFF0EFFFF0EFFFF0EFFFF0000004B
:100680008DFFE98DFFE98DFFE90000000000008D7E
:10069000FFE98DFFE98DFFE9000000000000000088
:1006A000008DFFE9000000000000000000000000D5
:1006B000000000000000000000000000000000003A
:1006C000000000000000000000007E0F00D4FFFFCB
:1006D000FFC70000007800000000000000002A2B87
:1006E00028000000000000000000000000000000E2
:1006F0000029000000002C1E34202122243426274B
:10070000252E362D3738271E1F202122232425266B
:100710003333362E37381F0405060708090A0B0C39
:100720000D0E0F101112131415161718191A1B1C81
:100730001D2F3130232D350405060708090A0B0C3F
:100740000D0E0F101112131415161718191A1B1C61
:100750001D2F3130354C0001010101010101010162
:100760000202020202020202020303030303030362
:10077000030404040404040405050505050606062F
:100780000606070707070708080808090909090AEC
:100790000A0A0B0B0B0C0C0C0D0D0D0E0E0E0F0F91
:1007A0000F1010111111121213131414151516161F
:1007B0001717181819191A1A1B1B1C1D1D1E1E1F8E
:1007C0002020212222232424252626272829292ADD
:1007D0002B2C2D2D2E2F3031323233343536373805
:1007E000393A3B3C3D3E3F40414243444546474801
:1007F000494A4C4D4E4F50515354555658595A5BD7
:100800005D5E5F616264656668696B6C6D6F707276
:10081000737577787A7B7D7E8082838587888A8CE2
:100820008E8F91939596989A9C9EA0A2A3A5A7A916
:10083000ABADAFB1B3B5B7BABCBEC0C2C4C6C9CB0D
:10084000CDCFD1D4D6D8DBDDDFE2E4E7E9EBEEF0C3
:10085000F3F5F8FAFDFF0102E20102E00102E10115
:1008600001090103E10103E00103E2000102E201E9
:1008700002E00102E101011A0103E10103E00103C9
:10088000E2000102E20102E00102E10101100103C4
:10089000E10103E00103E200290035002B44D85CAC
:1008A000000F00001E00140004001D000057E000AF
:1008B0001F001A0016001B005000E3002000080073
:1008C000070006004F002A0021001500090019004A
:1008D0004C005001220017000A0005000000AC0087
:1008E000AE002F0000002E000000AB001409300005
:1008F00000002D000000AA0023001C000B001100C6
:100900000000A900240018000D001000A8004F01ED
:1009100025000C000E00360051002C0026001200AD
:100920000F00370052002800270013003300380062
:100930006B0BE200075431003448D95C000700001B
:100940000100210201000251010000002E023300CB
:1009500004003400010001002F00360012001400D2
:10096000010001002F02370008000D000100010006
:100970002602130018000E000100010024021C00D2
:100980000C001B00000001000100380000003102D3
:100990000000010001001F0200001E020000010013
:1009A0002E000900070005000000010027020A00D0
:1009B0000B001000010001003002060017001A00B1
:1009C00001000100300015001100190001000100B4
:1009D00025020F0016001D0001000100010031007A
:1009E0002D48025101000000290235022B020100AE
:1009F0004C0200001E003302040234020100E00237
:100A00001F003602120214020100E3022000370226
:100A100008020D0201002A022100130218020E0230
:100A20000100010022001C020C021B020000010058
:100A3000010038020000350000000100010023021F
:100A40000000220200000100230009020702050243
:100A50000000010024000A020B0210020100010044
:100A60002500060217021A0201002C0226001502B8
:100A7000110219020100280227000F0216021D02AE
:100A80000100E202010020022D020100010000002D
:100A9000290001000100E100E00000003A001E0210
:100AA00020022202095DC95C3B001F0221022302D1
:100AB000010001003C002F0226022F00E20001008D
:100AC0003D003002270230000100C85C3E003102C8
:100AD000350035020000005C4500C65C0000C75CC4
:100AE0000000C45C6800CC5C0000CD5C0000C35C0E
:100AF0003F0038002502560000002B5D4000240016
:100B000021001E003700CA5C4200250022001F00A1
:100B100027000100430026002300200001000100FF
:100B2000440057002E0238002E00CB5C010001006B
:100B30000100E100280000000100010001000100A7
:100B400001000000010001000100010001004C0053
:100B500001000100E00001000100010001000100AE
:100B6000E20001000100010001000100E3000100BA
:100B700001000100010001000100010000001B084C
:100B80000100060800001908000001000100010032
:100B9000000001000000010001000100010001004F
:100BA00000000100010001005000010001000100EF
:100BB000010052005100010001000100010001008C
:100BC0004F000100010001000100010001000100CF
:100BD000010001000100010001000100010000000E
:100BE000010001002B00E100E00000000100010015
:100BF00001000100E200010001000100010001000C
:100C000001000100010001000100010001002C00B1
:100C1000010001000100010000462A00010001005E
:100C200001000100000001000100010000000100BE
:100C300000000100010001000000010000000100AF
:100C4000010001000100010000000100010001009D
:100C5000010001000100010001000100010001008C
:100C600001002C0001000100010001000100010051
:100C7000010001000100010001000100010001006C
:100C8000010001000100000001000100010001005D
:100C9000010000003A002D5D01000100010001008B
:100CA0003B002E5D01000100010001003C002F5DB2
:100CB00001000100010001003D00010001000100F0
:100CC000010001003E0001000100010000000100E0
:100CD0004400010000000100000001004500010087
:100CE00000000100000001003F00010001000100C0
:100CF00000000100400001000100010001000100AE
:100D0000410001000100010001000100420001005A
:100D10000100010001000100430001000100010089
:100D200001000100010001000100010001000000BC
:100D3000010001000100010001000000115001004C
:100D4000010001000100010001000100010001009B
:100D50000100010013500100010001000100010029
:100D600018500100010001000100010014500100B1
:100D7000010001000000010001000100000001006D
:100D8000000001000100010000000100000001005E
:100D90001550010001000100000001001650010083
:100DA000010001000100010001000100010001003B
:100DB000010001000100010001000100010001002B
:100DC00010500100010001000100010001000100BC
:100DD000010001000100000001000100010001000C
:100DE000010000003A0001000100010001000100C3
:100DF0003B00F400F20001000100FF003C00F000A5
:100E0000F100F6000100FD003D00F500F3000100D7
:100E1000010001003E00FD00FE00FF000000010097
:100E200044006900000001000000010045006A0064
:100E300000000100000001003F000100010001006E
:100E40000000010040000100FB0001000100010062
:100E50004100FA00F9000100010001004200010018
:100E6000FC0001000100010043000100010001003D
:100E7000010001000100010001000100010000006B
:100E80000A00000000000306B20008000100000094
:100E9000A800080002000300A00014000300574946
:100EA0004E55534200000000000000000000840086
:100EB000040007002A004400650076006900630012
:100EC000650049006E0074006500720066006100F4
:100ED00063006500470055004900440073000000AE
:100EE00050007B00390044004200370046003100CA
:100EF000460044002D0037004500370041002D001A
:100F000034003000300038002D0039003300360046
:100F100042002D00360042004100360043003100FF
:100F20003900410033003000380063007D000000CC
:100F300000001B0301636F6E6669677572652E653D
:100F400072676F646F782D657A2E636F6D0009028A
:100F50006B00040100A0FA09040000010301010074
:100F60000921110100012240000705810308000A40
:100F700009040100010301020009211101000122FD
:100F80004D000705820308000A090402000103005E
:100F90000000092111010001226D000705830320D3
:100FA000000A0904030002FF000000070584034053
:100FB00000050705050340000512011002000000AE
:100FC00008973276490100010200012003450072B2
:100FD0000067006F0044006F007800200045005A51
:100FE00000200047006C006F007700000030035ABB
:100FF0000053004100200054006500630068006E4B
:10100000006F006C006F006700790020004C0061E9
:101010000062007300200049006E006300000004BD
:10102000030904050F3900021C100500DF60DDD83C
:101030008945C74C9CD2659D9E648A9F000003062B
:10104000B20045001810050038B60834A909A047B9
:101050008BFDA0768815B6650001420011241FBEE5
:10106000CFEFDAE0DEBFCDBF25E0A0E3B3E001C003
:101070001D92A93CB207E1F713E0A0E0B1E0E2EA7B
:10108000F1E702C005900D92A033B107D9F70E9495
:10109000DA2F0C9477380C940000E8EDF0E08081B2
:1010A0008E7F80831092E2001092DA001092E100AD
:1010B000A0EEB0E08C9181608C9380818F778083EB
:1010C00019BCA7EDB0E08C918E7F8C9380818F7ED0
:1010D000808310928A0508952091E4003091E50004
:1010E00095E6A9012091EC00822F817020FF06C0B7
:1010F0008091E80080FF06C080E008952091E8001C
:1011000022FD1AC08091AF05882389F0853089F0CF
:101110008091EB0085FD0FC02091E4003091E50047
:1011200042175307F9F29150E1F684E0089582E006
:10113000089583E0089581E00895EF92FF920F9360
:101140001F93CF937C018B010E946C08C82F8823CA
:1011500071F08C2FCF911F910F91FF90EF90089518
:10116000F70181917F018093F10001501109011570
:10117000110579F38091E80085FDF2CF8091E800B8
:101180008E778093E8000E946C08882381F3C82F33
:10119000E0CF8091B10587FF13C08091E80082FF06
:1011A00006C08091E8008B778093E80004C08091AE
:1011B000AF058111F2CF08958091AF058823D9F34F
:1011C0008091E80080FFF8CF8091E8008E77ECCF27
:1011D000982F9093E900242F762F50E0891731F053
:1011E0007091EC002091ED005091F00021FD07C0BE
:1011F0009F5F973071F78093E90081E00895309107
:10120000EB003E7F3093EB003091ED003D7F30935B
:10121000ED003091EB0031603093EB007093EC0007
:101220002093ED005093F0002091EE0027FDE0CFD9
:1012300080E00895CF92DF92EF92FF920F931F9379
:10124000CF93DF93C8EDD0E088818F7E8883E7ED70
:10125000F0E080818160808384E082BF81E08093C0
:101260008A0588818E7F888302EE10E0F801108263
:101270001092DA0081EEC82ED12CF60110828881FE
:101280008F77888388818068888388818F7D888331
:1012900019BC1092AF051092B0051092AE051092D5
:1012A000AD0590EEE92EF12CF70180818B7F8083D4
:1012B00088818160888342E060E080E00E94E808E5
:1012C000F60180818E7F8083F80180818160808338
:1012D000808188608083F70180818E7F8083888110
:1012E00080618883DF91CF911F910F91FF90EF90E4
:1012F000DF90CF900895FC018091B7059091B805DB
:1013000086179707A0F06115710529F48091E80010
:101310008E778093E80090E06115710551F491118A
:1013200008C08091E80082FF35C080E00895BC01CC
:10133000F2CF8091AF058823C9F18530C9F1809142
:10134000E80083FD31C08091E80082FDEACF809102
:10135000E80080FFE1CF8091F3002091F200382F68
:101360006115710519F02830310558F091E02830E9
:10137000310509F090E08091E8008E778093E800D5
:10138000CBCF84918093F1003196615071092F5F2A
:101390003F4FE6CF8091AF05882341F0853041F083
:1013A0008091E80083FFBDCF81E0089582E0089539
:1013B00083E00895FC018091B7059091B8058617E8
:1013C0009707A0F06115710529F49091E8009E77C8
:1013D0009093E80090E06115710551F4911108C0F7
:1013E0008091E80082FF34C080E00895BC01F2CF14
:1013F0008091AF058823C1F18530C1F18091E8006B
:1014000083FD30C08091E80082FDEACF8091E80042
:1014100080FFE1CF8091F3002091F200382F611519
:10142000710519F02830310558F091E02830310568
:1014300009F090E02091E8002E772093E800CBCFD0
:1014400081918093F100615071092F5F3F4FE7CF89
:101450008091AF05882341F0853041F08091E8000C
:1014600083FFBECF81E0089582E0089583E0089570
:1014700080918C0508952091AF05243091F420933C
:10148000E90070E050E040E00E949D08882321F0D0
:1014900010928805109289058091E8008E778093DC
:1014A000E800089590916F05803F59F48091700590
:1014B00087FF0DC01092700591110BC010926B0543
:1014C00008C0813F81F48091700518169CF3992320
:1014D00081F08091710590917205892B09F064C0AB
:1014E000109268050895823F49F497FFF0CF10925B
:1014F0006F05809170058111ECCFE0CF833F19F427
:101500001916ACF3E4CF20917105893F29F4121626
:10151000F4F610927105DBCF8A3F19F427FFD7CF7D
:10152000F8CF209172058B3F29F427FFD0CF10927E
:101530007205CDCF8C3F19F41216CCF3C8CF843F7F
:1015400031F480916E058E7F80936E05C0CF853F0C
:1015500021F480916E058D7FF7CF863F21F4809135
:101560006E058B7FF1CF873F21F480916E05877FD9
:10157000EBCF883F21F480916E058F7EE5CF8D3FC4
:1015800031F480913F058E7F80933F05A0CF8E3F41
:1015900021F480913F058D7FF7CF8F3F09F097CFE2
:1015A00080913F058B7FF0CF089580913F0580FDAE
:1015B0001AC081FD14C082FD14C080916805882383
:1015C00091F08C3370F427E0829FC00111246CE30A
:1015D00070E00E947F34862F672B29F0089583E006
:1015E000089587E0089581E0089580913F0580FD8A
:1015F00016C081FD16C082FD18C080916B0588233E
:1016000091F08C3390F423E2829FC00111246CE3AB
:1016100070E00E947F34862F672B49F0089588E0A0
:10162000089581E1089585E0089583E2089581E0B9
:101630000895803F31F40E94F50A819580937005EA
:101640000895813F19F40E94F50AF8CF823F31F4E2
:101650000E94F50A819580936F050895833F19F4E0
:101660000E94F50AF8CF893F29F40E94D50A809399
:10167000710508958A3F21F40E94D50A8195F7CF1C
:101680008B3F31F40E94D50A8195809372050895AD
:101690008C3F19F40E94D50AF8CF843F31F4809131
:1016A0006E05816080936E050895853F21F48091D9
:1016B0006E058260F7CF863F21F480916E058460CD
:1016C000F1CF873F21F480916E058860EBCF883F92
:1016D00021F480916E058061E5CF8D3F31F48091DA
:1016E0003F05816080933F0508958E3F21F48091EE
:1016F0003F058260F7CF8F3FB9F780913F05846047
:10170000F1CF9C014FB7F89480913B0590913C0537
:10171000A0913D05B0913E054FBF821B930B0895EC
:1017200020912F012223C9F02091540527FF15C0D5
:10173000E62FE695E695E695EE31D8F4E80FF92F19
:10174000F11D677021E030E001C0220F6A95EAF7D1
:1017500020958281282322830895FC0132960896E1
:101760002191621303C0DF0111971C92E817F9075A
:10177000B9F7089520912F012223C1F0209154053B
:1017800027FF14C0E62FE695E695E695EE31F8F4CE
:10179000E80FF92FF11D677021E030E001C0220F42
:1017A0006A95EAF78281822B82830895FC01329642
:1017B0002FEF30E04191641751F02F3F19F44111A0
:1017C00001C0232F3F5F3630A9F72F3F09F408955A
:1017D000820F911D27FD9A95FC0162830895CF9297
:1017E000DF92EF92FF926C01EE24FF2420E0C114FF
:1017F000D104E104F10419F0C701B60120E1C72EBC
:10180000D82EE92EFF24C114D104E104F10419F00B
:10181000285FC701B6016B017C0154E0F694E794A0
:10182000D794C7945A95D1F7C114D104E104F104B7
:1018300019F02C5FC701B6016B017C0142E0F69400
:10184000E794D794C7944A95D1F7C114D104E10421
:10185000F10419F02E5FC701B6019695879577952B
:101860006795672B682B692B09F02F5F822FFF90FC
:10187000EF90DF90CF9008958091360581111092FE
:1018800036050895809590913505982390933505F8
:1018900008958091350590913405892B90913305F9
:1018A000892B80933003909136059923A1F0892BE1
:1018B0008093300380912F01882341F1809154055A
:1018C00087FF24C08EE1E2E3F3E090E0815000F571
:1018D00091110E943C0CE0915605F091570530970C
:1018E000E1F080912F01882359F08091540587FF02
:1018F00007C0809130038093310385E080933003EB
:101900000280F381E02D80E393E0099486E0DBCF51
:1019100021912223D9F29F5FD9CF0895E92FEE0FAD
:10192000E90FEE0F8E0F982F977086958695869506
:1019300025E0829FF0011124E550FB4F50E040E08C
:1019400080E0219130E0092E02C0369527950A9457
:10195000E2F721703327042E01C0220F0A94EAF720
:10196000822B4F5F5F4F4530510559F70895E92F9E
:10197000EE0FE90FEE0F8E0F982F977041E001C028
:10198000440F9A95EAF786958695869595E0899F06
:10199000F0011124E550FB4F30E020E070E0519160
:1019A000DF011197CB01022E02C0969587950A940C
:1019B000E2F7817081958527842385278C932F5F9B
:1019C0003F4F2530310559F708958091FA049091E1
:1019D000C904981301C008958F5F8770FACF8823D8
:1019E00041F08095909134058923809334050C94BF
:1019F000490C0895882339F090913405982B9093E1
:101A000034050C94490C0895882321F00E94420C5F
:101A10000C94490C0895882339F090913505982B42
:101A2000909335050C94490C08952091BE04309193
:101A3000BF042817390771F09093BF048093BE0448
:101A4000E0915605F0915705309721F00084F1851B
:101A5000E02D099408952091BC043091BD0428170D
:101A6000390771F09093BD048093BC04E091560552
:101A7000F0915705309721F00680F781E02D099409
:101A80000895E0915605F0915705309721F00190A7
:101A9000F081E02D099480E00895CF93DF93EC016D
:101AA00081E0898B809135059F81892B8093350555
:101AB000809134059885892B809334050E94490CC8
:101AC000EA81FB81309739F06C897D89CE010696D9
:101AD000DF91CF910994DF91CF910895EF92FF921A
:101AE0000F931F93CF93DF93EC018A85811139C047
:101AF000EB80FC8087E5F81A26E12E9DC0012F9D22
:101B0000900D1124DC01A45FBE4F1496ED91FC9161
:101B10001597309731F054966D917C918E5E9E4F63
:101B2000099586E18E9D80018F9D100D1124045F23
:101B30001E4FF80187810E94420CF8018085982F82
:101B40009095809134058923809334050E94490C37
:101B5000188219861B861E821D821092C104109263
:101B6000C004DF91CF911F910F91FF90EF900895E6
:101B7000FA01811101C0FB0109948033910538F508
:101B8000880F991F880F991FFC01E55BFE4F52815A
:101B9000338180818370E181A82FB0E070E9879F55
:101BA000C00111248A589C4FE80FF92FF11DB497FA
:101BB0006083FC01E50FF11DB4974083830F911DF5
:101BC000FC01B4972083AC58BC4F81E08C930895FE
:101BD000FF920F931F93CF93DF93182F062FF42EAE
:101BE000D0E0C0E02F2D402F612FCE010E94BD0D0F
:101BF0002196C033D105B1F7DF91CF911F910F919D
:101C0000FF9008958091C005837011F41092330104
:101C10008091C0058C7F81608093C00508950C94ED
:101C2000E80D0C94BD0D0F931F9310E0F801EE0F1B
:101C3000FF1FE156FD4F9081905797FD9195000F42
:101C4000111FF801E056FD4F00810052110B2003D7
:101C5000F001219FF00D112408E310E0091B110988
:101C600097FD139540039001419F300D1124E20F21
:101C7000F31F9F01220F331F2E0F3F1F37FF02C09C
:101C800021583F4F220F232F221F330B620F1F912A
:101C90000F9108950F931F93522F10E0F801EE0F4C
:101CA000FF1FE056FD4FA081A052BB0B9D015203C8
:101CB000F001539FF00D1124000F111FD801A15600
:101CC000BD4F0C910057110B40039001419F300D07
:101CD00011242E0F3F1F37FF02C0215C3F4F96E0BB
:101CE000359527959A95E1F7620F1F910F91089509
:101CF0000F931F93522F10E0F801EE0FFF1FE056D5
:101D0000FD4FA081A052BB0B9D015203F001539FD8
:101D1000F00D1124000F111FD801A156BD4F0C91D9
:101D20000057110B40039001419F300D11242E0FDD
:101D30003F1F37FF02C021583F4F220F232F221F82
:101D4000330B620F1F910F910895EF920F93972F0E
:101D500023E0029FB0011124759567956E0D792FD0
:101D60000F91EF900895322F50E0FA01EE0FFF1F10
:101D7000E056FD4F9081905297FD9195440F551F6D
:101D8000FA01E156FD4F2081231B330B290F311D32
:101D900097FD3A95620F0895E42FF0E0EE0FFF1FD4
:101DA000E056FD4F6081621B0895E42FF0E0EE0FD6
:101DB000FF1FE156FD4F6081621B0895622F089559
:101DC000E42FF0E0EE0FFF1FE156FD4F408134EEAF
:101DD000439F412D1124E82FF0E050E0445E5F4F17
:101DE000DA01A21BB1099D01B7FF03C0319521950E
:101DF000310993E0220F331F9A95E1F7AF01421B9F
:101E0000530B9A0157FD20E0582F259F212D1124B7
:101E1000822F0895E42FF0E0EE0FFF1FE156FD4FF3
:101E2000408134EE439F412D1124E72FF0E050E034
:101E3000445E5F4FDA01A21BB1099D01B7FF03C0E9
:101E400031952195310993E0220F331F9A95E1F7DF
:101E5000AF01421B530B9A0157FD20E0279F212D14
:101E60001124722F0895FC019B01009729F480E052
:101E700077FF2BC080E80895AC0197FF04C044278A
:101E80005527481B590BB901640F751F37FD10C04A
:101E9000241B350BC901A5E0880F991FAA95E1F70E
:101EA0000E947F3480E2861BF7FF0FC08195089562
:101EB000CB0165E0880F991F6A95E1F7BA01621BB3
:101EC000730B0E947F3480E6EECF0895EF920F935C
:101ED000CF93DF93D72FC82FC9010E19BA010E94E3
:101EE000330F602F681B7D2F8C2FDF91CF910F91C7
:101EF000EF9008950F93CF93DF93D72FC82FC90189
:101F0000BA010E94330F682F600F7D2F8C2FDF9155
:101F1000CF910F910895EF920F931F93CF93DF937B
:101F2000D62FC72F182FC9010E19010FBA010E9411
:101F3000330F081B202F219F212D1124822F6D2F5D
:101F40007C2FDF91CF911F910F91EF900895EF9229
:101F50000F931F93CF93DF93D62F172FC82FC9014D
:101F60000E19070FBA010E94330F702F781B719F53
:101F7000712D11246D2F8C2FDF91CF911F910F9117
:101F8000EF9008950F931F93CF93DF93D62FC72F12
:101F9000182FC901212F201B022FBA010E94330FD5
:101FA000982F990F990F891B800F282F219F212D82
:101FB0001124822F6D2F7C2FDF91CF911F910F91D4
:101FC00008950F931F93CF93DF93D62F172FC82F0A
:101FD000C901272F201B022FBA010E94330F982F0F
:101FE000990F990F782F791B700F719F712D112404
:101FF0006D2F8C2FDF91CF911F910F910895E82FB6
:1020000086FDE0952E2F2F7086FD2F5FE695E695D5
:10201000E695E670F0E0ED5BFE4F9181929F902D8A
:10202000212D112492959F702295207F922B208143
:10203000920F87FD919580E8890F0895AC01823059
:10204000910508F408959FEF413E8EE1580740F452
:102050009A0195E0369527959A95E1F798E0920FC9
:1020600061E0E62FE90FFF27FF1F9F0135952795B8
:10207000822F229FF001239FF00DF00D11244E17A7
:102080005F0738F49FEF920F961758F78FEF860F80
:1020900008952F3FE9F361E0620FF6CF0F93CF93DE
:1020A000DF93D72FC82F47FD419588E390E0841B2D
:1020B000910947FD9395889FB001899F700D700D20
:1020C0001124229FC001239F900D900D1124860F93
:1020D000971F0E941E10982F990F890F682F600F6D
:1020E0007D2F8C2FDF91CF910F91089530E020E06C
:1020F000869F212D969F200D311D1124C901089521
:10210000AF92BF92CF92DF92FF920F931F93CF9324
:10211000DF93362F472FE82FF0E0EA5AF84F71117E
:102120000FC0E4918E2F2E2F6E2F722FDF91CF9143
:102130001F910F91FF90DF90CF90BF90AF900895C7
:10214000C72FD0E02491F22E022F10E056E0659FB9
:10215000C0011124EFEFF0E0BF010E946B34832F28
:1021600090E0880F991F35E5369FD001379FB00D5D
:1021700011248A1B9B0B982F990F980F6F01CC1A73
:10218000DD0AC09ED001C19EB00DD09EB00D1124BD
:102190008B2F499FA0011124452F55276F01C41A89
:1021A000D50AC09EA001C19E500DD09E500D112495
:1021B0005F01A91AB108AC9E6001AD9ED00CBC9E17
:1021C000D00C1124CD2CDD24EC19FD09E09FE00199
:1021D000E19FD00DF09FD00D1124ED2F62307105DD
:1021E000A1F050F46115710509F49ECF61307105BD
:1021F00081F0EB2F852F98CF6430710569F080F066
:102200006630710509F490CFF4CFE22F2B2F8D2F7C
:102210008BCFE22F252F88CFEB2F822F2D2F84CF2E
:102220002B2F8F2DE52F80CF9F92AF92BF92CF9211
:10223000DF92EF92FF920F931F93CF93DF936C0186
:1022400080913001C82FCC0FCC0FC80F15E01C0FA8
:10225000B12E113310F030E3B32E6091C4056695B2
:1022600066958091BC059091BD050E947610F82E70
:1022700080E48F0D0E94FF0F90E8A92EA80E8F2DED
:102280000E94FF0F20E8922E980ED0E0CB1580F030
:1022900081E0103308F080E0DF91CF911F910F9122
:1022A000FF90EF90DF90CF90BF90AF909F900895F8
:1022B000FE01E150FD4F8081909131018923A1F011
:1022C0006091C1057091C2058091C305EF2C0C2F60
:1022D000292D4A2DF60109950E948010462F282F9E
:1022E000672FCE010E94110E2196D0CF7F928F9240
:1022F0009F92AF92BF92CF92DF92EF92FF920F9395
:102300001F93CF93DF935C0180913001C82FCC0FD6
:10231000CC0FC80F15E01C0FF12E113310F030E375
:10232000F32E6091C40566958091BC059091BD0522
:102330000E947610782ED0E0CF1590F081E0103317
:1023400008F080E0DF91CF911F910F91FF90EF9007
:10235000DF90CF90BF90AF909F908F907F90089527
:10236000FE01E150FD4F8081909131018923C9F137
:10237000CE01880F991F855B9D4FFC01EC5AFF4FE2
:102380002081422F4057550B6A018B5A9F4FFC0109
:102390008081282F2052330B4901449F9001459F93
:1023A000300D300D1124889CC001899C900D900D3A
:1023B0001124820F931F0E941E10082F6091C105E7
:1023C0007091C2058091C305E72C9401A601F50127
:1023D00009950E948010462F282F672FCE010E945A
:1023E000110E2196A9CFCF92DF92EF92FF920F9319
:1023F0001F93CF93DF937C0180913001C82FCC0FC6
:10240000CC0FC80F15E01C0FD12E113310F030E3A4
:10241000D32E6091C40566958091BC059091BD0551
:102420000E947610C82ED0E0CD1568F081E0103300
:1024300008F080E0DF91CF911F910F91FF90EF9016
:10244000DF90CF900895FE01E150FD4F8081909183
:102450003101892311F1CE01880F991F855B9D4FB2
:10246000FC01EB5AFF4F20812052330B8C5A9F4FB7
:10247000FC0140814057550B6091C1057091C20528
:102480008091C3050C2DF70109950E948010462FFD
:10249000282F672FCE010E94110E2196C5CFDF9203
:1024A000EF92FF920F931F93CF93DF937C01809164
:1024B0003001C82FCC0FCC0FC80F15E01C0F012F17
:1024C000113308F000E36091C4056695669580912C
:1024D000BC059091BD050E947610D82ED0E0C017A3
:1024E00060F081E0103308F080E0DF91CF911F9120
:1024F0000F91FF90EF90DF900895FE01E150FD4FA6
:10250000808190913101892391F06091C105709192
:10251000C2058091C3052D2D4C2FF70109950E940E
:102520008010462F282F672FCE010E94110E219672
:10253000D6CF9091540592FF06C0282F28712830DD
:10254000F9F4877F846093FF06C0282F2871283113
:10255000F1F4877E84612091550520FF06C0382F55
:1025600038713830D9F4877F816021FF06C0282F69
:1025700028712831D1F4877E816194FD877E08958A
:10258000282F24712430F9F68B7F8860DCCF282F28
:102590002471243101F78B7E8861DDCF382F3171B2
:1025A000313019F78E7F8860E0CF282F21712131DB
:1025B00021F78E7E8861E1CFCF93DF93972F70E074
:1025C00026E0929F600D711D1124FB0134E5839F6D
:1025D000E00DF11D1124EE0FFF1FE856F74FC591D6
:1025E000D491CE01C238D105B9F1E8F5C133D10596
:1025F00009F499C050F5C932D10509F48DC0CA3229
:10260000D10509F497C0C11521E5D20708F0BFC074
:10261000C11530E5D30708F016C1C83ED10508F052
:102620009DC0C03ED10568F5C83AD10508F089C003
:10263000C53AD10508F0FFC0C130D10511F120978E
:1026400009F443C02497E8F440C0C533D10509F428
:102650005CC0C933D105B9F620915405237089F0C7
:1026600080EE90E00EC0C33ED10591F168F4C03E0B
:10267000D105F9F0C23ED10531F62091540522FD75
:1026800020C0DF91CF910895C63ED10561F1C73ECC
:10269000D10581F1C43ED10509F0B5CF2091550592
:1026A00021FFEFCF8091540584FD0FC087EE90E0AD
:1026B000E8CF2091540520FD12C13091550530FF1F
:1026C000E0CF83EE90E024FFDCCF90E080E0D9CF34
:1026D0002091540522FD06C13091550530FDC0CF33
:1026E00024FFCFCFF2CF2091540523FFCACF24FD82
:1026F000ECCFDCCF2091540523FDF7C03091550578
:1027000031FFEECF84EE90E0BCCF2091540525FF41
:10271000B8CF89E290E0B5CF2091540525FFB1CF25
:1027200085E390E0AECF2091540526FFAACF8AE240
:1027300090E0A7CF2091540526FFA3CF81E390E03E
:10274000A0CFCF3BD10508F6C85AD0E0CC0FDD1F93
:10275000C25FDD4F88819981946493CFC11520E2D7
:10276000D20760F4C11531E0D30708F08ACFCE015B
:102770009065C03FD10508F084CFA7CFC11580E494
:10278000D80708F4A2CFCE019F70906A7ACFC11506
:1027900095E5D90710F5C11524E5D20708F088C0E2
:1027A000C11533E5D30708F06FC0C11582E5D8071E
:1027B00008F465C09E012370332781E090E002C0D9
:1027C000880F991F2A95E2F7C695C69520E2C29F09
:1027D000E00111248C2B9D2B50C0C11599E5D90720
:1027E000A0F4C11528E5D20708F067C0C11536E589
:1027F000D30708F06ACF8C2F0E94991290E0982F8F
:10280000882788279F7190623CCFC1158AE5D80739
:1028100008F458C0CE0190568115904208F055CF6B
:102820008D2F8F710E94991290E0982F882788270A
:102830009F718C2BE8CFC55AD0E0C55FDD4F8881F2
:1028400090E090641ECF9E01E4E036952795EA95CE
:10285000E1F723708C2F86958695837030E2839FF5
:10286000C0011124922BC37021E030E002C0220F7E
:10287000331FCA95E2F7822B932B9C6802CF9C2FC3
:102880008827816F906AFDCE9E012370332781E0F7
:1028900090E002C0880F991F2A95E2F7C695C69569
:1028A00030E2C39FE00111248C2B9D2B9A68E9CE66
:1028B0009C2F8827846F906AE4CE9C2F8827806F96
:1028C000906ADFCE8C2F8F700E94991234E0D695DB
:1028D000C7953A95E1F7CF709C2F9069D2CE89E3E6
:1028E00090E0CFCE82EE90E0CCCE86EE90E0C9CEE6
:1028F000BF92CF92DF92EF92FF920F931F93CF93ED
:10290000DF938C01C0908305D0908405E09085050D
:10291000F09086058091370590913805A091390592
:10292000B0913A05C82AD92AEA2AFB2ACFE1D0E099
:10293000BC2ED701C6010C2E04C0B695A79597955D
:1029400087950A94D2F780FD0EC0219788F7B12CA5
:102950008B2DDF91CF911F910F91FF90EF90DF9022
:10296000CF90BF900895B8018C2F0E94DC12019780
:1029700061F3EECFCF93DF93EC010E947814BE0198
:10298000DF91CF910C94DC120E94BA14292F2F7082
:1029900092959F7092509E3078F4E92FF0E0E758BE
:1029A000F74C0C949334803F19F020F4883E20F4C7
:1029B00081E00895843FE1F380E00895883EC0F30C
:1029C000813FD1F7F5CF822F86958695869508951C
:1029D0009C0184E032FF80E033FD8860FB010994B4
:1029E0009F92AF92BF92CF92DF92EF92FF920F939E
:1029F0001F93CF93DF9320E9289FE001299FD00DFB
:102A00001124CA55DE4F10E000E0FE0164913196BA
:102A1000749131968491962F972B982BC1F420E0D6
:102A200040E060E0C8010E94110E0F5F1F4F239627
:102A30000033110551F7DF91CF911F910F91FF9056
:102A4000EF90DF90CF90BF90AF909F9008950E943D
:102A50008010962EB72EA82E6091C30570E090E0EE
:102A600080E00E947C3720E030E04FE753E40E9492
:102A7000DB366B017C016A2D70E090E080E00E9403
:102A80007E37A70196010E940A380E944D37A62E74
:102A9000692D70E090E080E00E947E37A7019601EA
:102AA0000E940A380E944D37962E6B2D70E090E000
:102AB00080E00E947E37A70196010E940A380E949A
:102AC0004D372A2D492DAECF27982F980895269857
:102AD0002E98089525982D98089556985E980895F3
:102AE000279A2F9A0895269A2E9A0895259A2D9A14
:102AF0000895CF92DF92EF92FF92CF936B017C010A
:102B00000E94EF0BC82F0E946D150E946A150E944B
:102B100067150E946415C150C73040F4EC2FF0E0F7
:102B2000E957F74C0C9493340E947615C701B6010F
:102B3000CF91FF90EF90DF90CF9008950E9476158F
:102B40000E947315F3CF0E9476150E947015EECF88
:102B50000E9476150E947315F8CF20982898219826
:102B6000299822982A9823982B9852985A985398E3
:102B70005B983E98469808958098889A8198899A9B
:102B800084988C9A85988D9A86988E9A87988F9A31
:102B90000895CF9384E090E00E943036C82F81E200
:102BA00090E00E943036982F8C2FCF910895CF93CC
:102BB000DF9300D00F92CDB7DEB79091AF05943080
:102BC00019F589837B836A8383E08093E9008FEF23
:102BD0009091E800815095FD06C095ED9A95F1F72A
:102BE00000008111F5CF8091E80085FF0DC050E015
:102BF00040E063E070E0CE0101960E949D08809164
:102C0000E8008E778093E8000F900F900F90DF918F
:102C1000CF910895BC0184E00C94D715BC0183E0EA
:102C20000C94D7159C0182E08093E9009FEF80917E
:102C3000E800915085FD06C085ED8A95F1F700000A
:102C40009111F5CF8091E80085FF0CC050E040E085
:102C500065E070E0C9010E949D088091E8008E77D0
:102C60008093E8000895CF93DF93EC0180912F01CA
:102C70008823B1F18091540587FF32C060E283E080
:102C80008093E9008FEF9091E800815095FD06C098
:102C900095ED9A95F1F700008111F5CF8091E8004C
:102CA00085FF1BC080912F0170E050E040E0811152
:102CB00004C050E040E068E070E0CE010E949D0852
:102CC0008091E8008E778093E80080E2FE01ADE815
:102CD000B5E001900D928A95E1F7DF91CF910895CB
:102CE00068E081E0CDCFEF92FF920F931F93CF93D7
:102CF000DF930E946D150E946A150E9467150E945D
:102D0000641588E8E82EF12C8FEF90E0F7019183AD
:102D100080830AE810E0F80191838083CCE8D0E05A
:102D2000998388830E947615FFEF20E782E0F150B7
:102D300020408040E1F700C000000E9473159FEF23
:102D4000E0E7F2E09150E040F040E1F700C0000021
:102D50000E9470152FEF80E792E021508040904054
:102D6000E1F700C000000E946A15EFEFF0E722E0F3
:102D7000E150F0402040E1F700C000000E946715DC
:102D80008FEF90E7E2E081509040E040E1F700C033
:102D900000000E946415809142058770FFEF8F9FAD
:102DA000C001112495958795959587959927F701E9
:102DB00091838083F80191838083998388830E9423
:102DC0006D150E946A150E946715DF91CF911F91C2
:102DD0000F91FF90EF900C9464156FEE7EEF90E0F2
:102DE00080E00E94723660E082E090E00E945436FB
:102DF00060E083E090E00E94543610923705109214
:102E000038051092390510923A0560E084E090E0B0
:102E10000E94543660E081E290E00E94543660E007
:102E200085E090E00E94543660E086E090E00E94E9
:102E300054366FEF87E090E00E94543640E050E057
:102E4000BA0188E090E00E94663660E08DE090E094
:102E50000E94543640E050E0BA0188E190E00E94C0
:102E6000663660E087E190E00E94543640E050E032
:102E7000BA018CE190E00E94663660E080E290E06A
:102E80000E94543640E050E0BA0188E190E00E9490
:102E90006636109242051092430510924405109236
:102EA000450584E080618093420540914205509140
:102EB000430560914405709145058FE090E00E94C4
:102EC000663640E050E0BA0183E190E00C9466364B
:102ED0000F931F93CF93DF93082F000FEB0114E2A2
:102EE00010936003E1E6F3E0DE018D91819383E0CE
:102EF000E137F807D1F724E630E041E150E060E641
:102F000073E0802F0E944034105F6096143B41F7BD
:102F1000DF91CF911F910F910895809174038823C1
:102F200029F066E773E084E70E9468171092740343
:102F300080917503882329F066E074E087E70E949A
:102F40006817109275030895E0E6F3E0608341830B
:102F500024E630E042E050E0BF01880F0C9440349A
:102F6000EF92FF920F931F93CF93DF93E82E062FDC
:102F700010E006541B4FF8018081882381F0F2E1B4
:102F80006F9FE0011124CA56DB4FF12C49916F2D40
:102F90008E2D0E94A417F39482E1F812F7CFF80166
:102FA0001082DF91CF911F910F91FF90EF900895C4
:102FB000CF93DF93C82F4BE06DEF0E94A41740E042
:102FC0006AE08C2F0E94A4178FE39CE90197F1F728
:102FD00000C0000040E060E08C2F0E94A41740E099
:102FE00061E08C2F0E94A41740E066E08C2F0E94C5
:102FF000A41740E06DEF8C2F0E94A417D0E040E0B2
:103000006D2F8C2F0E94A417DF5FD231C1F740E0F3
:103010006D2F8C2F0E94A417DF5FD432C1F740E0E0
:103020006D2F8C2F0E94A417DF5FD43BC1F74BE0BC
:103030006DEF8C2F0E94A41741E06AE08C2F0E9454
:10304000A41740E06DEF8C2FDF91CF910C94A41763
:103050006F927F928F929F92AF92BF92CF92DF92A8
:10306000EF92FF920F931F93CF93DF930E948B33C6
:1030700084E70E94D81787E70E94D8176BE4E62EF2
:1030800061E0F62ED12CC12C72E1772EE8E08E2E75
:10309000912CAA24A394B12C66246394F701418156
:1030A00050E0CA01849702810452110BC381C452BB
:1030B000DD0BF601EE0FFF1FEE0FFF1FE55BFE4F6E
:1030C0002081237030E0FC0197FD379643E0F595B1
:1030D000E7954A95E1F7729EA001739E500D112469
:1030E0004A565B4FE40FF52FF11DB4010E947F3467
:1030F000A50101C0440F8A95EAF78081842B808363
:10310000F80117FD379693E0F595E7959A95E1F765
:10311000729EC001739E900D11248A569B4FE80F3A
:10312000F92FF11DC801B4010E947F34A50101C02F
:10313000440F8A95EAF78081842B8083FE01D7FDB6
:10314000379683E0F595E7958A95E1F7729EC00181
:10315000739E900D11248A569B4FE80FF92FF11D95
:10316000CE01B4010E947F34A50101C0440F8A95AD
:10317000EAF78081842B808326543B4FF9016082DB
:10318000FFEFCF1ADF0A84E0E80EF11CE0E3CE1671
:10319000D10409F083CF60E084E70E94B01761E0BA
:1031A00087E7DF91CF911F910F91FF90EF90DF9014
:1031B000CF90BF90AF909F908F907F906F900C9426
:1031C000B0171F93CF93DF93EC01FC01E150FD4F4B
:1031D00080816823A1F00E94E534182F0E94E53415
:1031E000612F782F8091C3050E948010462F282FD1
:1031F000672FCE01DF91CF911F910C94110EDF91BB
:10320000CF911F910895DF92EF92FF920F931F933A
:10321000CF93DF938C01FC01E150FD4F8081682347
:1032200081F1D090C205D091C305C091C105EC2EAB
:10323000F12C0E94E534282FC7018C549F4F68E67B
:1032400071E00E947F348E199F0997FD0396959532
:1032500087959595879523706C2F289F600D112475
:103260007D2D8D2F0E948010462F282F672FC8019B
:10327000DF91CF911F910F91FF90EF90DF900C9411
:10328000110EDF91CF911F910F91FF90EF90DF9082
:10329000089545E050E06CE170E080EC95E00C941E
:1032A00044369091C005937089F0811107C09460F5
:1032B0009093C005109233010C944919893110F094
:1032C0009066F6CF880F880F982BF2CF08958091E3
:1032D000C00586958695815009F488E10C945119B2
:1032E0008091C005869586958F5F893108F081E0D1
:1032F0000C9451199091C005937041F08093C105D1
:103300006093C2054093C3050C9449190895E0ECFD
:10331000F5E0438120E1421B08F440E081816281B5
:1033200090E00C947A19E0ECF5E0438120E1420F43
:1033300008F44FEF8181628190E00C947A19E0ECFF
:10334000F5E0628120E1621B08F460E08181438145
:1033500090E00C947A19E0ECF5E0628120E1620FD4
:1033600008F46FEF8181438190E00C947A19E0ECCE
:10337000F5E08181438162818150990B0C947A1927
:10338000E0ECF5E0818190E04381628101960C944C
:103390007A19E0ECF5E0248130E1230F08F42FEFF7
:1033A00024830C944919E0ECF5E0248130E1231BDF
:1033B00008F420E024830C944919E0ECF5E085E35F
:1033C00080838091340190913501A09136018183F1
:1033D0009283A3838CE384830C9449190E94281858
:1033E00090E080E00E943E368F3E9E4F21F00E948A
:1033F000ED160E94DD1945E050E06CE170E080ECD4
:1034000095E00E9420368091C0058C7F11F40C94C9
:10341000DD19089580E290E09093240180932301C8
:103420008091500381110EC00E948B3381E0809304
:1034300050032FEF83ED90E3215080409040E1F75F
:1034400000C0000064E670E080E40E949133909335
:10345000240180932301892B09F04EC064E670E0BB
:1034600080E00E94ED339093240180932301892B07
:1034700009F042C064E670E080E00E94ED33909372
:10348000240180932301892BB9F564E670E08FE372
:103490000E94ED339093240180932301892B61F5E1
:1034A0000E94673464E670E080E40E949133909358
:1034B000240180932301892BF9F464E670E08CE009
:1034C0000E94ED339093240180932301892BA1F472
:1034D00064E670E080E00E94ED33909324018093D5
:1034E0002301892B49F464E670E08FE30E94ED33F9
:1034F00090932401809323010E94673480912301DB
:103500000895CF93C82F873070F580912301909153
:103510002401892B89F564E670E080E40E949133F0
:103520009093240180932301892BD1F464E670E009
:1035300082E10E94ED339093240180932301892B33
:1035400079F481E090E001C0880FCA95EAF764E65B
:1035500070E080950E94ED339093240180932301C5
:10356000CF910C9467348A30B9F040F4883071F010
:10357000893079F0209A2898CF9108958C3091F075
:1035800070F08D30B9F73E9A4698F6CF219A299877
:10359000F3CF229A2A98F0CF239A2B98EDCF529A04
:1035A0005A98EACF539A5B98E7CFCF93873050F57C
:1035B0008091230190912401C0E0892B71F464E68D
:1035C00070E081E40E949133909324018093230161
:1035D000892B31F0C0E00E9467348C2FCF91089581
:1035E00084E690E00E941C3497FF05C0909324016C
:1035F00080932301EFCFC82FC09510922401109221
:103600002301E9CFCFB18FB1869586958C73C370B6
:103610008C2BC82FC095E1CF1F920F920FB60F923F
:1036200011242F933F934F935F936F937F938F93C7
:103630009F93AF93BF93EF93FF938091E10082FF3D
:1036400009C08091E20082FF05C08091E1008B7F7C
:103650008093E1008091DA0080FF24C08091D8003F
:1036600080FF20C08091DA008E7F8093DA00809105
:10367000D90080FF9BC080E189BD82E189BD09B48A
:1036800000FEFDCF81E08093AF0580918A05811116
:1036900009C00E944D080E941A098091E2008460CE
:1036A0008093E2008091E10080FF17C08091E200EA
:1036B00080FF13C08091E2008E7F8093E2008091B2
:1036C000E20080618093E2008091D8008062809364
:1036D000D80019BC85E08093AF058091E10084FF9C
:1036E00029C08091E20084FF25C080E189BD82E18C
:1036F00089BD89B5982F917080FFFBCF8091D8004C
:103700008F7D8093D8008091E1008F7E8093E100CF
:103710008091E2008F7E8093E2008091E2008160E0
:103720008093E2008091B005882309F445C084E0CD
:103730008093AF058091E10083FF27C08091E20074
:1037400083FF23C08091E100877F8093E10082E0C6
:103750008093AF051092B0058091E1008E7F809339
:10376000E1008091E2008E7F8093E2008091E20090
:1037700080618093E20042E060E080E00E94E8081F
:103780008091F00088608093F000FF91EF91BF91ED
:10379000AF919F918F917F916F915F914F913F91E9
:1037A0002F910F900FBE0F901F90189519BC10927B
:1037B000AF0510928A0576CF8091E30087FD93E0F4
:1037C0009093AF05B7CF78941F921FB61F92112424
:1037D0008F939F93AF93BF9380913B0590913C054E
:1037E000A0913D05B0913E050196A11DB11D8093AC
:1037F0003B0590933C05A0933D05B0933E05BF91DA
:10380000AF919F918F911F901FBE1F9018952FB75A
:10381000F89480913B0590913C05A0913D05B091B5
:103820003E052FBF08950E94071C9C0190916F05D3
:1038300080917005982B21F030936D0520936C05D5
:103840009091710580917205982B21F030936A0553
:1038500020936905E0915605F0915705309731F0B6
:103860000480F581E02D8EE695E00994089510928C
:103870003405109233050E94490C85E0EEE6F5E030
:10388000DF011D928A95E9F710926B051092680589
:1038900010923F050E94131C90E080E00E942B0DC7
:1038A00090E080E00C94150DCF92DF92EF92FF92A2
:1038B000CF93DF9300D000D0CDB7DEB70E9479154B
:1038C0006B017C0180918705882321F08091880518
:1038D000811115C0C0928305D0928405E0928505C0
:1038E000F09286050E94371C0F900F900F900F905A
:1038F000DF91CF91FF90EF90DF90CF9008951982E4
:1039000082E08A83C701B6010E94EF0B8B838EEFA2
:103910008C8364E0CE0101960E943B0ADBCF0F93BB
:103920001F9341E050E060E070E004C0440F551F79
:10393000661F771F8A95D2F7CB01BA016095709503
:1039400080959095009183051091840520918505BF
:103950003091860560237123822393231F910F9159
:103960000C94541C909132058095892380933205E4
:10397000282F277071F4282F082E000C330B921774
:10398000130639F08595859585950E948F1C1092B8
:10399000320508950F931F9341E050E060E070E01E
:1039A00004C0440F551F661F771F8A95D2F7809178
:1039B000830590918405A0918505B09186058A01C3
:1039C0009B01082B192B2A2B3B2BC901B8011F91F6
:1039D0000F910C94541C60933705709338058093B5
:1039E000390590933A050C94371C10923505809157
:1039F0002F01E2E3F3E0882359F08091540587FF1B
:103A000007C08EE1DF011D928A95E9F70C94371CFF
:103A100086E0F8CF1F93CF93DF93CDB7DEB7AA9799
:103A20000FB6F894DEBF0FBECDBF81EB95E02091BD
:103A3000F100FC012193CF01F5E0893B9F07B9F725
:103A40008091B205893009F444C018F5823009F438
:103A5000B9C0833009F46EC0813031F58091B10571
:103A6000813A11F58091E800877F8093E80080918A
:103A7000B5059091B605892B41F560E28DE895E09A
:103A800070E00E94DA098091E8008B778093E8006B
:103A90000BC08B3009F46BC008F483C0823409F486
:103AA000A2C0853409F4BCC08091E80083FF50C2F5
:103AB0008091B1059091B2059A3008F049C2E92F82
:103AC000F0E0E257F74C0C94933460E090E080E033
:103AD000D7CF8091B105813239F78091B5059091AA
:103AE000B605009711F00297F9F68091E800877FFC
:103AF0008093E8008091E80082FF17C09091F30066
:103B00008091F200029729F48091F1008B7F81303F
:103B100021F48091F10080938C058091E8008B77EF
:103B20008093E8000E94C908BFCF8091AF05811142
:103B3000E1CFBACF8091B105813A09F0B5CF80913C
:103B4000B5059091B605892B09F0AECF8091E800BC
:103B5000877F8093E8008091E80080FFFCCF809110
:103B60002F018093F1008091E8008E77D9CF80916A
:103B7000B105813209F098CF8091B5059091B605D5
:103B8000892B09F091CF8091E800877F8093E8002E
:103B90000E94C9088091B30580932F010E94F51CF3
:103BA00083CF8091B105813209F07ECF8091E8000A
:103BB000877F8093E8000E94C9088091B4058093B4
:103BC0008B0572CF8091B105813A09F06DCF80915C
:103BD000E800877F8093E8008091E80080FFFCCFB9
:103BE00080918B05BECF8091B105803C09F05CCF00
:103BF0008091B5059091B605029739F58091B3058E
:103C00009091B405892B09F58091E800877F809316
:103C1000E8006BE170E082E39FE00E947B0982CFC5
:103C20008091B105803C09F03FCF8091B50590911E
:103C3000B605079751F48091E800877F8093E800EC
:103C400062EB70E080E89EE0E8CF8091EB0080625C
:103C50008093EB0029CF803899F0823809F078C141
:103C60008091B5058F70873008F072C18093E900AC
:103C70008091EB0085FB882780F91092E90006C04F
:103C80008091AD059091AE05911182609091E80010
:103C9000977F9093E8008093F1001092F10080915B
:103CA000E8008E7751C1882309F43FC1823009F0C2
:103CB0004FC18091B305811142C18091B5058F70CC
:103CC0002FEF280F263008F043C18093E9002091A0
:103CD000EB0020FF34C1933031F48091EB0080621F
:103CE0008093EB002CC19091EB0090619093EB00DE
:103CF00021E030E001C0220F8A95EAF72093EA0024
:103D00001092EA008091EB008860EACF811120C117
:103D10001091B3051F778091E3008078812B809309
:103D2000E3008091E800877F8093E8000E94C90843
:103D30008091E80080FFFCCF8091E3008068809351
:103D4000E30082E0111183E08093AF0501C1805848
:103D5000823008F0FDC08091B3059091B4058C3D90
:103D600023E09207A1F583E08A838AE289834FB733
:103D7000F894DE01139620E03EE051E2E32FF0E0FC
:103D800050935700E49120FF03C0E295EF703F5F2E
:103D9000EF708E2F90E0EA30C0F0C7968D939D9320
:103DA0002F5F243159F74FBF8091E800877F8093C0
:103DB000E8006AE270E0CE0101960E94DA09809183
:103DC000E8008B778093E800C3C0C096E7CF2091CE
:103DD000B5053091B605492F55274330510551F1AE
:103DE000A0F44130510509F459C06BE670E08EE44F
:103DF0009FE04230510509F0ABC02091E800277FD9
:103E00002093E8000E947B09DACF4132510539F155
:103E10004232510591F14F30510509F099C0E5E268
:103E2000F0E1649170E083E290E16115710509F4BD
:103E30008FC0E3CF99278130910571F0009731F061
:103E4000029709F085C0EBECFFE002C0EFE1F0E182
:103E5000649170E0CF01E9CFEDEEFFE0F9CF2330C0
:103E6000310508F075C0220F331FF901EB5BFD4FE0
:103E70008081918169E070E0C0CF2330310508F086
:103E800067C0F901EE0FFF1FE15CFD4F808191815A
:103E9000245C3D4FF901608170E0C7CF62E170E0C2
:103EA00089EB9FE0AACF803809F052C08091E800EA
:103EB000877F8093E8008091B0058093F100EFCE7A
:103EC000811146C01091B305123008F041C08091B5
:103ED000E800877F8093E8001093B0050E94C9082E
:103EE000112311F084E005C08091E30087FDFACF33
:103EF00081E08093AF0542E061EC81E00E94E80838
:103F000042E061EC82E00E94E80842E261EC83E07A
:103F10000E94E80842E361EC84E00E94E80842E382
:103F200060EC85E00E94E80813C08091B305813001
:103F300079F481E0933009F080E08093AE0510922F
:103F4000E9008091E800877F8093E8000E94C9081B
:103F50008091E80083FF0AC08091E800877F80930A
:103F6000E8008091EB0080628093EB00AA960FB688
:103F7000F894DEBF0FBECDBFDF91CF911F910895A2
:103F80001F920F920FB60F9211242F933F934F93CE
:103F90005F936F937F938F939F93AF93BF93CF93D1
:103FA000DF93EF93FF93D091E900DF708091EC00F5
:103FB000C82FC17080FDC0E81092E9008091F00028
:103FC000877F8093F00078940E940A1D1092E90088
:103FD0008091F00088608093F000CD2BCF70C0936B
:103FE000E900FF91EF91DF91CF91BF91AF919F9148
:103FF0008F917F916F915F914F913F912F910F9092
:104000000FBE0F901F901895882379F19CEF980FA1
:10401000913A38F4682F80E393E00E94900B0C945F
:10402000490C90E2980F983050F4877091E001C0ED
:10403000990F8A95EAF7892F0E94420CF0CF9BE5F1
:10404000980F933020F490E080E00C942B0D98E5CD
:10405000980F973120F490E080E00C94150D803F8C
:1040600020F00E94520A0C94131C0895CF93DF9302
:10407000EC010E9404206FEE7CE0CE01DF91CF9135
:104080000C94E8148FE39CE90197F1F700C000005D
:1040900080915203823079F028F4813039F0109207
:1040A00052030895833051F08530C9F78CE298E0CF
:1040B0000E943620F4CF87E194E0FACF88E094E0C4
:1040C000F7CFCF93C82F882309F46EC08CEF8C0FE5
:1040D000813AB8F580912F01882311F18091540520
:1040E00087FF1EC0EC2FE695E695E695F0E0E05DD3
:1040F000FC4F828190E04C2F477021E030E002C0FD
:10410000220F331F4A95E2F782239323892B89F0EC
:104110006C2F80E393E00E94900B0E94490C09C031
:10412000E2E3F3E08191C81799F383E0E833F807FD
:10413000C9F76C2F80E393E00E94BA0BCF910C94E7
:10414000490C80E28C0F883068F4C77021E030E0C1
:1041500001C0220FCA95EAF780913505822B809322
:104160003505ECCFEBE5EC0FE33040F4F0E0E55F34
:10417000FD4F808190E0CF910C942B0DE8E5EC0F82
:10418000E73150F4F0E0EE0FFF1FE25FFD4F80815A
:104190009181CF910C94150DC03F30F08C2F0E946F
:1041A000190BCF910C94131CCF910895CF93C82F66
:1041B0000E946120C93349F42FEF87EE93E021502C
:1041C00080409040E1F700C000008C2FCF910C940C
:1041D00004200F931F93CF93DF93C62FD42F022F6A
:1041E000FC0182818823A1F06093BB050E94071C1B
:1041F0009093BA058093B905C77081E001C0880F1C
:10420000CA95EAF7DF91CF911F910F910C940B0D96
:104210008091BB05681335C08091B9059091BA05AE
:104220000E94810B883C910560F510E21D0FCD17AF
:10423000B9F080E28C0F883040F4C77081E001C093
:10424000880FCA95EAF70E94040D183048F481E0FF
:104250009D2F977001C0880F9A95EAF70E940B0D69
:10426000802F0E94D620183098F4D77081E001C0CA
:10427000880FDA95EAF7DF91CF911F910F910C9497
:10428000040DC77081E001C0880FCA95EAF7F3CF2B
:10429000DF91CF911F910F910895CF92DF92EF920E
:1042A000FF920F931F93CF93DF93EC018AE0C82E08
:1042B000FE018491882309F481C0813009F03EC059
:1042C00031968491813039F42296FE0184910E94C6
:1042D000D6202196EDCF823031F42296FE018491D2
:1042E0000E946120F6CF833031F42296FE01849142
:1042F0000E940420EECF843009F05EC02296FE01B9
:10430000249190E080E0FE0131962053330B2A3057
:10431000310548F00197E8F2EFE9FFE03197F1F756
:1043200000C00000F7CFC89EA001C99E500D112407
:10433000C901840F951F2491EF01E5CFE82FF0E02C
:10434000EA52F94FD490082F06950695069510E08D
:10435000F801EA53F94FE4908770F12C082E02C05F
:10436000F594E7940A94E2F721E0E222FF240A544C
:10437000194FF801049110E002C0159507958A9530
:10438000E2F701701127E114F10419F081EE0E94A7
:1043900061200115110519F086EE0E9461208D2D16
:1043A0000E94D620012B19F086EE0E940420EF28EF
:1043B00009F48FCF81EE9CCFEF018BCFDF91CF91AE
:1043C0001F910F91FF90EF90DF90CF900895CF93C2
:1043D000C82F6AEF7CE00E94E8148C2FCF910C94D8
:1043E00061208CE298E00E94E7218CE298E00C9436
:1043F0003620CF93DF93EC018881833031F40E9423
:10440000F1210E94F1210E94F1218881843020F065
:10441000DF91CF910C94F121DF91CF910895FC01B0
:104420008081813091F48185882331F081E080930F
:1044300052038CE298E016C082858823B9F382E0AB
:104440008093520387E194E00DC08230B9F48185F6
:1044500081110EC08285811107C083E080935203D1
:1044600088E094E00C94E72184E08093520308955F
:1044700085E0809352030E94F121DBCF86E0F5CFE7
:104480004F925F926F927F928F929F92AF92BF9264
:10449000CF92DF92EF92FF920F931F93CF93DF9310
:1044A00000D000D00F92CDB7DEB77C01DC011396AF
:1044B0008D919C911497892B41F01C911196DC9061
:1044C000812F8D218F3F09F07FC60F900F900F90A5
:1044D0000F900F90DF91CF911F910F91FF90EF9070
:1044E000DF90CF90BF90AF909F908F907F906F9014
:1044F0005F904F9008950E947814082F682F89814B
:104500009A810E94B70CE12FF0E0B6E0DB9EE00D4F
:10451000F11D112424E5029FE00DF11D1124EE0F81
:10452000FF1FE856F74F05911491D70112968C9111
:10453000811144C080918705811180C00A32BDE598
:104540001B0709F498C00B32EDE51E0709F46EC194
:10455000033CFCE51F0709F091C1D70112968C912D
:104560008823E9F090913101809142059F3F09F045
:104570007EC1109231018F7E8093420540E060E061
:1045800080E00E940F0E40914205509143056091DA
:104590004405709145058FE090E00E946636809159
:1045A0003205877009F491CFD70112968C91882338
:1045B00009F48BCF82E00E94B21C87CF8091220148
:1045C0008F3F09F4B7CF6CE0C62E61E0D62EB12C38
:1045D000A12C9924939480912201082E000C990B10
:1045E0008A159B050CF4A6CFF60186818823F9F085
:1045F000818592858017910739F48091C00490914C
:10460000C1048017910799F0D6011F969C921F97BD
:104610001C961C930E931B9751968C91811103C08D
:10462000C6010E944D0DC60106960E946E0DBFEF99
:10463000AB1ABB0AE6E1CE0ED11CCDCF8091880526
:10464000882309F47BCF1982D70112968C918111AE
:1046500010C082E18A83D7018C918B8311968C9153
:104660008C838EEF8D8365E0CE0101960E943B0A1C
:1046700065CF81E1EFCFD70112968C918823C9F1E4
:104680008091420591E0980F9770887F953008F4EB
:10469000892B80934205809142058770BFEF8B9FE5
:1046A000C0011124959587959595879599279093A5
:1046B00089008093880090938B0080938A00909368
:1046C0008D0080938C00409142055091430560918C
:1046D0004405709145058FE090E00E946636609138
:1046E00083057091840580918505909186050E94CF
:1046F0007915C80197558F3F910511F008F003C156
:1047000020912201022E000C330B2817390714F4D4
:1047100080932201D70112962C91129736E1389F8F
:104720005001399FB00C1124F501E45FFE4F6F0179
:10473000208B12969C918681992309F4D7C0128709
:1047400001878F5F86830E94071CD6011E969C936B
:104750008E931D978091360517968C9317978091AD
:10476000340590913505892B18968C931897ED9107
:10477000FC911197309739F054966D917C91C50159
:104780008E5E9E4F09951093C1040093C004D7011B
:1047900012969C91992309F429C51092BB05023009
:1047A000BCE51B0708F4BCC10631ECE51E0738F078
:1047B00098012B5F3C452730310508F0B1C10E94BC
:1047C000C91590935505809354050F30FCE51F07DC
:1047D00009F487C108F008C108303CE5130709F463
:1047E0006AC108F0DBC004309CE5190709F457C121
:1047F00008F0C3C00230BCE51B0709F44CC180912E
:104800005405826003301C4509F4DAC060915405F8
:104810001091550584E090E00E945436612F81E2AA
:1048200090E00E9454360E94F51CB9CEF7018281B7
:10483000882309F45ECF90914205892F877F93FFEB
:1048400088608093420583FF05C040E060E080E01F
:104850000E940F0E4091420550914305609144051E
:10486000709145058FE090E00E94663642CF9FEF41
:104870009093310180618093420585CE0D32BDE574
:104880001B0709F170F40C32FDE51F0709F031CF69
:10489000F7018281882309F482CE81E00E945119B8
:1048A0007ECE0E322DE51207C9F00F323DE513071B
:1048B00009F01FCFD70112968C91882309F419CFE4
:1048C00086E598E008C0D70112968C91882309F4F8
:1048D00010CF82E898E00E944D210BCFF701828132
:1048E000882309F406CF8CE698E0F5CF882309F4F5
:1048F0004ECF8189882309F44ACFC5018E5E9E4F31
:104900000E946E0D44CF043FFCE51F0739F188F487
:10491000093D3CE51307F1F00A3D8CE5180751F11C
:10492000083D9CE5190709F032CF26E241EE61EE21
:104930000DC0063FACE51A07C9F0A0F027E245EE2E
:1049400066EE073FECE51E0709F021CFC7010E9484
:10495000E92025CE27E245EE65EEF8CF26E241EECE
:1049600060EEF4CF27E245EE64EEF0CF26E241EEB2
:1049700062EEECCF28E241E0EFCF809154058061F8
:104980000630FCE51F07E1F0809154058860073090
:104990001C45B0F080915405806212C00B303CE59C
:1049A000130709F496C078F409309CE5190709F457
:1049B00086C0809154058C600A301C4509F026CFD2
:1049C0008093540523CF809154058B7F0D30BCE537
:1049D0001B07B1F3809154058D7F0E301C4580F389
:1049E00080915405877FECCF0B3FFCE51F0709F44E
:1049F0005AC048F502313CE5130709F47AC060F467
:104A000000319CE5190709F470C0809154058F7B33
:104A100001311C45A9F2FACE0431BCE51B0709F4AB
:104A200076C008F46CC005311C4509F0EFCE8091CA
:104A3000540582FB992790F921E0922790FB82F997
:104A400090FB83F9BDCF0E3F2CE5120709F445C05A
:104A500070F40C3F8CE5180751F1809155058E7F5D
:104A60000D3F1C4509F0D2CE80935505CFCE0115E0
:104A7000ADE51A0709F447C040F101301D4509F0C2
:104A8000C5CE80915505982F909591708E7F892B7A
:104A900090FB81F9E9CF80915405816091CF80919D
:104AA000540584608DCF809155058160DDCF809164
:104AB00055058260D9CF80915405806481CF0E94D2
:104AC000F51C8091540580687BCF809155058360EB
:104AD000CBCF809154058E7F73CF809155058D7F0C
:104AE000C3CF809154058F7E6BCF809154058F7D0D
:104AF00067CF0E94F51C809154058F7761CF80911C
:104B00005405837F5DCF809155058C7FADCF0E948A
:104B1000F51C90915405892F97FB87F9805850CF49
:104B2000809135050631FCE51F0709F06DC38A7ACF
:104B300091E009F490E09093C20469E2811165E389
:104B400080E393E00E94BA0B0E94490C28CD80912B
:104B5000C00591E089278093C005109233010E941F
:104B600049191DCD47E659E160E779E10E94B80D8A
:104B700016CD40E759E167E679E1F8CF47EB59E117
:104B800060EC79E1F3CF40EC59E167EB79E1EECFEE
:104B90004FE959E16BEA79E1E9CF4BEA59E16FE975
:104BA00079E1E4CF47E859E163E979E1DFCF43E90F
:104BB00059E167E879E1DACF43ED59E169EC79E150
:104BC000D5CF49EC59E163ED79E1D0CF85E066CEF0
:104BD0008DE064CE82E162CE0F3D2CE5120709F430
:104BE00046C009303DE5130709F444C001151C45D2
:104BF00009F047C00E94F51C9FEFA4E3BCE0915070
:104C0000A040B040E1F700C00000F89481E080933C
:104C1000E00080E28093D8001092C900EFE1FEE44A
:104C20003197F1F700C000001DBA109268001CBC5B
:104C300010BE1FBA10927A0010926E0010926F0090
:104C400010927100109272001092C9001092BC0074
:104C500014B817B81AB81DB810BA1092BC0015B81D
:104C600018B81BB81EB811BA0C94003F98CC0E941B
:104C7000ED1695CC8091890591E08927809389056F
:104C80008ECCF70100811181992309F440C0C8013D
:104C90000E947814D82E682FC8010E94B70CB80162
:104CA0008D2D0E94DC128C01882ED7011596AC90B8
:104CB0001597A2944FE0A4221296DC90D110109286
:104CC000340580913205877099F0DD2089F0812FBD
:104CD000807F803421F080E2800F883048F082E0CD
:104CE0000E94B21C809132058770CC24C39481113C
:104CF000C12CB12EB2943FE0B322BBE0BB1508F447
:104D00003DC0EB2DF0E0E856F74C0C949334C8010D
:104D10000E948E0CD82EC3CFE12FEF70AE2E107FE5
:104D200019F0A29420EFA222DD20C9F0AA2069F098
:104D300080E2800F883010F081100BC08091350523
:104D4000A82AA09235050E94490C802F0E9461205C
:104D500015C080913405A82AA0923405F4CF802F85
:104D60000E940420AA2051F0005E083010F081104B
:104D700043C08A2D0E94420C0E94490CAB2DA850C2
:104D8000BB0B149710F40E94410DCC20A9F0809128
:104D9000320580FD11C0F7011282859585958595B4
:104DA0000E94CA1CC7010E9440228091320585954D
:104DB000859585950E948F1C85E0F701DE0111968F
:104DC00001900D928A95E1F789819A810E948E0C5B
:104DD0009A81E981F0E026E0929FE00DF11D112417
:104DE00034E5839FE00DF11D1124EE0FFF1FE856FF
:104DF000F74F8591949169CBA09480913405A822B6
:104E0000A0923405B9CFF12FFF709F2E107F103282
:104E100019F0929490EF9922882041F021E08216B7
:104E200031F1DD2079F1AA2041F18FCFDD2091F021
:104E300090913605892F8929A11003C00E940B0D7E
:104E40009DCF31E0A312FACF981709F497CF809342
:104E5000360594CFA11006C00E943C0C892D0E94FB
:104E6000040D8CCF81E0A81609F488CFF5CFDD20A2
:104E700031F091E09A1508F481CF892DDFCFA11090
:104E80007DCFECCFAA2051F3A9E38A1209C0BFEF6E
:104E9000E7EEF3E0B150E040F040E1F700C0000081
:104EA000802F0E9404206ACF812F8695869583707B
:104EB00061F0813009F062CFC8019370D11002C057
:104EC00090E080E00E94150D59CFC8019370D11079
:104ED00002C090E080E00E942B0D50CF802FDD209B
:104EE00029F00E94190B0E94131C48CF0E94520AFD
:104EF000FACF812F837009F066C0D1103FCF802F89
:104F0000829586958770880F880F602F6F70462E68
:104F1000512C712C612C082E04C0440C551C661CAD
:104F2000771C0A94D2F740E050E0BA0104FF0FC0AA
:104F30004FE050E060E070E004C0440F551F661F72
:104F4000771F8A95D2F74095509560957095812F7F
:104F5000869586958370823019F1D8F400913705D3
:104F6000109138052091390530913A05813069F06A
:104F70004429552966297729CB01BA016023712379
:104F8000822393230E94EB1CF9CE402A512A622AE5
:104F9000732ACB01BA016429752986299729F2CF92
:104FA000442955296629772900913705109138053C
:104FB0002091390530913A05CB01BA01602771275C
:104FC00082279327DFCF8695DD2011F0812F817016
:104FD000882309F4D3CE802F829586958770880F19
:104FE000880F602F6F70462E512C712C612C082E6B
:104FF00004C0440C551C661C771C0A94D2F740E090
:1050000050E0BA0104FF0FC04FE050E060E070E0F4
:1050100004C0440F551F661F771F8A95D2F740952D
:10502000509560957095812F869586958370823016
:1050300019F1D8F40091830510918405209185051C
:1050400030918605813069F04429552966297729F0
:10505000CB01BA0160237123822393230E94541C45
:105060008DCE402A512A622A732ACB01BA016429C3
:10507000752986299729F2CF442955296629772948
:105080000091830510918405209185053091860556
:10509000CB01BA016027712782279327DFCF1F70CA
:1050A000DD2029F0812F0E94CA1C802FC7CE802FBF
:1050B0000E94040D812F0E948F1C60CE802F22EF52
:1050C000821609F44EC0281578F030EF831619F1D6
:1050D00091EF891609F43DC0DD2009F465C0A110E7
:1050E00034CE812F8F713AC0A3EF8A1609F43EC0E7
:1050F000B4EF8B12F1CFDD2009F44BC01F71812F6B
:105100000E94CA1CF8E01F9FC00111248360809395
:105110003205812F23C0DD20B9F0A1102FCE1F71E1
:1051200061E070E080E090E004C0660F771F881FA8
:10513000991F1A95D2F7009183051091840520914B
:10514000850530918605A6CFE1E0EA1508F416CE74
:10515000E6CF812F8F71DD2009F4ADCF0E94CA1CEC
:105160000DCE812F8F71DD20C9F3A5CF60E070E0F7
:10517000CB01DD2009F472CF1F7161E070E080E0A7
:1051800090E004C0660F771F881F991F1A95D2F709
:1051900065CF81E00E94B21C21E02A1508F0EECD17
:1051A00082E00E94B21CEACDAA2059F0893309F0AE
:1051B00077CE3FEF87EE93E0315080409040E1F7AB
:1051C0006DCE812F8F7177CF85E0F701DE011196CB
:1051D00001900D928A95E1F7F701228189819A81E8
:1051E000211189C90E948E0C082F8DC906311C45DA
:1051F00009F047CD8091C20469E2811165E380E343
:1052000093E00E94900BA0CC8272F801E35CFC4515
:10521000E431F10508F0E0CCEC55F74C0C949334F4
:105220001F93CF93DF938091C804807FA9F480916E
:10523000C504882389F08091FA04D091C904609153
:10524000C3047091C404A091C604B091C704C62FD2
:10525000C72316E0D81304C0DF91CF911F910895A2
:1052600090E0109711F0CF3F19F401968770F2CFBC
:10527000189F9001199F300D1124F901E653FB4F3F
:1052800041814713F2CF40814613EFCF4281411154
:10529000ECCF438154814A1B5B0B483C510528F7F6
:1052A0008091C8048F7080618093C804F901E15334
:1052B000FB4F80818F708061808383EC94E00E943B
:1052C0004022DF91CF911F910C94E50CAF92BF92D9
:1052D000CF92DF92EF92FF920F931F93CF93DF93C2
:1052E000CDB7DEB761970FB6F894DEBF0FBECDBF66
:1052F0008C0185E0F801DE011D9601900D928A95E2
:10530000E1F7F80180819181E28023ECA22E24E074
:10531000B22E6091C6047091C7046115710509F43D
:105320003EC13091C3044091C404232F24232F3F56
:1053300009F435C1C380D480F090C504F601E61BA2
:10534000F70BFF2009F4FBC02091C804522F507FB7
:10535000E83CF10508F0BBC0511178C0FE2C4913A0
:1053600021C038131FC0E1101DC02F702061209391
:10537000C804C5010E9440228091C804F8018583B9
:105380008F2D61960FB6F894DEBF0FBECDBFDF91B3
:10539000CF911F910F91FF90EF90DF90CF90BF9032
:1053A000AF900895CD2829F0282F29232F3F09F009
:1053B00014C120E0F22FF170DF2E20FF3DC02091BC
:1053C000FA044091C90456E0241315C08D879E87C6
:1053D0008D859E850E94BA14292F22952F70223028
:1053E000F8F0243020F59F70F9F0F8019581907F56
:1053F000D9F4D12C1FC030E0529FF001539FF00D23
:105400001124E653FB4F6181961306C06081861319
:1054100003C06281E61210C02F5F3F4F2770D4CFC8
:105420009F7011F0882329F3805E883010F3C80143
:105430000E944022FD2CA4CFEE2009F4A1CF809140
:10544000C80481608093C804F12C9ACF491312C01C
:10545000381310C0E1100EC0F8012583C8010E9466
:10546000402286E0F801A3ECB4E001900D928A9509
:10547000E1F786CF8D879E878D859E850E94C41417
:10548000882309F1EE20F9F08091C804803270F091
:105490002091C3043091C40438872F831986DB869A
:1054A000CA868C87CE0107960E94402286E0F801CA
:1054B000A3ECB4E001900D928A95E1F70E941029C7
:1054C000FF24F3945DCFC8010E944022F9CF51110F
:1054D0000AC083EC94E00E94402286E0F50111921C
:1054E0008A95E9F7B1CF49130FC038130DC0E11009
:1054F0000BC0F8012583C8010E94402286E0F50117
:1055000011928A95E9F73CCF8D879E878D859E8580
:105510000E94C4148823B9F2EE20A9F28091C80435
:10552000803220F22091C3043091C4043A8329834D
:105530001B82DD82CC828E83CE010196B5CFE83C02
:10554000F105E0F6FE2CEE2009F4BDCF491316C09C
:10555000381314C08091C80480FD83CF982F907FAA
:1055600009F47FCFF8018583903F09F477CF982F16
:10557000907F905F8F70892B858370CF8D879E87FA
:105580008D859E850E94C414811190CF8091C8049E
:1055900081608093C804C8010E944022F1CEEE20B1
:1055A00009F491CF8D879E878D859E850E94C414B6
:1055B000F82E882309F487CF86E0F801A3ECB4E045
:1055C00001900D928A95E1F78091C3049091C404F3
:1055D0000E94BA140E941029D3CE21E02E25EACED3
:1055E0001F93CF93DF93CDB7DEB767970FB6F894CD
:1055F000DEBF0FBECDBF4B8B5C8B6D8B7E8B8F8BDD
:105600001A8A198A85E0FE017396DE011D960190C3
:105610000D928A95E1F786E0FE013D96DE01179630
:1056200001900D928A95E1F7CE0107960E946629B6
:10563000811112C086E0FE013796DE0111960190BD
:105640000D928A95E1F78A859B85892B29F08F81B8
:10565000988589238F3FB1F516E08091FA049091E7
:10566000C90489131DC067960FB6F894DEBF0FBE3C
:10567000CDBFDF91CF911F91089596E0929FD00109
:10568000939FB00D1124A653BB4FFE01319601909C
:105690000D929A95E1F78093C9040E94E50CDCCF46
:1056A000819FC001112486539B4F0E946629882345
:1056B000D1F28091FA0490E0019687709927809347
:1056C000FA04CBCF2091C90430E0C901019687705C
:1056D00099274091FA044817190679F60E94F51C9B
:1056E0001092C9041092FA0486E0E3ECF4E0DF01C2
:1056F0001D928A95E9F7B0CF8F929F92AF92BF9299
:10570000CF92DF92EF92FF920F931F93CF93DF938D
:105710008091230190912401892BA1F08091530362
:105720008F5F8093530381110DC00E940A1A90E08D
:105730009093240180932301892B21F40E947316F6
:105740000E94EE19F6E48F2EF5E09F2E740100E022
:1057500010E0E7E0CE2EC10E812F0E94811A8C2D21
:105760000E94811A812F0E94D51AE70199917E012A
:10577000D12C891729F0FE0131978083DD24D39441
:105780008C2D0E94D51AF7019681891709F47AC0E9
:10579000868381E08D29082B0E94AD151F5F17308D
:1057A000C1F60E94071C60915503709156039093B7
:1057B0005603809355032091540330E0261B370B8A
:1057C000820F931F6BEF70E00E946B34E82E392F2D
:1057D000182F80935403F0905803FF2009F490C3CE
:1057E00010925803E0914005F0914105AF01425FEE
:1057F0005F4F20E07BEFB72E6BEF70E0A191AB3FE6
:1058000099F0CA2ED12C8E2D932F1A17E8F18C19EE
:105810009D09092E000CAA0BBB0B4E97A105B105E3
:10582000C8F1DF011197BC92E417F50739F720930F
:105830005803011102C0211165C310925703A091B2
:105840004005B091410590915803EAE5F5E080E00C
:105850003191E40129914E01321751F03C913B3FC7
:10586000D9F41C93AF0141505109EA01288391E01A
:105870001196D5E0E836FD0759F7909358038093C9
:10588000570344C380E086CFDB01AC19BD098A0F02
:105890009B1FBFCF2F2DC8CF81E0EACFF29EF00132
:1058A000F39EF00D1124E45FFE4FC288D388C1142B
:1058B000D10419F468ECC62ED12CF29EE001F39EBF
:1058C000D00D1124C45FDE4F8E818823B9F08D8501
:1058D0009E850E94810BC816D90680F41F9D600129
:1058E00011248989811105C0C601845F9E4F0E94E1
:1058F0004D0DC6018E5E9E4F0E946E0D1F5F212FC3
:1059000030E080912201082E000C990B821793073A
:105910002CF604C3109230014093BC055093BD0592
:105920006093BE057093BF0581E08093330124C36B
:1059300080910B01C1E018130BC02091C0052370AA
:1059400080910A0190E0C1E02817190609F4C0E02F
:10595000C170C0933201193140F4E12FF0E0E854F6
:10596000F74C0C949334C11102C0C0E028C040E051
:1059700060E080E00E940F0EF8CF80913001C82FC8
:10598000CC0FCC0FC80F45E0F42EFC0EEF2CE0E35B
:10599000EF1510F430E3E32E6091C1057091C2055C
:1059A0008091C3050E948010D62EC72EB82ED0E05D
:1059B000CE1508F43BC0C1E02FE22F15B0F2809164
:1059C00030018F5F80933001C11110C282E080935B
:1059D000330180913201811109C2112309F429C2D6
:1059E000809159058111C8C28091420583FDC4C2CE
:1059F000609183057091840580918505909186055D
:105A00000E94EF0B823009F405C208F0F3C188232D
:105A100009F4F8C1813009F4FAC180913101811192
:105A2000ABC240E060E00E940F0EA6C2FE01E15052
:105A3000FD4F808190913101892331F02B2D4D2D27
:105A40006C2DCE010E94110E2196B2CF80913001B3
:105A5000C82FCC0FCC0FC80F25E0F22EFC0EEF2C78
:105A600030E33F1510F490E3E92EC090C205D090CA
:105A7000C305D091C1056D2F7C2D8D2D0E94801006
:105A8000B62EA72E982E6091C4056D0F7C2D8D2DFE
:105A90000E948010D62EC72E882ED0E0CE1530F072
:105AA000C1E09FE29F1508F08ACF5FCFFE01E15071
:105AB000FD4F908180913101892359F0282D4D2D82
:105AC0006C2D90FD03C0292D4B2D6A2DCE010E9417
:105AD000110E2196E3CF80913001C82FCC0FCC0F4F
