:100000000C946D070C948A070C948A070C948A0749
:100010000C948A070C948A070C948A070C948A071C
:100020000C948A070C948A070C94801E0C943C1E36
:100030000C9481330C948A070C948A070C948A07D9
:100040000C948A070C948A070C948A070C948A07EC
:100050000C948A070C94471A0C948A070C948A070C
:100060000C948A070C948A070C948A070C948A07CC
:100070000C948A070C948A070C948A070C948A07BC
:100080000C948A070C948A070C948A070C948A07AC
:100090000C948A070C948A070C948A070C948A079C
:1000A0000C948A070C948A070C948A0759CCC95976
:1000B000CCC959CCC959CCC959CCC959CCC959CCCE
:1000C000C959CCC959CCC959CCC959CCC959CCC9C1
:1000D00059CCC959CCC959CCC959CCC959CCC95921
:1000E000CCC959CCC959CCC959CCC959CCC959CC9E
:1000F000C959CCC959CCC959CCC959CCC959CCC991
:1001000059CCC959CCC959CCC959CCC959CCC959F0
:10011000CCC959CCC959CCC959CCC959CCC959CC6D
:10012000C959CCC959CCC959CCC959CCC959CCC960
:1001300059CCC959CCC959CCC959CCC900FFFF0009
:10014000FFFF00FFFF00FFFF00FFFF00FFFF00FFBA
:10015000FF00FFFF00FFFF00FFFF00FFFF00FFFFAA
:1001600000FFFF00FFFF00FFFF00FFFF00FFFF0099
:10017000FFFF00FFFF00FFFF00FFFF00FFFF00FF8A
:10018000FF00FFFF00FFFF00FFFF00FFFF00FFFF7A
:1001900000FFFF00FFFF00FFFF00FFFF00FFFF0069
:1001A000FFFF00FFFF00FFFF00FFFF00FFFF00FF5A
:1001B000FF00FFFF00FFFF00FFFF00FFFF00FFFF4A
:1001C00000FFFF00FFFF00FFFF00FFFF0052FF00E6
:1001D00052FF0052FF0052FF0052FF0052FF005238
:1001E000FF0052FF0052FF0052FF0052FF0052FF7B
:1001F0000052FF0052FF0052FF0052FF0052FF006A
:1002000052FF0052FF0052FF0052FF0052FF005207
:10021000FF0052FF0052FF0052FF0052FF0052FF4A
:100220000052FF0052FF0052FF0052FF0052FF0039
:1002300052FF0052FF0052FF0052FF0052FF0052D7
:10024000FF0052FF0052FF0052FF0052FF0052FF1A
:100250000052FF0052FF0052FF0052FF000000005A
:10026000000000000000000000000000000000008E
:10027000000000000000000000000000000000007E
:10028000000000000000000000000000000000006E
:10029000000000000000000000000000000000005E
:1002A000000000000000000000000000000000004E
:1002B000000000000000000000000000000000003E
:1002C000000000000000000000000000000000002E
:1002D000000000000000000000000000000000001E
:1002E0000000000000000000000000000EFFFF0EF4
:1002F000FFFF0EFFFF0EFFFF0EFFFF0000000000DC
:10030000008DFFE90000000000000000008DFFE903
:100310008DFFE98DFFE900000000000000000000F3
:1003200000000000000000000000000000000000CD
:10033000000000000EFFFF0EFFFF0EFFFF0EFFFF8D
:100340000EFFFF0000008DFFE98DFFE98DFFE90042
:1003500000000000008DFFE98DFFE98DFFE900003E
:10036000000000000000008DFFE900000000000018
:10037000000000000000000000000000000000007D
:10038000000000000000000000000000000000006D
:10039000000000FF0000000000000000000000FF5F
:1003A0000000FF0000FF000000000000000000004F
:1003B000000000000000000000000000000000003D
:1003C000000000000000000000000000000000002D
:1003D000000000000000000000000000000000001D
:1003E00000000000000000FF0000FF0000FF000010
:1003F00000000000000000000000000000000000FD
:1004000000000000000000000000000000000000EC
:1004100000000000000000000000000000000000DC
:1004200000000000000000000000000000000000CC
:1004300000000000000000000000000000000000BC
:1004400000000000000000000000000000000000AC
:10045000000000000000000000000000000000009C
:10046000000000000000000000000000000000008C
:10047000000000000000000000000000000000007C
:10048000000000000000000000000000000000006C
:1004900000000000000000000000000097A2E697A6
:1004A000A2E697A2E697A2E697A2E697A2E697A20F
:1004B000E697A2E697A2E697A2E697A2E697A2E6BB
:1004C00097A2E697A2E697A2E697A2E697A2E697FA
:1004D000A2E697A2E697A2E697A2E697A2E697A2DF
:1004E000E697A2E697A2E697A2E697A2E697A2E68B
:1004F00097A2E697A2E697A2E697A2E697A2E697CA
:10050000A2E697A2E697A2E697A2E697A2E697A2AE
:10051000E697A2E697A2E697A2E697A2E697A2E65A
:1005200097A2E697A2E697A2E697A2E6000101014C
:1005300001010101010102020202020202020203A0
:100540000303030303030304040404040404050570
:100550000505050606060606070707070708080833
:1005600008090909090A0A0A0B0B0B0C0C0C0D0DE2
:100570000D0E0E0E0F0F0F1010111111121213137A
:100580001414151516161717181819191A1A1B1BF3
:100590001C1D1D1E1E1F202021222223242425264F
:1005A00026272829292A2B2C2D2D2E2F3031323287
:1005B000333435363738393A3B3C3D3E3F40414293
:1005C000434445464748494A4C4D4E4F5051535479
:1005D000555658595A5B5D5E5F616264656668692D
:1005E0006B6C6D6F7072737577787A7B7D7E8082AD
:1005F000838587888A8C8E8F91939596989A9C9EF6
:10060000A0A2A3A5A7A9ABADAFB1B3B5B7BABCBE05
:10061000C0C2C4C6C9CBCDCFD1D4D6D8DBDDDFE2D2
:10062000E4E7E9EBEEF0F3F5F8FAFDFF2900350019
:100630002B45D75C4C0000001E00140004001D0078
:100640000057E0001F001A0016001B005000E300D6
:1006500020000800070006004F002A0021001500B6
:10066000090019005001000F220017000A000500C0
:100670000000AC00AE002F0000002E000000AB0018
:100680001409300000002D000000AA0023001C0007
:100690000B0011000000A900240018000D0010003C
:1006A0004F01A80025000C000E00360051002C0060
:1006B000260012000F003700520028002700130008
:1006C000330038006B0BE200085431003444D85C2E
:1006D0004C00000001002102010002510100000055
:1006E0002E02330004003400010001002F00360008
:1006F00012001400010001002F02370008000D0055
:10070000010001002602130018000E000100010084
:1007100024021C000C001B00000001000100380036
:10072000000031020000010001001F0200001E0253
:10073000000001002E000900070005000000010074
:1007400027020A000B001000010001003002060021
:1007500017001A00010001003000150011001900F7
:100760000100010025020F0016001D00010001001C
:10077000010031002D440251010000002902350220
:100780002B0201004C0200001E003302040234025E
:100790000100E0021F003602120214020100E3020F
:1007A0002000370208020D0201002A022100130274
:1007B00018020E020100010022001C020C021B02A2
:1007C00000000100010038020000350000000100B7
:1007D00001002302000022020000010023000902A0
:1007E000070205020000010024000A020B021002A9
:1007F000010001002500060217021A0201002C0266
:1008000026001502110219020100280227000F021A
:1008100016021D020100E202010020022D02010069
:1008200001000000290001000100E100E0000000DB
:100830003A001E0220022202085DC85C3B001F0233
:1008400021022302010001003C002F0226022F009A
:10085000E20001003D003002270230000100C75CC9
:100860003E003102350035020000005C4500C55CE9
:100870000000C65C0000C35C6800CB5C0000CC5C80
:100880000000C25C3F0038002502560000002A5DCF
:100890004000240021001E003700C95C42002500F2
:1008A00022001F0027000100430026002300200033
:1008B00001000100440057002E0238002E00CA5CDF
:1008C000010001000100E10028000000010001001A
:1008D00001000100010000003A00010001000100D8
:1008E000010001003B00F400F20001000100FF00E4
:1008F0003C00F000F100F6000100FD003D00F500B5
:10090000F3000100FE0001003E00FD00FE00FF00BC
:100910000000010044006900000001000000010027
:1009200045006A0000000100000001003F000100D6
:10093000010001000000010040000100FB00010077
:10094000010001004100FA00F9000100010001006E
:1009500042000100FC000100010001004300010011
:10096000010001000100010001000100010001007F
:100970000100000001000100010001000100000071
:10098000010001000100010001004C000100010014
:10099000E00001000100010001000100E20001008F
:1009A0000100010001000100E3000100010001005D
:1009B000010001000100010000001B080100060801
:1009C0000000190800000100010001000000010002
:1009D0000000010001000100010001000000010011
:1009E000010001005000010001000100010052005F
:1009F0005100010001000100010001004F00010051
:100A000001000100010001000100010001000100DE
:100A100001000100010001000100000001000100CF
:100A20002B00E100010000000100010001000100B5
:100A3000E2000100010001000100010001000100CD
:100A4000010001000100010001002C000100010073
:100A5000010001000100010001000100010001008E
:100A60000000010001000100000001000000010081
:100A70000100010000000100000001000100010070
:100A8000010001000000010001000100010001005F
:100A900001000100010001000100010001002A0025
:100AA000010001000100010001000100010001003E
:100AB000010001000100010001000100010001002E
:100AC0000100000001000100010001000100000020
:100AD0001E00140004001D00010001001F0007009B
:100AE00016001B0001000100200015000B00100083
:100AF0000100010021001A0017000600010001009A
:100B0000220005000A001900000001000100010098
:100B100000000100000001000100010000000100D0
:100B20000000010023000D001C000E000000010069
:100B30002400090011000F00010001002500180029
:100B400008003600010001002600130012003700E3
:100B500001000100270033000C00380001000100F3
:100B6000010001000100010001000000010001007E
:100B7000010001000100000011500100010001000E
:100B8000010001000100010001000100010001005D
:100B90001350010001000100010001001450010088
:100BA00001000100010001001550010001000100D9
:100BB0000000010001000100000001000000010030
:100BC00001000100000001000000010016500100BA
:100BD00001000100000001001750010001000100A8
:100BE00001000100010001000100010001000100FD
:100BF000010001000100010001000100105001008E
:100C000001000100010001000100010001000100DC
:100C1000010000000A00000000000306B200080006
:100C200001000000A800080002000200A00014005B
:100C3000030057494E5553420000000000000000D9
:100C400000008400040007002A00440065007600CC
:100C500069006300650049006E0074006500720061
:100C600066006100630065004700550049004400CC
:100C70007300000050007B00390044004200370040
:100C800046003100460044002D0037004500370083
:100C900041002D0034003000300038002D003900B4
:100CA0003300360042002D0036004200410036007D
:100CB0004300310039004100330030003800630048
:100CC0007D00000000001B0301636F6E666967759D
:100CD00072652E6572676F646F782D657A2E636F0B
:100CE0006D0005010902A10185020901A1000509A4
:100CF0001901290515002501950575018102950148
:100D0000750381010501093009311581257F95029F
:100D10007508810609381581257F950175088106BA
:100D2000050C0A38021581257F950175088106C0DA
:100D3000C005010980A101850319012AB700150129
:100D400026B700950175108100C0050C0901A101AD
:100D5000850419012AA002150126A002950175102B
:100D60008100C005010906A1018505050719E029D3
:100D7000E71500250195087501810205071900296D
:100D8000EF1500250195F07501810205081901296B
:100D900005950575019102950175039101C0050145
:100DA0000906A101050719E029E7150025019508A5
:100DB000750181029501750881010507190029FF58
:100DC000150026FF00950675088100050819012900
:100DD00005950575019102950175039101C0090200
:100DE0005200030100A0FA09040000010301010000
:100DF0000921110100012240000705810308000AB2
:100E00000904010001030000000921110100012271
:100E1000BC000705820320000A0904020002FF004B
:100E20000000070583034000050705040340000593
:100E300012011002000000089732764901000102F9
:100E40000301040330000000200345007200670026
:100E50006F0044006F007800200045005A00200019
:100E600047006C006F007700000030035A00530009
:100E70004100200054006500630068006E006F00B0
:100E80006C006F006700790020004C006100620078
:100E90007300200049006E00630000000403090491
:100EA000050F3900021C100500DF60DDD88945C739
:100EB0004C9CD2659D9E648A9F00000306B200454B
:100EC000001810050038B60834A909A0478BFDA00A
:100ED000768815B665000142000011241FBECFEFD1
:100EE000DAE0DEBFCDBF26E0AAECB3E001C01D9280
:100EF000A837B207E1F713E0A0E0B1E0EAEEF1E7CE
:100F000002C005900D92AA3CB107D9F70E94F02FBC
:100F10000C9494380C940000E8EDF0E080818E7F12
:100F200080831092E2001092DA001092E100A0EEAD
:100F3000B0E08C9181608C9380818F77808319BC25
:100F4000A7EDB0E08C918E7F8C9380818F7E808323
:100F500010923B0608952091E4003091E50095E65B
:100F6000A9012091EC00822F817020FF06C08091A2
:100F7000E80080FF06C080E008952091E80022FD8F
:100F80001AC080916106882389F0853089F08091AC
:100F9000EB0085FD0FC02091E4003091E500421781
:100FA0005307F9F29150E1F684E0089582E0089544
:100FB00083E0089581E00895EF92FF920F931F93CD
:100FC000CF937C018B010E94AB07C82F882371F05F
:100FD0008C2FCF911F910F91FF90EF900895F70103
:100FE00081917F018093F1000150110901151105D4
:100FF00079F38091E80085FDF2CF8091E8008E774B
:101000008093E8000E94AB07882381F3C82FE0CFCC
:101010008091630687FF13C08091E80082FF06C0BD
:101020008091E8008B778093E80004C0809161068E
:101030008111F2CF0895809161068823D9F38091C0
:10104000E80080FFF8CF8091E8008E77ECCF982FF2
:101050009093E900242F762F50E0891731F070919A
:10106000EC002091ED005091F00021FD07C09F5F42
:10107000973071F78093E90081E008953091EB009B
:101080003E7F3093EB003091ED003D7F3093ED00DB
:101090003091EB0031603093EB007093EC002093C3
:1010A000ED005093F0002091EE0027FDE0CF80E0AE
:1010B0000895CF92DF92EF92FF920F931F93CF93F9
:1010C000DF93C8EDD0E088818F7E8883E7EDF0E084
:1010D00080818160808384E082BF81E080933B06D1
:1010E00088818E7F888302EE10E0F80110821092D2
:1010F000DA0081EEC82ED12CF601108288818F771C
:10110000888388818068888388818F7D888319BCE3
:1011100010926106109262061092600610925F06AD
:1011200090EEE92EF12CF70180818B7F80838881FE
:101130008160888342E060E080E00E942708F60139
:1011400080818E7F8083F8018081816080838081AF
:1011500088608083F70180818E7F808388818061B1
:101160008883DF91CF911F910F91FF90EF90DF90D7
:10117000CF900895FC018091690690916A068617C8
:101180009707A0F06115710529F48091E8008E772A
:101190008093E80090E06115710551F4911108C049
:1011A0008091E80082FF35C080E00895BC01F2CF55
:1011B000809161068823C9F18530C9F18091E800EA
:1011C00083FD31C08091E80082FDEACF8091E80084
:1011D00080FFE1CF8091F3002091F200382F61155C
:1011E000710519F02830310558F091E028303105AB
:1011F00009F090E08091E8008E778093E800CBCFF3
:1012000084918093F1003196615071092F5F3F4FB7
:10121000E6CF80916106882341F0853041F08091CE
:10122000E80083FFBDCF81E0089582E0089583E068
:101230000895FC018091690690916A0686179707C8
:10124000A0F06115710529F49091E8009E779093C4
:10125000E80090E06115710551F4911108C080918A
:10126000E80082FF34C080E00895BC01F2CF809195
:1012700061068823C1F18530C1F18091E80083FDCA
:1012800030C08091E80082FDEACF8091E80080FFC5
:10129000E1CF8091F3002091F200382F61157105A4
:1012A00019F02830310558F091E02830310509F067
:1012B00090E02091E8002E772093E800CBCF819139
:1012C0008093F100615071092F5F3F4FE7CF80910C
:1012D0006106882341F0853041F08091E80083FF6A
:1012E000BECF81E0089582E0089583E00895809163
:1012F0003E06089520916106243099F423E020935E
:10130000E90070E050E040E00E94DC07882321F013
:101310001092390610923A068091E8008E778093F9
:10132000E800089590912006803F59F480912106AD
:1013300087FF0DC01092210691110BC010921B0661
:1013400008C0813F81F48091210618169CF39923EF
:1013500081F08091220690912306892B09F064C0C8
:10136000109218060895823F49F497FFF0CF10922B
:101370002006809121068111ECCFE0CF833F19F444
:101380001916ACF3E4CF20912206893F29F41216F6
:10139000F4F610922206DBCF8A3F19F427FFD7CF4D
:1013A000F8CF209123068B3F29F427FFD0CF10924E
:1013B0002306CDCF8C3F19F41216CCF3C8CF843F4F
:1013C00031F480911F068E7F80931F06C0CF853F2A
:1013D00021F480911F068D7FF7CF863F21F4809105
:1013E0001F068B7FF1CF873F21F480911F06877FF7
:1013F000EBCF883F21F480911F068F7EE5CF8D3F94
:1014000031F48091EC058E7F8093EC05A0CF8E3F68
:1014100021F48091EC058D7FF7CF8F3F09F097CFB6
:101420008091EC058B7FF0CF08958091EC0580FDD5
:101430001AC081FD14C082FD14C080911806882353
:1014400091F08C3370F427E0829FC00111246CE38B
:1014500070E00E949C34862F672B29F0089583E06A
:10146000089587E0089581E008958091EC0580FD5E
:1014700016C081FD16C082FD18C080911B0688230E
:1014800091F08C3390F423E2829FC00111246CE32D
:1014900070E00E949C34862F672B49F0089588E005
:1014A000089581E1089585E0089583E2089581E03B
:1014B0000895803F31F40E94350A8195809321067A
:1014C0000895813F19F40E94350AF8CF823F31F424
:1014D0000E94350A8195809320060895833F19F470
:1014E0000E94350AF8CF893F29F40E94150A80939B
:1014F000220608958A3F21F40E94150A8195F7CFAC
:101500008B3F31F40E94150A81958093230608953C
:101510008C3F19F40E94150AF8CF843F31F4809172
:101520001F06816080931F060895853F21F48091F6
:101530001F068260F7CF863F21F480911F068460EA
:10154000F1CF873F21F480911F068860EBCF883F61
:1015500021F480911F068061E5CF8D3F31F48091A9
:10156000EC0581608093EC0508958E3F21F4809115
:10157000EC058260F7CF8F3FB9F78091EC0584606E
:10158000F1CF9C014FB7F8948091E8059091E9055F
:10159000A091EA05B091EB054FBF821B930B089514
:1015A000209131012223C9F02091050627FF15C0A3
:1015B000E62FE695E695E695EE31D8F4E80FF92F9B
:1015C000F11D677021E030E001C0220F6A95EAF753
:1015D00020958281282322830895FC013296089663
:1015E0002191621303C0DF0111971C92E817F907DC
:1015F000B9F70895209131012223C1F02091050609
:1016000027FF14C0E62FE695E695E695EE31F8F44F
:10161000E80FF92FF11D677021E030E001C0220FC3
:101620006A95EAF78281822B82830895FC013296C3
:101630002FEF30E04191641751F02F3F19F4411121
:1016400001C0232F3F5F3630A9F72F3F09F40895DB
:10165000820F911D27FD9A95FC0162830895CF9218
:10166000DF92EF92FF926C01EE24FF2420E0C11480
:10167000D104E104F10419F0C701B60120E1C72E3D
:10168000D82EE92EFF24C114D104E104F10419F08D
:10169000285FC701B6016B017C0154E0F694E79422
:1016A000D794C7945A95D1F7C114D104E104F10439
:1016B00019F02C5FC701B6016B017C0142E0F69482
:1016C000E794D794C7944A95D1F7C114D104E104A3
:1016D000F10419F02E5FC701B601969587957795AD
:1016E0006795672B682B692B09F02F5F822FFF907E
:1016F000EF90DF90CF9008958091E30581111092D3
:10170000E305089580959091E20598239093E20572
:1017100008958091E2059091E105892B9091E00573
:10172000892B8093CA039091E3059923A1F0892B1B
:101730008093CA0380913101882341F1809105068D
:1017400087FF24C08EE1ECECF3E090E0815000F5DF
:1017500091110E947C0BE0910706F09108063097EA
:10176000E1F080913101882359F08091050687FFCF
:1017700007C08091CA038093CB0385E08093CA039E
:101780000280F381E02D8AEC93E0099486E0DBCFC0
:1017900021912223D9F29F5FD9CF0895E92FEE0F2F
:1017A000E90FEE0F8E0F982F977086958695869588
:1017B00025E0829FF0011124E855FA4F50E040E007
:1017C00080E0219130E0092E02C0369527950A94D9
:1017D000E2F721703327042E01C0220F0A94EAF7A2
:1017E000822B4F5F5F4F4530510559F70895E92F20
:1017F000EE0FE90FEE0F8E0F982F977041E001C0AA
:10180000440F9A95EAF786958695869595E0899F87
:10181000F0011124E855FA4F30E020E070E05191DA
:10182000DF011197CB01022E02C0969587950A948D
:10183000E2F7817081958527842385278C932F5F1C
:101840003F4F2530310559F708958091A7059091B4
:101850007605981301C008958F5F8770FACF8823AB
:1018600041F080959091E10589238093E1050C94E6
:10187000890B0895882339F09091E105982B909376
:10188000E1050C94890B0895882321F00E94820BB6
:101890000C94890B0895882339F09091E205982BD8
:1018A0009093E2050C94890B08952091580530918E
:1018B00059052817390771F09093590580935805F9
:1018C000E0910706F0910806309721F00084F18539
:1018D000E02D099408952091560530915705281759
:1018E000390771F09093570580935605E0910706EC
:1018F000F0910806309721F00680F781E02D0994D9
:101900000895E0910706F0910806309721F00190C4
:10191000F081E02D099480E00895CF93DF93EC01EE
:1019200081E0898B8091E2059F81892B8093E2057C
:101930008091E1059885892B8093E1050E94890BB0
:10194000EA81FB81309739F06C897D89CE0106965A
:10195000DF91CF910994DF91CF910895EF92FF929B
:101960000F931F93CF93DF93EC018A85811139C0C8
:10197000EB80FC8087E5F81A26E12E9DC0012F9DA3
:10198000900D1124DC01A25FBE4F1496ED91FC91E5
:101990001597309731F054966D917C918C5E9E4FE7
:1019A000099586E18E9D80018F9D100D1124025FA7
:1019B0001E4FF80187810E94820BF8018085982FC5
:1019C00090958091E10589238093E1050E94890B20
:1019D000188219861B861E821D821092690510923C
:1019E0006805DF91CF911F910F91FF90EF900895BF
:1019F000FA01811101C0FB0109948033910538F58A
:101A0000880F991F880F991FFC01E35BFE4F5281DD
:101A1000338180818370E181A82FB0E070E9879FD6
:101A2000C0011124825F9B4FE80FF92FF11DB4977D
:101A30006083FC01E50FF11DB4974083830F911D76
:101A4000FC01B4972083A45FBB4F81E08C93089581
:101A5000FF920F931F93CF93DF93182F062FF42E2F
:101A6000D0E0C0E02F2D402F612FCE010E94FD0C51
:101A70002196C033D105B1F7DF91CF911F910F911E
:101A8000FF90089580916F06837011F410923501D4
:101A900080916F068C7F816080936F0608950C940F
:101AA000280D0C94FD0C0F931F9310E0F801EE0F1E
:101AB000FF1FE65CFC4F9081905797FD9195000FBA
:101AC000111FF801E55CFC4F00810052110B20034F
:101AD000F001219FF00D112408E310E0091B11090A
:101AE00097FD139540039001419F300D1124E20FA3
:101AF000F31F9F01220F331F2E0F3F1F37FF02C01E
:101B000021583F4F220F232F221F330B620F1F91AB
:101B10000F9108950F931F93522F10E0F801EE0FCD
:101B2000FF1FE55CFC4FA081A052BB0B9D0152033F
:101B3000F001539FF00D1124000F111FD801A65C76
:101B4000BC4F0C910057110B40039001419F300D89
:101B500011242E0F3F1F37FF02C0215C3F4F96E03C
:101B6000359527959A95E1F7620F1F910F9108958A
:101B70000F931F93522F10E0F801EE0FFF1FE55C4B
:101B8000FC4FA081A052BB0B9D015203F001539F5B
:101B9000F00D1124000F111FD801A65CBC4F0C9151
:101BA0000057110B40039001419F300D11242E0F5F
:101BB0003F1F37FF02C021583F4F220F232F221F04
:101BC000330B620F1F910F910895EF920F93972F90
:101BD00023E0029FB0011124759567956E0D792F52
:101BE0000F91EF900895322F50E0FA01EE0FFF1F92
:101BF000E55CFC4F9081905297FD9195440F551FE5
:101C0000FA01E65CFC4F2081231B330B290F311DA9
:101C100097FD3A95620F0895E42FF0E0EE0FFF1F55
:101C2000E55CFC4F6081621B0895E42FF0E0EE0F4D
:101C3000FF1FE65CFC4F6081621B0895622F0895D0
:101C4000E42FF0E0EE0FFF1FE65CFC4F408134EE26
:101C5000439F412D1124E82FF0E050E0445E5F4F98
:101C6000DA01A21BB1099D01B7FF03C0319521958F
:101C7000310993E0220F331F9A95E1F7AF01421B20
:101C8000530B9A0157FD20E0582F259F212D112439
:101C9000822F0895E42FF0E0EE0FFF1FE65CFC4F6B
:101CA000408134EE439F412D1124E72FF0E050E0B6
:101CB000445E5F4FDA01A21BB1099D01B7FF03C06B
:101CC00031952195310993E0220F331F9A95E1F761
:101CD000AF01421B530B9A0157FD20E0279F212D96
:101CE0001124722F0895FC019B01009729F480E0D4
:101CF00077FF2BC080E80895AC0197FF04C044270C
:101D00005527481B590BB901640F751F37FD10C0CB
:101D1000241B350BC901A5E0880F991FAA95E1F78F
:101D20000E949C3480E2861BF7FF0FC081950895C6
:101D3000CB0165E0880F991F6A95E1F7BA01621B34
:101D4000730B0E949C3480E6EECF0895EF920F93C0
:101D5000CF93DF93D72FC82FC9010E19BA010E9464
:101D6000730E602F681B7D2F8C2FDF91CF910F9109
:101D7000EF9008950F93CF93DF93D72FC82FC9010A
:101D8000BA010E94730E682F600F7D2F8C2FDF9198
:101D9000CF910F910895EF920F931F93CF93DF93FD
:101DA000D62FC72F182FC9010E19010FBA010E9493
:101DB000730E081B202F219F212D1124822F6D2FA0
:101DC0007C2FDF91CF911F910F91EF900895EF92AB
:101DD0000F931F93CF93DF93D62F172FC82FC901CF
:101DE0000E19070FBA010E94730E702F781B719F96
:101DF000712D11246D2F8C2FDF91CF911F910F9199
:101E0000EF9008950F931F93CF93DF93D62FC72F93
:101E1000182FC901212F201B022FBA010E94730E17
:101E2000982F990F990F891B800F282F219F212D03
:101E30001124822F6D2F7C2FDF91CF911F910F9155
:101E400008950F931F93CF93DF93D62F172FC82F8B
:101E5000C901272F201B022FBA010E94730E982F51
:101E6000990F990F782F791B700F719F712D112485
:101E70006D2F8C2FDF91CF911F910F910895E82F37
:101E800086FDE0952E2F2F7086FD2F5FE695E69557
:101E9000E695E670F0E0EB5BFE4F9181929F902D0E
:101EA000212D112492959F702295207F922B2081C5
:101EB000920F87FD919580E8890F0895AC018230DB
:101EC000910508F408959FEF413E8EE1580740F4D4
:101ED0009A0195E0369527959A95E1F798E0920F4B
:101EE00061E0E62FE90FFF27FF1F9F01359527953A
:101EF000822F229FF001239FF00DF00D11244E1729
:101F00005F0738F49FEF920F961758F78FEF860F01
:101F100008952F3FE9F361E0620FF6CF0F93CF935F
:101F2000DF93D72FC82F47FD419588E390E0841BAE
:101F3000910947FD9395889FB001899F700D700DA1
:101F40001124229FC001239F900D900D1124860F14
:101F5000971F0E945E0F982F990F890F682F600FAF
:101F60007D2F8C2FDF91CF910F91089530E020E0ED
:101F7000869F212D969F200D311D1124C9010895A2
:101F8000AF92BF92CF92DF92FF920F931F93CF93A6
:101F9000DF93362F472FE82FF0E0E45DFA4F711101
:101FA0000FC0E4918E2F2E2F6E2F722FDF91CF91C5
:101FB0001F910F91FF90DF90CF90BF90AF90089549
:101FC000C72FD0E02491F22E022F10E056E0659F3B
:101FD000C0011124EFEFF0E0BF010E948834832F8D
:101FE00090E0880F991F35E5369FD001379FB00DDF
:101FF00011248A1B9B0B982F990F980F6F01CC1AF5
:10200000DD0AC09ED001C19EB00DD09EB00D11243E
:102010008B2F499FA0011124452F55276F01C41A0A
:10202000D50AC09EA001C19E500DD09E500D112416
:102030005F01A91AB108AC9E6001AD9ED00CBC9E98
:10204000D00C1124CD2CDD24EC19FD09E09FE0011A
:10205000E19FD00DF09FD00D1124ED2F623071055E
:10206000A1F050F46115710509F49ECF613071053E
:1020700081F0EB2F852F98CF6430710569F080F0E7
:102080006630710509F490CFF4CFE22F2B2F8D2FFE
:102090008BCFE22F252F88CFEB2F822F2D2F84CFB0
:1020A0002B2F8F2DE52F80CF9F92AF92BF92CF9293
:1020B000DF92EF92FF920F931F93CF93DF936C0108
:1020C00080913201C82FCC0FCC0FC80F15E01C0F28
:1020D000B12E113310F030E3B32E60917306669584
:1020E000669580916B0690916C060E94B60FF82E53
:1020F00080E48F0D0E943F0F90E8A92EA80E8F2D2F
:102100000E943F0F20E8922E980ED0E0CB1580F071
:1021100081E0103308F080E0DF91CF911F910F91A3
:10212000FF90EF90DF90CF90BF90AF909F90089579
:10213000FE01E656FC4F8081909133018923A1F086
:10214000609170067091710680917206EF2C0C2FD1
:10215000292D4A2DF60109950E94C00F462F282FE0
:10216000672FCE010E94510D2196D0CF7F928F9282
:102170009F92AF92BF92CF92DF92EF92FF920F9316
:102180001F93CF93DF935C0180913201C82FCC0F56
:10219000CC0FC80F15E01C0FF12E113310F030E3F7
:1021A000F32E60917306669580916B0690916C0694
:1021B0000E94B60F782ED0E0CF1590F081E010335A
:1021C00008F080E0DF91CF911F910F91FF90EF9089
:1021D000DF90CF90BF90AF909F908F907F900895A9
:1021E000FE01E656FC4F8081909133018923C9F1AD
:1021F000CE01880F991F8A519D4FFC01EC5AFF4F69
:102200002081422F4057550B6A018B5A9F4FFC018A
:102210008081282F2052330B4901449F9001459F14
:10222000300D300D1124889CC001899C900D900DBB
:102230001124820F931F0E945E0F082F6091700679
:102240007091710680917206E72C9401A601F50148
:1022500009950E94C00F462F282F672FCE010E949C
:10226000510D2196A9CFCF92DF92EF92FF920F935B
:102270001F93CF93DF937C0180913201C82FCC0F45
:10228000CC0FC80F15E01C0FD12E113310F030E326
:10229000D32E60917306669580916B0690916C06C3
:1022A0000E94B60FC82ED0E0CD1568F081E0103343
:1022B00008F080E0DF91CF911F910F91FF90EF9098
:1022C000DF90CF900895FE01E656FC4F80819091FB
:1022D0003301892311F1CE01880F991F8A519D4F37
:1022E000FC01EB5AFF4F20812052330B8C5A9F4F39
:1022F000FC0140814057550B60917006709171064A
:10230000809172060C2DF70109950E94C00F462F8F
:10231000282F672FCE010E94510D2196C5CFDF9245
:10232000EF92FF920F931F93CF93DF937C018091E5
:102330003201C82FCC0FCC0FC80F15E01C0F012F96
:10234000113308F000E360917306669566958091FD
:102350006B0690916C060E94B60FD82ED0E0C01785
:1023600060F081E0103308F080E0DF91CF911F91A1
:102370000F91FF90EF90DF900895FE01E656FC4F1D
:10238000808190913301892391F060917006709162
:102390007106809172062D2D4C2FF70109950E9430
:1023A000C00F462F282F672FCE010E94510D219676
:1023B000D6CF9091050692FF06C0282F28712830AD
:1023C000F9F4877F846093FF06C0282F2871283195
:1023D000F1F4877E84612091060620FF06C0382F25
:1023E00038713830D9F4877F816021FF06C0282FEB
:1023F00028712831D1F4877E816194FD877E08950C
:10240000282F24712430F9F68B7F8860DCCF282FA9
:102410002471243101F78B7E8861DDCF382F317133
:10242000313019F78E7F8860E0CF282F217121315C
:1024300021F78E7E8861E1CFCF93DF93972F70E0F5
:1024400026E0929F600D711D1124FB0134E5839FEE
:10245000E00DF11D1124EE0FFF1FE45DF94FC59152
:10246000D491CE01C238D105B9F1E8F5C133D10517
:1024700009F499C050F5C932D10509F48DC0CA32AA
:10248000D10509F497C0C11542E5D40708F0C4C0CE
:10249000C11521E5D20708F038C1C83ED10508F0C2
:1024A0009DC0C03ED10568F5C83AD10508F089C085
:1024B000C53AD10508F005C1C130D10511F1209709
:1024C00009F443C02497E8F440C0C533D10509F4AA
:1024D0005CC0C933D105B9F620910506237089F097
:1024E00080EE90E00EC0C33ED10591F168F4C03E8D
:1024F000D105F9F0C23ED10531F62091050622FD45
:1025000020C0DF91CF910895C63ED10561F1C73E4D
:10251000D10581F1C43ED10509F0B5CF2091060661
:1025200021FFEFCF8091050684FD0FC087EE90E07C
:10253000E8CF2091050620FD19C13091060630FF35
:10254000E0CF83EE90E024FFDCCF90E080E0D9CFB5
:102550002091050622FD0DC13091060630FDC0CF49
:1025600024FFCFCFF2CF2091050623FFCACF24FD51
:10257000ECCFDCCF2091050623FDFEC0309106068E
:1025800031FFEECF84EE90E0BCCF2091050625FF11
:10259000B8CF89E290E0B5CF2091050625FFB1CFF5
:1025A00085E390E0AECF2091050626FFAACF8AE210
:1025B00090E0A7CF2091050626FFA3CF81E390E00E
:1025C000A0CFCF3BD10508F6C85AD0E0CC0FDD1F15
:1025D000C854DD4F88819981946493CFC11530E24E
:1025E000D30760F4C11541E0D40708F08ACFCE01CB
:1025F0009065C03FD10508F084CFA7CFC11580E416
:10260000D80708F4A2CFC11590E5D90708F061C03A
:10261000CE019F70906A75CFC11526E5D20718F5D7
:10262000C11535E5D30708F086C0C11544E5D407C8
:1026300008F07CC09C2F96959695AE014370552767
:10264000C115D34508F466C021E030E002C0220F76
:10265000331F4A95E2F740E2949FC0011124822B78
:10266000932B9A684ECFC1159AE5D90778F4C11516
:1026700029E5D20708F069C0C11538E5D30708F489
:1026800064CF9C2F8827806F906A3BCFC1154BE5A4
:10269000D40708F45ACFC1158CE5D80708F462C0F6
:1026A000CE0190568115904208F04FCF8D2F8F713B
:1026B0000E94D91190E0982F882788279F718C2B32
:1026C00042C0C55AD0E0CB54DD4F888190E0906481
:1026D00018CF9E01E4E036952795EA95E1F723703F
:1026E0008C2F86958695837030E2839FC0011124DC
:1026F000922BC37021E030E002C0220F331FCA9535
:10270000E2F7822B932B9C68FCCE9C2F8827816F4D
:10271000906AF7CE21E030E002C0220F331F4A95C5
:10272000E2F740E2949FC0011124EBCF9C2F882751
:10273000846F906AE6CE8C2F0E94D91190E0982F7A
:10274000882788279F719062DCCE8C2F8F700E9423
:10275000D91134E0D695C7953A95E1F7CF709C2F03
:102760009069CFCECE0199279066CBCE89E390E0D9
:10277000C8CE82EE90E0C5CE86EE90E0C2CEBF928B
:10278000CF92DF92EF92FF920F931F93CF93DF933D
:102790008C01C0903406D0903506E0903606F0905B
:1027A00037068091E4059091E505A091E605B0918A
:1027B000E705C82AD92AEA2AFB2ACFE1D0E0BC2EB5
:1027C000D701C6010C2E04C0B695A795979587959D
:1027D0000A94D2F780FD0EC0219788F7B12C8B2D7B
:1027E000DF91CF911F910F91FF90EF90DF90CF90ED
:1027F000BF900895B8018C2F0E941C12019761F3BD
:10280000EECFCF93DF93EC010E94BF13BE01DF91A7
:10281000CF910C941C120E940114292F2F709295B5
:102820009F7092509E3078F4E92FF0E0EA56F74C12
:102830000C94B034803F19F020F4883E20F481E0FD
:102840000895843FE1F380E00895883EC0F3813F1E
:10285000D1F7F5CF822F86958695869508959C01B0
:10286000832F817031FD826032FD846033FD88608A
:10287000FB0109949F92AF92BF92CF92DF92EF92A9
:10288000FF920F931F93CF93DF9320E9289FE001DE
:10289000299FD00D1124C455DF4F10E000E0FE0148
:1028A00064913196749131968491962F972B982B41
:1028B000C1F420E040E060E0C8010E94510D0F5FCC
:1028C0001F4F23960033110551F7DF91CF911F91D0
:1028D0000F91FF90EF90DF90CF90BF90AF909F90BF
:1028E00008950E94C00F962EB72EA82E60917206F2
:1028F00070E090E080E00E94993720E030E04FE700
:1029000053E40E94F8366B017C016A2D70E090E080
:1029100080E00E949B37A70196010E9427380E9401
:102920006A37A62E692D70E090E080E00E949B3708
:10293000A70196010E9427380E946A37962E6B2DB8
:1029400070E090E080E00E949B37A70196010E9412
:1029500027380E946A372A2D492DAECF27982F9805
:10296000089526982E98089525982D98089556989C
:102970005E980895279A2F9A0895269A2E9A089578
:10298000259A2D9A0895CF92DF92EF92FF92CF93DE
:102990006B017C010E942F0BC82F0E94B7140E946C
:1029A000B4140E94B1140E94AE14C150C73040F458
:1029B000EC2FF0E0EC55F74C0C94B0340E94C014AE
:1029C000C701B601CF91FF90EF90DF90CF900895AF
:1029D0000E94C0140E94BD14F3CF0E94C0140E9434
:1029E000BA14EECF0E94C0140E94BD14F8CF2098F4
:1029F00028982198299822982A9823982B985298B9
:102A00005A9853985B983E98469808958098889A6B
:102A10008198899A84988C9A85988D9A86988E9AAE
:102A200087988F9A0895CF9384E090E00E944D3666
:102A3000C82F81E290E00E944D36982F8C2FCF91C5
:102A40000895CF93DF9300D00F92CDB7DEB790916A
:102A50006106943019F589837B836A8382E08093D1
:102A6000E9008FEF9091E800815095FD06C095ED4B
:102A70009A95F1F700008111F5CF8091E80085FF6C
:102A80000DC050E040E063E070E0CE0101960E948E
:102A9000DC078091E8008E778093E8000F900F901C
:102AA0000F90DF91CF910895BC0184E00C94211523
:102AB000BC0183E00C9421159C0182E08093E90025
:102AC0009FEF8091E800915085FD06C085ED8A95C5
:102AD000F1F700009111F5CF8091E80085FF0CC05F
:102AE00050E040E066E070E0C9010E94DC078091A0
:102AF000E8008E778093E8000895CF93DF93EC0190
:102B0000809131018823B1F18091050687FF32C0A1
:102B100060E282E08093E9008FEF9091E8008150BD
:102B200095FD06C095ED9A95F1F700008111F5CF5E
:102B30008091E80085FF1BC08091310170E050E07A
:102B400040E0811104C050E040E068E070E0CE0158
:102B50000E94DC078091E8008E778093E80080E295
:102B6000FE01AFE3B6E001900D928A95E1F7DF91A7
:102B7000CF91089568E081E0CDCFEF92FF920F935F
:102B80001F93CF93DF930E94B7140E94B4140E9446
:102B9000B1140E94AE1488E8E82EF12C8FEF90E07B
:102BA000F701918380830AE810E0F8019183808324
:102BB000CCE8D0E0998388830E94C014FFEF20E71F
:102BC00082E0F15020408040E1F700C000000E9408
:102BD000BD149FEFE0E7F2E09150E040F040E1F7F4
:102BE00000C000000E94BA142FEF80E792E021504D
:102BF00080409040E1F700C000000E94B414EFEF65
:102C0000F0E722E0E150F0402040E1F700C0000092
:102C10000E94B1148FEF90E7E2E081509040E040D5
:102C2000E1F700C000000E94AE148091F3058770A8
:102C3000FFEF8F9FC00111249595879595958795F6
:102C40009927F70191838083F80191838083998389
:102C500088830E94B7140E94B4140E94B114DF91BB
:102C6000CF911F910F91FF90EF900C94AE146FEEE7
:102C70007EEF90E080E00E948F3660E082E090E09E
:102C80000E94713660E083E090E00E9471361092FD
:102C9000E4051092E5051092E6051092E70560E064
:102CA00084E090E00E94713660E081E290E00E9452
:102CB000713660E085E090E00E94713660E086E069
:102CC00090E00E9471366FEF87E090E00E947136CD
:102CD00040E050E0BA0188E090E00E94833660E076
:102CE0008DE090E00E94713640E050E0BA0188E14A
:102CF00090E00E94833660E087E190E00E947136A8
:102D000040E050E0BA018CE190E00E94833660E040
:102D100080E290E00E9471361092F3051092F40563
:102D20001092F5051092F60584E080618093F3051A
:102D30004091F3055091F4056091F5057091F60509
:102D40008FE090E00E94833640E050E0BA0183E1DA
:102D500090E00C9483360F931F93CF93DF93082F4B
:102D6000000FEB0114E21093F803E9EFF3E0DE014A
:102D70008D91819384E0E930F807D1F724E630E0C3
:102D800041E150E068EF73E0802F0E945D34105FF6
:102D90006096143B41F7DF91CF911F910F910895F9
:102DA00080910C04882329F06EE074E084E70E948F
:102DB000AB1610920C0480910D04882329F06EE963
:102DC00074E087E70E94AB1610920D040895E8EFB7
:102DD000F3E06083418324E630E042E050E0BF014D
:102DE000880F0C945D340F931F93CF93DF93082FBC
:102DF000E62FF0E0EE5AFA4F8081882379F082E1E5
:102E0000689FE0011124C25DDA4F10E04991612F03
:102E1000802F0E94E7161F5F1231C1F7DF91CF911B
:102E20001F910F910895CF93DF93C82F4BE06DEF63
:102E30000E94E71640E06AE08C2F0E94E7168FE3BD
:102E40009CE90197F1F700C0000040E060E08C2FA2
:102E50000E94E71640E061E08C2F0E94E71640E0F8
:102E600066E08C2F0E94E71640E06DEF8C2F0E94E9
:102E7000E716D0E040E06D2F8C2F0E94E716DF5F51
:102E8000D231C1F740E06D2F8C2F0E94E716DF5F33
:102E9000D432C1F740E06D2F8C2F0E94E716DF5F20
:102EA000D43BC1F74BE06DEF8C2F0E94E71641E059
:102EB0006AE08C2F0E94E71640E06DEF8C2FDF91C7
:102EC000CF910C94E7166F927F928F929F92AF9260
:102ED000BF92CF92DF92EF92FF920F931F93CF9307
:102EE000DF930E94A83384E70E94131787E70E94AC
:102EF00013176DE4E62E61E0F62ED12CC12C72E1A1
:102F0000772EE8E08E2E912CAA24A394B12C66246F
:102F10006394F701418150E0CA0184970281045211
:102F2000110BC381C452DD0BF601EE0FFF1FEE0F34
:102F3000FF1FE35BFE4F2081237030E0FC0197FD13
:102F4000379643E0F595E7954A95E1F7729EA00123
:102F5000739E500D1124425D5A4FE40FF52FF11D61
:102F6000B4010E949C34A50101C0440F8A95EAF780
:102F70008081842B8083F80117FD379693E0F595C7
:102F8000E7959A95E1F7729EC001739E900D11240A
:102F9000825D9A4FE80FF92FF11DC801B4010E941C
:102FA0009C34A50101C0440F8A95EAF78081842BE7
:102FB0008083FE01D7FD379683E0F595E7958A95E6
:102FC000E1F7729EC001739E900D1124825D9A4FAD
:102FD000E80FF92FF11DCE01B4010E949C34A50128
:102FE00001C0440F8A95EAF78081842B80832E5A92
:102FF0003A4FF9016082FFEFCF1ADF0A84E0E80E52
:10300000F11CE0E3CE16D10409F083CF60E084E741
:103010000E94F31661E087E7DF91CF911F910F9136
:10302000FF90EF90DF90CF90BF90AF909F908F90E8
:103030007F906F900C94F3161F93CF93DF93EC0166
:10304000FC01E656FC4F80816823A1F00E94023506
:10305000182F0E940235612F782F809172060E94EE
:10306000C00F462F282F672FCE01DF91CF911F91E0
:103070000C94510DDF91CF911F910895DF92EF9243
:10308000FF920F931F93CF93DF938C01FC01E656C1
:10309000FC4F8081682381F1D0907106D091720637
:1030A000C0917006EC2EF12C0E940235282FC7012A
:1030B0008C549F4F68E671E00E949C348E199F09E2
:1030C00097FD0396959587959595879523706C2F19
:1030D000289F600D11247D2D8D2F0E94C00F462F3B
:1030E000282F672FC801DF91CF911F910F91FF907B
:1030F000EF90DF900C94510DDF91CF911F910F91C4
:10310000FF90EF90DF90089545E050E06CE170E0B3
:103110008FE696E00C94613690916F06937089F07B
:10312000811107C0946090936F06109235010C9442
:103130008418893110F09066F6CF880F880F982B8D
:10314000F2CF089580916F0686958695815009F497
:1031500088E10C948C1880916F06869586958F5F18
:10316000893108F081E00C948C1890916F0693706F
:1031700041F08093700660937106409372060C9440
:1031800084180895EFE6F6E0438120E1421B08F43D
:1031900040E08181628190E00C94B518EFE6F6E0A2
:1031A000438120E1420F08F44FEF8181628190E07A
:1031B0000C94B518EFE6F6E0628120E1621B08F49A
:1031C00060E08181438190E00C94B518EFE6F6E071
:1031D000628120E1620F08F46FEF8181438190E00A
:1031E0000C94B518EFE6F6E0818143816281885046
:1031F000990B0C94B518EFE6F6E0818190E04381DD
:10320000628108960C94B518EFE6F6E0248130E16F
:10321000230F08F42FEF24830C948418EFE6F6E0D4
:10322000248130E1231B08F420E024830C948418CB
:10323000EFE6F6E085E380838091360190913701D7
:10324000A091380181839283A3838CE384830C94BF
:1032500084180E94631790E080E00E945B368F3EE6
:103260009E4F21F00E9437160E94181945E050E049
:103270006CE170E08FE696E00E943D3680916F062B
:103280008C7F11F40C941819089580E290E09093CB
:103290002601809325018091EA0381110EC00E94CE
:1032A000A83381E08093EA032FEF83ED90E3215070
:1032B00080409040E1F700C0000064E670E080E4E8
:1032C0000E94AE339093260180932501892B09F04B
:1032D0004EC064E670E080E00E940A3490932601BC
:1032E00080932501892B09F042C064E670E080E0FC
:1032F0000E940A349093260180932501892BB9F509
:1033000064E670E08FE30E940A3490932601809374
:103310002501892B61F50E94843464E670E080E425
:103320000E94AE339093260180932501892BF9F4F6
:1033300064E670E08CE00E940A349093260180934A
:103340002501892BA1F464E670E080E00E940A3434
:103350009093260180932501892B49F464E670E05F
:103360008FE30E940A3490932601809325010E94E6
:103370008434809125010895CF93C82F873070F54C
:103380008091250190912601892B89F564E670E0F2
:1033900080E40E94AE339093260180932501892B0F
:1033A000D1F464E670E082E10E940A349093260131
:1033B00080932501892B79F481E090E001C0880F8A
:1033C000CA95EAF764E670E080950E940A3490930B
:1033D000260180932501CF910C9484348A30B9F072
:1033E00040F4883071F0893079F0209A2898CF9194
:1033F00008958C3091F070F08D30B9F73E9A469870
:10340000F6CF219A2998F3CF229A2A98F0CF239ABF
:103410002B98EDCF529A5A98EACF539A5B98E7CF00
:10342000CF93873050F58091250190912601C0E01F
:10343000892B71F464E670E081E40E94AE339093CE
:10344000260180932501892B31F0C0E00E9484344D
:103450008C2FCF91089584E690E00E94393497FF35
:1034600005C09093260180932501EFCFC82FC0950A
:103470001092260110922501E9CFCFB18FB1869528
:1034800086958C73C3708C2BC82FC095E1CF789430
:103490001F921FB61F9211248F939F93AF93BF93D8
:1034A0008091E8059091E905A091EA05B091EB05BE
:1034B0000196A11DB11D8093E8059093E905A093A5
:1034C000EA05B093EB05BF91AF919F918F911F904B
:1034D0001FBE1F9018952FB7F8948091E805909122
:1034E000E905A091EA05B091EB052FBF08950E9470
:1034F0006B1A9C019091200680912106982B21F057
:1035000030931D0620931C0690912206809123067D
:10351000982B21F030931A0620931906E0910706A4
:10352000F0910806309749F082E080931E060480EF
:10353000F581E02D8EE196E0099408951092E10561
:103540001092E0050E94890B86E0EEE1F6E0DF01D3
:103550001D928A95E9F710921B0610921806109298
:10356000EC050E94771A90E080E00E946B0C90E0DE
:1035700080E00C94550CCF92DF92EF92FF92CF93A4
:10358000DF9300D000D0CDB7DEB70E94C3146B012B
:103590007C0180913806882321F0809139068111C1
:1035A00015C0C0923406D0923506E0923606F092ED
:1035B00037060E949E1A0F900F900F900F90DF9188
:1035C000CF91FF90EF90DF90CF900895198282E025
:1035D0008A83C701B6010E942F0B8B838EEF8C83E9
:1035E00064E0CE0101960E947A09DBCF0F931F930E
:1035F00041E050E060E070E004C0440F551F661FDA
:10360000771F8A95D2F7CB01BA01609570958095A6
:103610009095009134061091350620913606309130
:10362000370660237123822393231F910F910C94FB
:10363000BB1A9091DF05809589238093DF05282FA1
:10364000277071F4282F082E000C330B92171306E5
:1036500039F08595859585950E94F61A1092DF05BB
:1036600008950F931F9341E050E060E070E004C0C4
:10367000440F551F661F771F8A95D2F78091340635
:1036800090913506A0913606B09137068A019B01CC
:10369000082B192B2A2B3B2BC901B8011F910F9125
:1036A0000C94BB1A6093E4057093E5058093E605DE
:1036B0009093E7050C949E1A1092E20580913101D7
:1036C000ECECF3E0882359F08091050687FF07C0F2
:1036D0008EE1DF011D928A95E9F70C949E1A86E02F
:1036E000F8CF1F93CF93DF93CDB7DEB7AA970FB66E
:1036F000F894DEBF0FBECDBF83E696E02091F100C7
:10370000FC012193CF01F6E08B369F07B9F780913A
:103710006406893009F444C018F5823009F4B7C052
:10372000833009F46CC0813031F580916306813AB1
:1037300011F58091E800877F8093E800809167060B
:1037400090916806892B41F560E28FE396E070E086
:103750000E9419098091E8008B778093E8000BC0E4
:103760008B3009F469C008F481C0823409F4A0C028
:10377000853409F4BAC08091E80083FF65C2809166
:103780006306909164069A3008F05EC2E92FF0E07B
:10379000E555F74C0C94B03460E090E080E0D7CF72
:1037A00080916306813239F78091670690916806AF
:1037B000029708F78091E800877F8093E800809166
:1037C000E80082FF17C09091F3008091F200029709
:1037D00029F48091F1008B7F813021F48091F100F8
:1037E00080933E068091E8008B778093E8000E94EA
:1037F0000808C1CF809161068111E1CFBCCF8091D3
:103800006306813A09F0B7CF809167069091680608
:10381000892B09F0B0CF8091E800877F8093E80082
:103820008091E80080FFFCCF809131018093F1000E
:103830008091E8008E77D9CF80916306813209F0BC
:103840009ACF8091670690916806892B09F093CFF3
:103850008091E800877F8093E8000E9408088091AB
:103860006506809331010E945C1B85CF80916306C1
:10387000813209F080CF8091E800877F8093E80053
:103880000E9408088091660680933D0674CF80915F
:103890006306813A09F06FCF8091E800877F8093BB
:1038A000E8008091E80080FFFCCF80913D06BECF0C
:1038B00080916306803C09F05ECF8091670690910D
:1038C0006806029739F58091650690916606892B06
:1038D00009F58091E800877F8093E8006BE170E054
:1038E00086EC9CE00E94BA0882CF80916306803CFF
:1038F00009F041CF8091670690916806079751F4CF
:103900008091E800877F8093E80062EB70E084E1BB
:103910009CE0E8CF8091EB0080628093EB002BCF9E
:10392000803899F0823809F08FC1809167068F70D6
:10393000873008F089C18093E9008091EB0085FB16
:10394000882780F91092E90006C080915F06909167
:103950006006911182609091E800977F9093E80053
:103960008093F1001092F1008091E8008E7768C199
:10397000882309F456C1823009F066C1809165063A
:10398000811159C1809167068F702FEF280F263063
:1039900008F05AC18093E9002091EB0020FF4BC151
:1039A000933031F48091EB0080628093EB0043C14F
:1039B0009091EB0090619093EB0021E030E001C02A
:1039C000220F8A95EAF72093EA001092EA0080918C
:1039D000EB008860EACF811137C1109165061F772F
:1039E0008091E3008078812B8093E3008091E80050
:1039F000877F8093E8000E9408088091E80080FF9C
:103A0000FCCF8091E30080688093E30082E0111195
:103A100083E08093610618C18058823008F014C199
:103A200080916506909166068C3D23E09207A1F592
:103A300083E08A838AE289834FB7F894DE01139684
:103A400020E03EE051E2E32FF0E050935700E49194
:103A500020FF03C0E295EF703F5FEF708E2F90E084
:103A6000EA30C0F0C7968D939D932F5F243159F7AC
:103A70004FBF8091E800877F8093E8006AE270E0A2
:103A8000CE0101960E9419098091E8008B778093FE
:103A9000E800DAC0C096E7CF40916706509168060B
:103AA000292F33272330310569F1A0F42130310566
:103AB00009F46CC062E570E08EED9DE022303105C6
:103AC00009F0C2C02091E800277F2093E8000E94FF
:103AD000BA08DACF2132310509F440C0223231056B
:103AE00009F448C02F30310509F0AEC0E2EAFEE02B
:103AF000E4916E2F70E080EA9EE06115710509F493
:103B0000A3C0E0CF992781309105C1F0009771F0F3
:103B100082309105D9F0039709F096C0E2E4FEE007
:103B2000E4916E2F70E082E49EE0E7CFECE9FEE0E6
:103B3000E4916E2F70E08CE99EE0DFCFEAE6FEE0D4
:103B4000E4916E2F70E08AE69EE0D7CFE8E4FEE0D5
:103B5000E4916E2F70E088E49EE0CFCF41155105CF
:103B6000D1F04130510509F06FC069E070E089E0A3
:103B70009EE0A8CF4115510599F04130510509F05B
:103B800063C06CEB70E082EE9CE09CCF62E170E081
:103B900080E39EE097CF69E070E080EF9DE092CFF8
:103BA00060E470E08EE99DE08DCF803809F04CC074
:103BB0008091E800877F8093E8008091620680937F
:103BC000F100D2CE811140C0109165061230E0F5AF
:103BD0008091E800877F8093E800109362060E943E
:103BE0000808112311F084E005C08091E30087FDEF
:103BF000FACF81E08093610642E061EC81E00E94AF
:103C0000270842E261EC82E00E94270842E361EC6F
:103C100083E00E94270842E360EC84E00E942708CA
:103C200013C080916506813079F481E0933009F00A
:103C300080E0809360061092E9008091E800877F21
:103C40008093E8000E9408088091E80083FF0AC082
:103C50008091E800877F8093E8008091EB0080628C
:103C60008093EB00AA960FB6F894DEBF0FBECDBFCF
:103C7000DF91CF911F9108951F920F920FB60F926F
:103C800011242F933F934F935F936F937F938F9361
:103C90009F93AF93BF93CF93DF93EF93FF93D09115
:103CA000E900DF708091EC00C82FC17080FDC0E892
:103CB0001092E9008091F000877F8093F000789463
:103CC0000E94711B1092E9008091F000886080933F
:103CD000F000CD2BCF70C093E900FF91EF91DF9101
:103CE000CF91BF91AF919F918F917F916F915F9194
:103CF0004F913F912F910F900FBE0F901F901895ED
:103D00001F920F920FB60F9211242F933F934F9350
:103D10005F936F937F938F939F93AF93BF93EF9333
:103D2000FF938091E10082FF09C08091E20082FF51
:103D300005C08091E1008B7F8093E1008091DA00E3
:103D400080FF24C08091D80080FF20C08091DA00DD
:103D50008E7F8093DA008091D90080FFA1C080E13E
:103D600089BD82E189BD09B400FEFDCF81E0809369
:103D7000610680913B06811109C00E948C070E9458
:103D800059088091E20084608093E2008091E10014
:103D900080FF17C08091E20080FF13C08091E20095
:103DA0008E7F8093E2008091E20080618093E20048
:103DB0008091D80080628093D80019BC85E0809300
:103DC00061068091E10084FF2FC08091E20084FFB2
:103DD0002BC080E189BD82E189BD89B5982F9170A2
:103DE00080FFFBCF8091D8008F7D8093D800809199
:103DF000E1008F7E8093E1008091E2008F7E8093CE
:103E0000E2008091E20081608093E200809162068E
:103E1000882309F44BC084E0809361060E945C1BF8
:103E20000E94810C10923C068091E10083FF27C024
:103E30008091E20083FF23C08091E100877F80931F
:103E4000E10082E080936106109262068091E100B9
:103E50008E7F8093E1008091E2008E7F8093E2006C
:103E60008091E20080618093E20042E060E080E0C7
:103E70000E9427088091F00088608093F000FF91F5
:103E8000EF91BF91AF919F918F917F916F915F91D2
:103E90004F913F912F910F900FBE0F901F9018954B
:103EA00019BC1092610610923B0670CF8091E3001E
:103EB00087FD93E090936106B1CF882379F19CEF61
:103EC000980F913A38F4682F8AEC93E00E94D00A58
:103ED0000C94890B90E2980F983050F4877091E021
:103EE00001C0990F8A95EAF7892F0E94820BF0CFC3
:103EF0009BE5980F933020F490E080E00C946B0CDD
:103F000098E5980F973120F490E080E00C94550CE0
:103F1000803F20F00E9492090C94771A0895CF9365
:103F2000DF93EC010E945D1F6FE27CE0CE01DF9128
:103F3000CF910C942F148FE39CE90197F1F700C007
:103F4000000080910B01823079F028F4813039F043
:103F500010920B010895833051F08530C9F78CE23F
:103F600098E00E948F1FF4CF87E194E0FACF88E0B9
:103F700094E0F7CFCF93C82F882309F46EC08CEF5D
:103F80008C0F813AB8F580913101882311F180912D
:103F9000050687FF1EC0EC2FE695E695E695F0E056
:103FA000E653FC4F828190E04C2F477021E030E0D7
:103FB00002C0220F331F4A95E2F782239323892BF5
:103FC00089F06C2F8AEC93E00E94D00A0E94890B42
:103FD00009C0ECECF3E08191C81799F383E0E23D6E
:103FE000F807C9F76C2F8AEC93E00E94FA0ACF9188
:103FF0000C94890B80E28C0F883068F4C77021E044
:1040000030E001C0220FCA95EAF78091E205822BC9
:104010008093E205ECCFEBE5EC0FE33040F4F0E009
:10402000EB54FD4F808190E0CF910C946B0CE8E550
:10403000EC0FE73150F4F0E0EE0FFF1FE854FD4FB6
:1040400080819181CF910C94550CC03F30F08C2F22
:104050000E94590ACF910C94771ACF910895CF936B
:10406000C82F0E94BA1FC93349F42FEF87EE93E09F
:10407000215080409040E1F700C000008C2FCF918C
:104080000C945D1FCF93C82F6AE37CE00E942F142D
:104090008C2FCF910C94BA1FCF93DF93EC010E9429
:1040A0004220CE01DF91CF910C948F1FCF93DF93ED
:1040B000EC018881833061F48CE298E00E944C200E
:1040C0008CE298E00E944C208CE298E00E944C2008
:1040D0008881843030F08CE298E0DF91CF910C94AD
:1040E0004C20DF91CF910895FC018081813091F4C3
:1040F0008185882331F081E080930B018CE298E088
:1041000016C082858823B9F382E080930B0187E192
:1041100094E00DC08230C9F4818581110EC0828582
:10412000811107C083E080930B0188E094E00C9438
:10413000422084E080930B01089585E080930B0179
:104140008CE298E00E944C20D9CF86E0F3CF0F9309
:104150001F93CF93DF93C42FD22FFC01828188233A
:10416000A1F040936B050E946B1A909355058093C4
:104170005405C77081E001C0880FCA95EAF7DF9146
:10418000CF911F910F910C944B0C10916B05141350
:1041900035C080915405909155050E94C10A883C14
:1041A000910560F5C0E2CD0F1D17B9F080E2810FD7
:1041B000883040F4177081E001C0880F1A95EAF743
:1041C0000E94440CC83048F481E09D2F977001C0D4
:1041D000880F9A95EAF70E944B0C802F0E942F209F
:1041E000C83098F4D77081E001C0880FDA95EAF7FB
:1041F000DF91CF911F910F910C94440CC77081E017
:1042000001C0880FCA95EAF7F3CFDF91CF911F91D4
:104210000F9108954F925F926F927F928F929F922B
:10422000AF92BF92CF92DF92EF92FF920F931F93C4
:10423000CF93DF9300D000D00F92CDB7DEB77C01D3
:10424000DC0113968D919C911497892B41F01C9160
:104250001196DC90812F8D218F3F09F06EC70F9052
:104260000F900F900F900F90DF91CF911F910F91B2
:10427000FF90EF90DF90CF90BF90AF909F908F9086
:104280007F906F905F904F9008950E94BF13082F0A
:10429000682F89819A810E94F70BE12FF0E0B6E048
:1042A000DB9EE00DF11D112424E5029FE00DF11DC0
:1042B0001124EE0FFF1FE45DF94F05911491D70112
:1042C00012968C91811143C08091380681117FC074
:1042D000F70182810932FDE51F0709F495C00A3212
:1042E0002DE5120709F47DC1023C3CE5130709F0F6
:1042F0009EC18823E9F0909133018091F3059F3F9F
:1043000009F08EC1109233018F7E8093F30540E057
:1043100060E080E00E944F0D4091F3055091F4055C
:104320006091F5057091F6058FE090E00E9483366C
:104330008091DF05877009F492CFD70112968C9196
:10434000882309F48CCF82E00E94191B88CF8091CA
:1043500024018F3F09F4B8CF7EE0C72E71E0D72E3D
:10436000B12CA12C9924939480912401082E000C47
:10437000990B8A159B050CF4A7CFF601868188233B
:10438000F9F0818592858017910739F4809168054D
:10439000909169058017910799F0D6011F969C921C
:1043A0001F971C961C930E931B9751968C9181110D
:1043B00003C0C6010E948D0CC60106960E94AE0C79
:1043C000BFEFAB1ABB0AE6E1CE0ED11CCDCF809178
:1043D0003906882309F47CCFD70112968C91198273
:1043E000811110C082E18A83D7018C918B83119651
:1043F0008C918C838EEF8D8365E0CE0101960E94B7
:104400007A0966CF81E1EFCF8823C9F18091F30566
:1044100091E0980F9770887F953008F4892B8093EE
:10442000F3058091F3058770AFEF8A9FC0011124D7
:104430009595879595958795992790938900809371
:10444000880090938B0080938A0090938D008093D6
:104450008C004091F3055091F4056091F505709141
:10446000F6058FE090E00E948336609134067091EB
:10447000350680913606909137060E94C314C80114
:1044800097558F3F910511F008F047C02091240106
:10449000022E000C330B2817390714F480932401E3
:1044A000F701228136E1389F5001399FB00C112469
:1044B000C501825F9E4F6C01DC0150962C93509792
:1044C000928116968C911697992309F4BCC01A967E
:1044D0001C930E9319978F5F16968C930E946B1AFC
:1044E000F601968785878091E30587838091E105B2
:1044F0009091E205892B80870190F081E02D309723
:1045000041F0D60154966D917C91C5018C5E9E4F11
:1045100009951093690500936805D70112968C914F
:10452000882309F49EC09801215E3C452530310561
:1045300008F097C06FE1600F6093EF058CE090E0AA
:104540000E947136D70112969C91992309F41EC6D8
:1045500010926B050230BCE51B0708F400C606315B
:10456000ECE51E0738F098012A5F3C4527303105FD
:1045700008F0F5C50E941315909306068093050672
:104580000F30FCE51F0709F4D7C108F058C1083007
:104590003CE5130709F4BAC108F02BC104309CE5CF
:1045A000190709F4A7C108F013C10230BCE51B07C5
:1045B00009F49CC180910506826003301C4509F412
:1045C0002AC1609105061091060684E090E00E94E1
:1045D0007136612F81E290E00E9471360E945C1B6F
:1045E000A7CE882309F44BCF9091F305892F877FBD
:1045F00093FF88608093F30583FF05C040E060E08F
:1046000080E00E944F0D4091F3055091F4056091B8
:10461000F5057091F6058FE090E00E9483362FCF6C
:104620009FEF9093330180618093F30575CE0B3239
:10463000BDE51B0709F023CF882309F479CE81E07B
:104640000E948C1875CE882309F467CFF601818902
:10465000882309F462CFC5018C5E9E4F0E94AE0C88
:104660005CCF17FF6CC0882309F46CCF8091E20502
:1046700080936A051092E2058091EF05813009F47C
:1046800041C08823D9F1823009F441C0843009F453
:1046900045C0EFE3FCE93197F1F700C00000580195
:1046A000E894B7F85CE0C52ED12C95010C2C02C023
:1046B000369527950A94E2F72F7087E290E029F06B
:1046C000822F90E02A3078F54D960E942F20F4E05A
:1046D000CF1AD1082CEFC2162FEFD20631F78091F6
:1046E000EF05813031F1882301F18230F1F084301F
:1046F00021F180916A058093E20524CF82EE0E9429
:10470000BA1FC7CF88E193E00E944C20C2CF82EE4F
:104710000E94BA1F87E50E942F20BBCF86EE0E9421
:104720002F2088E1F8CF0697D0CF82EE0E945D1F40
:10473000E0CF8CE20E942F20DCCF88E2FBCF033F4A
:104740003CE5130769F1B0F4083D9CE5190711F148
:10475000093DACE51A07B1F1073DBCE51B0709F0BF
:10476000F1CE06E221EE41EE67ED7CE5C7010E9445
:10477000A720DECD053FECE51E07F1F0B8F0063FBF
:104780002CE5120709F0DECE07E225EE46EE66EFD5
:104790007CE5ECCF07E225EE45EE68ED7CE5E6CF63
:1047A00006E221EE40EE63EF7CE5E0CF07E225EE86
:1047B00044EE64EF7CE5DACF06E221EE42EE65EFEF
:1047C0007CE5D4CF08E221E045EE69ED7CE5CECF73
:1047D0008091050680610630FCE51F07E1F08091BD
:1047E0000506886007301C45B0F0809105068062A0
:1047F00012C00B303CE5130709F496C078F4093079
:104800009CE5190709F486C0809105068C600A3082
:104810001C4509F0D6CE80930506D3CE80910506BF
:104820008B7F0D30BCE51B07B1F3809105068D7FB2
:104830000E301C4580F380910506877FECCF0A3F40
:10484000FCE51F0709F45AC048F502313CE513079F
:1048500009F47AC060F400319CE5190709F470C0CE
:10486000809105068F7B01311C45A9F2AACE043147
:10487000BCE51B0709F476C008F46CC005311C4583
:1048800009F09FCE8091050682FB992790F921E0DF
:10489000922790FB82F990FB83F9BDCF0D3F2CE569
:1048A000120709F445C070F40B3F8CE5180751F16D
:1048B000809106068E7F0C3F1C4509F082CE8093C6
:1048C00006067FCE0F3FACE51A0709F447C040F15A
:1048D00001151D4509F075CE80910606982F90951B
:1048E00091708E7F892B90FB81F9E9CF809105062D
:1048F000816091CF8091050684608DCF80910606FE
:104900008160DDCF809106068260D9CF8091050657
:10491000806481CF0E945C1B8091050680687BCFFC
:10492000809106068360CBCF809105068E7F73CF82
:10493000809106068D7FC3CF809105068F7E6BCF59
:10494000809105068F7D67CF0E945C1B80910506D4
:104950008F7761CF80910506837F5DCF80910606BA
:104960008C7FADCF0E945C1B90910506892F97FB31
:1049700087F9805850CF992309F4A8C08091E205A7
:104980008272F801E25CFC45E431F10508F049C0AF
:10499000EB54F74C0C94B03480916F0691E089276A
:1049A00080936F06109235010E948418C1CC42EAB0
:1049B00058E16BEA78E10E94F80CBACC4BEA58E176
:1049C00062EA78E1F8CF42EF58E16BEF78E1F3CF9C
:1049D0004BEF58E162EF78E1EECF4AED58E166EE39
:1049E00078E1E9CF46EE58E16AED78E1E4CF42ECB8
:1049F00058E16EEC78E1DFCF4EEC58E162EC78E103
:104A0000DACF4EE059E164E079E1D5CF44E059E1F5
:104A10006EE079E1D0CF85E013CE8DE011CE82E15A
:104A20000FCE0E3DFCE51F0709F446C008302DE50A
:104A3000120709F444C001151C4509F047C00E9443
:104A40005C1B8FEF94E3ACE081509040A040E1F715
:104A500000C00000F89481E08093E00080E2809341
:104A6000D8001092C900EFE1FEE43197F1F700C0E1
:104A700000001DBA109268001CBC10BE1FBA109234
:104A80007A0010926E0010926F00109271001092D6
:104A900072001092C9001092BC0014B817B81AB86E
:104AA0001DB810BA1092BC0015B818B81BB81EB8C3
:104AB00011BA0C94003F3CCC0E94371639CC80913F
:104AC0003A0691E0892780933A0632CCF7010081BB
:104AD0001181992309F446C0C8010E94BF13D82E42
:104AE000682FC8010E94F70BB8018D2D0E941C127F
:104AF000082FD92EB82ED7011596CC901597C294B1
:104B00004FE0C42212961C9111111092E105809180
:104B1000DF058770C1F01123B1F08D2D807F8034C7
:104B200049F090E2900F983070F0803619F4B6EFAB
:104B3000BB1649F082E00E94191B8091DF05877047
:104B4000AA24A3948111A12C9D2C92943FE093223E
:104B5000EBE0E91508F43EC0E92DF0E0E753F74C2F
:104B60000C94B034C8010E94CE0BD82EBDCFFD2DC1
:104B7000FF70CF2E8D2D807F19F0C29420EFC222BE
:104B80001123C9F0CC2069F080E2800F883010F04A
:104B9000B1100BC08091E205C82AC092E2050E94C4
:104BA000890B802F0E94BA1F15C08091E105C82A89
:104BB000C092E105F4CF802F0E945D1FCC2051F000
:104BC000005E083010F0B11056C08C2D0E94820B90
:104BD0000E94890B292D2850330B2430310510F405
:104BE0000E94810C112379F08D2D807F803619F47D
:104BF00036EFB31641F080916D05823009F095C211
:104C000083E080936D05AA20B1F08091DF0580FDDF
:104C100012C0D70112961C928595859585950E94A4
:104C2000311BC7010E940A218091DF05859585957A
:104C300085950E94F61A85E0F701DE011196019034
:104C40000D928A95E1F789819A810E94CE0B9A8113
:104C5000E981F0E0B6E09B9FE00DF11D112424E511
:104C6000829FE00DF11D1124EE0FFF1FE45DF94F4F
:104C700085919491F4CAC0948091E105C822C092B4
:104C8000E105A6CF2D2D2F70822E8D2D807F8032B5
:104C900019F0829490EF8922BB2041F031E0B316E5
:104CA00031F1112379F1CC2041F17BCF112391F027
:104CB0009091E305882D892BC11003C00E944B0CF5
:104CC00089CFA1E0CA12FACF891709F483CF809364
:104CD000E30580CFC11006C00E947C0B882D0E9486
:104CE000440C78CFB1E0CB1609F474CFF5CF112383
:104CF00031F0E1E0EC1508F46DCF882DDFCFC11065
:104D000069CFECCFCC2051F3F9E3BF1209C02FEFEC
:104D100037EE83E0215030408040E1F700C00000D2
:104D2000802F0E945D1F56CF8D2D869586958370AE
:104D300069F0813009F04ECF802F9D2D93701111B5
:104D400002C090E080E00E94550C44CF802F9D2D42
:104D50009370111102C090E080E00E946B0C3ACF7A
:104D6000802F112329F00E94590A0E94771A32CF0E
:104D70000E949209FACF8D2D837009F067C011113E
:104D800029CF202F229526952770220F220F402F02
:104D90004F7050E070E060E0022E04C0440F551FD9
:104DA000661F771F0A94D2F780E090E0DC0104FFD1
:104DB0000FC08FE090E0A0E0B0E004C0880F991F22
:104DC000AA1FBB1F2A95D2F780959095A095B09504
:104DD0002D2D269526952370223029F1D8F4409068
:104DE000E4055090E5056090E6057090E7052130F8
:104DF00069F0842B952BA62BB72BBC01CD01642128
:104E00007521862197210E94521BE4CE4429552901
:104E1000662977292A013B01482A592A6A2A7B2ACE
:104E2000C301B201F0CF842B952BA62BB72B40905A
:104E3000E4055090E5056090E6057090E705BC013B
:104E4000CD016425752586259725DDCF869511230F
:104E500011F08D2D8170882309F4BCCE202F22956E
:104E600026952770220F220F402F4F7050E070E0E0
:104E700060E0022E04C0440F551F661F771F0A947E
:104E8000D2F780E090E0DC0104FF0FC08FE090E0FB
:104E9000A0E0B0E004C0880F991FAA1FBB1F2A958D
:104EA000D2F780959095A095B0952D2D26952695B5
:104EB0002370223029F1D8F4409034065090350602
:104EC0006090360670903706213069F0842B952B60
:104ED000A62BB72BBC01CD0164217521862197211A
:104EE0000E94BB1A77CE44295529662977292A01C1
:104EF0003B01482A592A6A2A7B2AC301B201F0CF12
:104F0000842B952BA62BB72B40903406509035065A
:104F10006090360670903706BC01CD01642575257A
:104F200086259725DDCF2D2D2F70C22E112329F038
:104F3000822F0E94311B802FC1CE802F0E94440CF3
:104F40008C2D0E94F61A46CE802F32EFB31609F44C
:104F500050C03B1578F090EFB91621F1A1EFBA16C9
:104F600009F43FC0112309F468C0C1101ACE8D2D79
:104F70008F713CC0B3EFBB1609F440C0E4EFBE1222
:104F8000F1CF112309F44EC00D2D0F71802F0E9417
:104F9000311B28E0029FC001112483608093DF054C
:104FA000802F24C01123C1F0C11014CE2D2D2F71DC
:104FB00061E070E080E090E004C0660F771F881F1A
:104FC000991F2A95D2F7409034065090350660908C
:104FD000360670903706A2CFF1E0FC1508F4FACD42
:104FE000E5CF8D2D8F71112309F4ABCF0E94311BBA
:104FF000F1CD8D2D8F711123C9F3A3CF60E070E047
:10500000CB01112309F46CCF2D2D2F7161E070E0DD
:1050100080E090E004C0660F771F881F991F2A95D3
:10502000D2F75ECF81E00E94191B31E03C1508F0F9
:10503000D1CD82E00E94191BCDCDCC2059F089330F
:1050400009F06ECE8FEF97EEA3E081509040A04024
:10505000E1F764CE8D2D8F7174CFE0E1E00FE73082
:1050600008F03EC0F0E0EB52F74C0C94B034112342
:1050700009F4B0CD80916F0591E0892780936F0589
:10508000A9CD10936F05A6CD81E08127F7CF11112F
:10509000A1CD81E0F3CF11119DCD10926F059ACD76
:1050A000112321F082E080936D05F3CF80916D058F
:1050B000823021F481E080936D058CCD833009F03E
:1050C00089CD10926D05E9CF112339F080916E05DD
:1050D000882381F210926E057DCDCC2059F27ACDD5
:1050E00080916E05CC20A9F0882341F080916F0556
:1050F00091E0892780936F0510926E05802F111122
:1051000051CD0E945D1F86E0F70111928A95E9F763
:1051100061CD882309F45ECD11115CCD80916F05BE
:1051200091E0892780936F05D5CF813009F06BCD51
:1051300010926D0510926F0566CD85E0F701DE01D6
:10514000119601900D928A95E1F7F70122818981EC
:105150009A8121119AC80E94CE0B082F9EC8063151
:10516000FCE51F0709F007CC8091E2058A7A91E0FF
:1051700009F490E090936C0569E2811165E38AEC93
:1051800093E00E94FA0A0E94890BD2C806311C459E
:1051900009F09CCC80916C0569E2811165E38AEC91
:1051A00093E00E94D00AEFCF1F93CF93DF938091BB
:1051B0007505807FA9F480917205882389F080911C
:1051C000A705D09176056091700570917105A09149
:1051D0007305B0917405C62FC72316E0D81304C019
:1051E000DF91CF911F91089590E0109711F0CF3F7C
:1051F00019F401968770F2CF189F9001199F300D16
:105200001124F901E958FA4F41814713F2CF408147
:105210004613EFCF42814111ECCF438154814A1BA9
:105220005B0B483C510528F7809175058F708061B4
:1052300080937505F901E458FA4F80818F70806181
:10524000808380E795E00E940A21DF91CF911F9132
:105250000C94250CAF92BF92CF92DF92EF92FF9207
:105260000F931F93CF93DF93CDB7DEB761970FB640
:10527000F894DEBF0FBECDBF8C0185E0F801DE01E2
:105280001D9601900D928A95E1F7F8018081918138
:10529000E28020E7A22E25E0B22E60917305709186
:1052A00074056115710509F43EC130917005409196
:1052B0007105232F24232F3F09F435C1C380D480E7
:1052C000F0907205F601E61BF70BFF2009F4FBC016
:1052D00020917505522F507FE83CF10508F0BBC0C6
:1052E000511178C0FE2C491321C038131FC0E110A2
:1052F0001DC02F70206120937505C5010E940A21F1
:1053000080917505F80185838F2D61960FB6F8940D
:10531000DEBF0FBECDBFDF91CF911F910F91FF90E8
:10532000EF90DF90CF90BF90AF900895CD2829F0F7
:10533000282F29232F3F09F022C120E0F22FF170FE
:10534000DF2E20FF3DC02091A7054091760556E055
:10535000241315C08D879E878D859E850E9401141C
:10536000292F22952F702230F8F0243020F59F70DD
:10537000F9F0F8019581907FD9F4D12C1FC030E06D
:10538000529FF001539FF00D1124E958FA4F6181AB
:10539000961306C06081861303C06281E61210C0B6
:1053A0002F5F3F4F2770D4CF9F7011F0882329F3D0
:1053B000805E883010F3C8010E940A21FD2CA4CF22
:1053C000EE2009F4A1CF8091750581608093750569
:1053D000F12C9ACF491312C0381310C0E1100EC03F
:1053E000F8012583C8010E940A2186E0F801A0E7A0
:1053F000B5E001900D928A95E1F786CF8D879E8763
:105400008D859E850E940B14882309F1EE20F9F00A
:1054100080917505803270F0209170053091710592
:1054200038872F831986DB86CA868C87CE0107963C
:105430000E940A2186E0F801A0E7B5E001900D92F4
:105440008A95E1F70E94D428FF24F3945DCFC80128
:105450000E940A21F9CF51110AC080E795E00E940D
:105460000A2186E0F50111928A95E9F7B1CF491337
:105470000FC038130DC0E1100BC0F8012583C8011F
:105480000E940A2186E0F50111928A95E9F73CCF46
:105490008D879E878D859E850E940B148823B9F287
:1054A000EE20A9F280917505803220F220917005DE
:1054B000309171053A8329831B82DD82CC828E83F1
:1054C000CE010196B5CFE83CF105E0F6FE2CEE20CA
:1054D00009F4BDCF491316C0381314C08091750567
:1054E00080FD83CF982F907F09F47FCFF8018583CB
:1054F000903F09F477CF982F907F905F8F70892B22
:10550000858370CF8D879E878D859E850E940B1425
:10551000811190CF80917505816080937505C801D8
:105520000E940A21F1CEEE2009F491CF8D879E874B
:105530008D859E850E940B14F82E882309F487CF51
:1055400086E0F801A0E7B5E001900D928A95E1F7B9
:1055500080917005909171050E94011492959F7041
:10556000963051F4863F41F080916F0591E0892794
:1055700080936F0590936E050E94D428C5CE21E0DC
:105580002E25DCCE1F93CF93DF93CDB7DEB7679781
:105590000FB6F894DEBF0FBECDBF6D8B7E8B8F8BA9
:1055A0008E899F89892BE1F0852F84238F3F09F015
:1055B00098C05FEF4FEF14C030916F05332309F4AB
:1055C0004EC0E42FF0E036E0539FE00DF11D1124B2
:1055D000EE0FFF1FE35FFD4F40815181822B8C93C3
:1055E0001A8A198A4B8B5C8B85E0FE017396DE016B
:1055F0001D9601900D928A95E1F786E0FE013D9699
:10560000DE01179601900D928A95E1F7CE0107967B
:105610000E942A29811112C086E0FE013796DE0120
:10562000119601900D928A95E1F78A859B85892BC9
:1056300029F08F81988589238F3FC9F516E08091E5
:10564000A70590917605891320C067960FB6F89448
:10565000DEBF0FBECDBFDF91CF911F910895809522
:105660008223BDCF96E0929FD001939FB00D11246D
:10567000A958BA4FFE01319601900D929A95E1F723
:10568000809376050E94250CD9CF819FC0011124FB
:1056900089589A4F0E942A298823B9F28091A70538
:1056A00090E00196877099278093A705C8CF209135
:1056B000760530E0C9010196877099274091A705CA
:1056C0004817190679F60E945C1B10927605109215
:1056D000A70586E0E0E7F5E0DF011D928A95E9F78E
:1056E000ADCF81E090E0042E01C0880F0A94EAF764
:1056F000A52FB0E0A65ABA4F2C913D8931115CCF4D
:10570000322F38235BCF7F928F929F92AF92BF92BE
:10571000CF92DF92EF92FF920F931F93CF93DF937D
:105720008091250190912601892BA1F08091EB03B6
:105730008F5F8093EB0381110DC00E94451990E0AB
:105740009093260180932501892B21F40E94BD1599
:105750000E942919F7EF8F2EF5E09F2E640100E0DB
:1057600010E0E7E0EE2EE10E812F0E94BC198E2D95
:105770000E94BC19812F0E94101AE60199916E01B6
:10578000F12C891729F0FE0131978083FF24F394CF
:105790008E2D0E94101AF6019681891709F47CC09B
:1057A000868381E08F29082B0E94F7141F5F173032
:1057B000C1F60E946B1A6091ED037091EE03909315
:1057C000EE038093ED032091EC0330E0261B370BB2
:1057D000820F931F6BEF70E00E948834E82E392F00
:1057E000182F8093EC03F090F003FF2009F497C387
:1057F0001092F003E091ED05F091EE05AF01425FEC
:105800005F4F20E07BEFB72E6BEF70E0A191AB3FD5
:10581000A1F0CA2ED12C8E2D932F1A1708F43EC05A
:105820008C199D09092E000CAA0BBB0B4E97A105E4
:10583000B105D0F1DF011197BC924E175F0731F728
:105840002093F003011102C021116BC31092EF03EA
:10585000A091ED05B091EE059091F003EAE0F6E03D
:1058600048E156E080E03191E40129914E01321780
:1058700051F03C913B3FD1F41C93BF016150710941
:10588000EB01288391E011964E175F0761F7909323
:10589000F0038093EF0349C380E084CFDB01AC19B0
:1058A000BD098A0F9B1FBECF2F2DC7CF81E0EBCF45
:1058B000F29EF001F39EF00D1124E25FFE4FC288CC
:1058C000D388C114D10419F468ECC62ED12CF29EF1
:1058D000E001F39ED00D1124C25FDE4F8E8188233C
:1058E000B9F08D859E850E94C10AC816D90680F43C
:1058F0001F9D600111248989811105C0C601825F45
:105900009E4F0E948D0CC6018C5E9E4F0E94AE0C75
:105910001F5F212F30E080912401082E000C990B8D
:10592000821793072CF609C31092320140936B063D
:1059300050936C0660936D0670936E0681E08093C1
:105940003501F1102FC38091F30583FD2BC36091C6
:1059500034067091350680913606909137060E9484
:105960002F0B823009F48BC208F077C2882309F428
:105970007EC2813009F480C280913301811112C34B
:1059800040E060E00E944F0D0DC380910D01C1E029
:1059900018130BC020916F06237080910C0190E0CA
:1059A000C1E02817190609F4C0E0C170C0933401A2
:1059B000193140F4E12FF0E0E452F74C0C94B0348C
:1059C000C11102C0C0E027C040E060E080E00E945A
:1059D0004F0DF8CF80913201C82FCC0FCC0FC80FDC
:1059E00045E0E42EEC0EDE2CD0E3DE1510F430E3BF
:1059F000D32E6091700670917106809172060E949C
:105A0000C00FC62EB72EA82ED0E0CD15C0F0C1E035
:105A1000FFE2FE15B8F2809132018F5F8093320170
:105A2000C111B9C282E080933501809134018111A6
:105A3000B2C21111B0C283E080933501ACC2FE0145
:105A4000E656FC4F808190913301892331F02A2D55
:105A50004C2D6B2DCE010E94510D2196D6CF8091F9
:105A60003201C82FCC0FCC0FC80F25E0E22EEC0E70
:105A7000DE2C20E32E1510F490E3D92EB0907106A1
:105A8000C0907206D09170066D2F7B2D8C2D0E94D8
:105A9000C00FA62E972E882E609173066D0F7B2D5A
:105AA0008C2D0E94C00FC62EB72E782ED0E0CD15BB
:105AB00030F0C1E08FE28E1508F0ADCF83CFFE014C
:105AC000E656FC4F908180913301892359F0272DB0
:105AD0004C2D6B2D90FD03C0282D4A2D692DCE0134
