:100000000C946D070C948A070C948A070C948A0749
:100010000C948A070C948A070C948A070C948A071C
:100020000C948A070C948A070C94071E0C94C31D29
:100030000C949F310C948A070C948A070C948A07BD
:100040000C948A070C948A070C948A070C948A07EC
:100050000C948A070C94CE190C948A070C948A0786
:100060000C948A070C948A070C948A070C948A07CC
:100070000C948A070C948A070C948A070C948A07BC
:100080000C948A070C948A070C948A070C948A07AC
:100090000C948A070C948A070C948A070C948A079C
:1000A0000C948A070C948A070C948A0759CCC95976
:1000B000CCC959CCC959CCC959CCC959CCC959CCCE
:1000C000C959CCC959CCC959CCC959CCC959CCC9C1
:1000D00059CCC959CCC959CCC959CCC959CCC95921
:1000E000CCC959CCC959CCC959CCC959CCC959CC9E
:1000F000C959CCC959CCC959CCC959CCC959CCC991
:1001000059CCC959CCC959CCC959CCC959CCC959F0
:10011000CCC959CCC959CCC959CCC959CCC959CC6D
:10012000C959CCC959CCC959CCC959CCC959CCC960
:1001300059CCC959CCC959CCC959CCC900FFFF0009
:10014000FFFF00FFFF00FFFF00FFFF00FFFF00FFBA
:10015000FF00FFFF00FFFF00FFFF00FFFF00FFFFAA
:1001600000FFFF00FFFF00FFFF00FFFF00FFFF0099
:10017000FFFF00FFFF00FFFF00FFFF00FFFF00FF8A
:10018000FF00FFFF00FFFF00FFFF00FFFF00FFFF7A
:1001900000FFFF00FFFF00FFFF00FFFF00FFFF0069
:1001A000FFFF00FFFF00FFFF00FFFF00FFFF00FF5A
:1001B000FF00FFFF00FFFF00FFFF00FFFF00FFFF4A
:1001C00000FFFF00FFFF00FFFF00FFFF0052FF00E6
:1001D00052FF0052FF0052FF0052FF0052FF005238
:1001E000FF0052FF0052FF0052FF0052FF0052FF7B
:1001F0000052FF0052FF0052FF0052FF0052FF006A
:1002000052FF0052FF0052FF0052FF0052FF005207
:10021000FF0052FF0052FF0052FF0052FF0052FF4A
:100220000052FF0052FF0052FF0052FF0052FF0039
:1002300052FF0052FF0052FF0052FF0052FF0052D7
:10024000FF0052FF0052FF0052FF0052FF0052FF1A
:100250000052FF0052FF0052FF0052FF000000005A
:10026000000000000000000000000000000000008E
:10027000000000000000000000000000000000007E
:10028000000000000000000000000000000000006E
:10029000000000000000000000000000000000005E
:1002A000000000000000000000000000000000004E
:1002B000000000000000000000000000000000003E
:1002C000000000000000000000000000000000002E
:1002D000000000000000000000000000000000001E
:1002E0000000000000000000000000000EFFFF0EF4
:1002F000FFFF0EFFFF0EFFFF0EFFFF0000000000DC
:10030000008DFFE90000000000000000008DFFE903
:100310008DFFE98DFFE900000000000000000000F3
:1003200000000000000000000000000000000000CD
:10033000000000000EFFFF0EFFFF0EFFFF0EFFFF8D
:100340000EFFFF0000008DFFE98DFFE98DFFE90042
:1003500000000000008DFFE98DFFE98DFFE900003E
:10036000000000000000008DFFE900000000000018
:10037000000000000000000000000000000000007D
:10038000000000000000000000000000000000006D
:10039000000000FF0000000000000000000000FF5F
:1003A0000000FF0000FF000000000000000000004F
:1003B000000000000000000000000000000000003D
:1003C000000000000000000000000000000000002D
:1003D000000000000000000000000000000000001D
:1003E00000000000000000FF0000FF0000FF000010
:1003F00000000000000000000000000000000000FD
:1004000000000000000000000000000000000000EC
:1004100000000000000000000000000000000000DC
:1004200000000000000000000000000000000000CC
:1004300000000000000000000000000000000000BC
:1004400000000000000000000000000000000000AC
:10045000000000000000000000000000000000009C
:10046000000000000000000000000000000000008C
:10047000000000000000000000000000000000007C
:10048000000000000000000000000000000000006C
:1004900000000000000000000000000097A2E697A6
:1004A000A2E697A2E697A2E697A2E697A2E697A20F
:1004B000E697A2E697A2E697A2E697A2E697A2E6BB
:1004C00097A2E697A2E697A2E697A2E697A2E697FA
:1004D000A2E697A2E697A2E697A2E697A2E697A2DF
:1004E000E697A2E697A2E697A2E697A2E697A2E68B
:1004F00097A2E697A2E697A2E697A2E697A2E697CA
:10050000A2E697A2E697A2E697A2E697A2E697A2AE
:10051000E697A2E697A2E697A2E697A2E697A2E65A
:1005200097A2E697A2E697A2E697A2E6000101014C
:1005300001010101010102020202020202020203A0
:100540000303030303030304040404040404050570
:100550000505050606060606070707070708080833
:1005600008090909090A0A0A0B0B0B0C0C0C0D0DE2
:100570000D0E0E0E0F0F0F1010111111121213137A
:100580001414151516161717181819191A1A1B1BF3
:100590001C1D1D1E1E1F202021222223242425264F
:1005A00026272829292A2B2C2D2D2E2F3031323287
:1005B000333435363738393A3B3C3D3E3F40414293
:1005C000434445464748494A4C4D4E4F5051535479
:1005D000555658595A5B5D5E5F616264656668692D
:1005E0006B6C6D6F7072737577787A7B7D7E8082AD
:1005F000838587888A8C8E8F91939596989A9C9EF6
:10060000A0A2A3A5A7A9ABADAFB1B3B5B7BABCBE05
:10061000C0C2C4C6C9CBCDCFD1D4D6D8DBDDDFE2D2
:10062000E4E7E9EBEEF0F3F5F8FAFDFF2900350019
:100630002B45D75CE00000001E00140004001D00E4
:100640004C0050011F001A0016001B005000E30070
:1006500020000800070006004F002A0021001500B6
:1006600009001900E2000353220017000A000500E8
:100670000000AC00AE002F0000002E000000AB0018
:100680001409300000002D000000AA0023001C0007
:100690000B0011000000A900240018000D0010003C
:1006A000E600A80025000C000E00360051002C00CA
:1006B000260012000F003700520028002700130008
:1006C00033003800730E4F01085431003444D85CB5
:1006D000E00000000100010001000042E100000014
:1006E0002E02330004003400010001002F00360008
:1006F00012001400010001002F02370008000D0055
:10070000010001002602130018000E000100010084
:1007100024021C000C001B000000010001001F024D
:100720000000210200000100010031000000010072
:10073000000001002E000900070005000000010074
:1007400027020A000B001000010001003002060021
:1007500017001A00010001003000150011001900F7
:10076000010001001E020F0016001D000100010023
:10077000010038002D44004201000000010001008A
:1007800001000100E10000001E00330204023402F7
:10079000010001001F003602120214020100E302F0
:1007A0002000370208020D0201002A022100130274
:1007B00018020E020100010022001C020C021B02A2
:1007C00000000100010023020000350200000100CA
:1007D00001002002000001000000010023000902C6
:1007E000070205020000010024000A020B021002A9
:1007F000010001002500060217021A020100010093
:1008000026001502110219020100010027000F0243
:1008100016021D0201000100010038022D02010034
:1008200001000000290001000100E100E0000000DB
:100830003A001E02200222020100C65C3B001F0299
:1008400021022302010001003C002F0226022F009A
:10085000E20001003D00300227023000085D010087
:100860003E003102350035020000005C4500010009
:10087000000001000000C35C6800010000000100EE
:100880000000C25C3F0038002502560000002A5DCF
:100890004000240021001E003700C95C42002500F2
:1008A00022001F0027000100430026002300200033
:1008B00001000100440057002E0238002E00CA5CDF
:1008C000010001000100E10028000000010001001A
:1008D00001000100010000003A00010001000100D8
:1008E000010001003B00F400F20001000100FF00E4
:1008F0003C00F000F100F6000100FD003D00F500B5
:10090000F3000100FE0001003E00FD00FE00FF00BC
:100910000000010044006900000001000000010027
:1009200045006A0000000100000001003F000100D6
:10093000010001000000010040000100FB00010077
:10094000010001004100FA00F9000100010001006E
:1009500042000100FC000100010001004300010011
:10096000010001000100010001000100010001007F
:100970000100000001000100010001000100000071
:10098000010001000100010001004C000100010014
:10099000E00001000100010001000100E20001008F
:1009A0000100010001000100E3000100010001005D
:1009B000010001000100010000001B080100060801
:1009C0000000190800000100010001000000010002
:1009D0000000010001000100010001000000010011
:1009E000010001005000010001000100010052005F
:1009F0005100010001000100010001004F00010051
:100A000001000100010001000100010001000100DE
:100A100001000100010001000100000001002B00A5
:100A2000E100E00001000000010017000A000500DD
:100A3000E20001000100140004001D00010001009B
:100A400001001A0016001B0001002C000100080024
:100A5000070006000100010001001500090019004F
:100A60000000010001000100000010500000010022
:100A70000100010000000100000001000100010070
:100A8000010001000000010001000100010001005F
:100A9000010001000100010001000100010001004E
:100AA000010001000100010001000100010001003E
:100AB000010001000100010001000100010001002E
:100AC0000100000001000100010001000100000020
:100AD0001E00140004001D00010001001F0007009B
:100AE00016001B0001000100200015000B00100083
:100AF0000100010021001A0017000600010001009A
:100B0000220005000A001900000001000100010098
:100B100000000100000001000100010000000100D0
:100B20000000010023000D001C000E000000010069
:100B30002400090011000F00010001002500180029
:100B400008003600010001002600130012003700E3
:100B500001000100270033000C00380001000100F3
:100B6000010001000100010001000000010001007E
:100B7000010001000100000011500100010001000E
:100B8000010001000100010001000100010001005D
:100B90001350010001000100010001001450010088
:100BA00001000100010001001550010001000100D9
:100BB0000000010001000100000001000000010030
:100BC00001000100000001000000010016500100BA
:100BD00001000100000001001750010001000100A8
:100BE00001000100010001000100010001000100FD
:100BF000010001000100010001000100105001008E
:100C000001000100010001000100010001000100DC
:100C1000010000000A00000000000306B200080006
:100C200001000000A800080002000200A00014005B
:100C3000030057494E5553420000000000000000D9
:100C400000008400040007002A00440065007600CC
:100C500069006300650049006E0074006500720061
:100C600066006100630065004700550049004400CC
:100C70007300000050007B00390044004200370040
:100C800046003100460044002D0037004500370083
:100C900041002D0034003000300038002D003900B4
:100CA0003300360042002D0036004200410036007D
:100CB0004300310039004100330030003800630048
:100CC0007D00000000001B0301636F6E666967759D
:100CD00072652E6572676F646F782D657A2E636F0B
:100CE0006D0005010902A10185020901A1000509A4
:100CF0001901290515002501950575018102950148
:100D0000750381010501093009311581257F95029F
:100D10007508810609381581257F950175088106BA
:100D2000050C0A38021581257F950175088106C0DA
:100D3000C005010980A101850319012AB700150129
:100D400026B700950175108100C0050C0901A101AD
:100D5000850419012AA002150126A002950175102B
:100D60008100C005010906A1018505050719E029D3
:100D7000E71500250195087501810205071900296D
:100D8000EF1500250195F07501810205081901296B
:100D900005950575019102950175039101C0050145
:100DA0000906A101050719E029E7150025019508A5
:100DB000750181029501750881010507190029FF58
:100DC000150026FF00950675088100050819012900
:100DD00005950575019102950175039101C0090200
:100DE0005200030100A0FA09040000010301010000
:100DF0000921110100012240000705810308000AB2
:100E00000904010001030000000921110100012271
:100E1000BC000705820320000A0904020002FF004B
:100E20000000070583034000050705040340000593
:100E300012011002000000089732764901000102F9
:100E40000301040330000000200345007200670026
:100E50006F0044006F007800200045005A00200019
:100E600047006C006F007700000030035A00530009
:100E70004100200054006500630068006E006F00B0
:100E80006C006F006700790020004C006100620078
:100E90007300200049006E00630000000403090491
:100EA000050F3900021C100500DF60DDD88945C739
:100EB0004C9CD2659D9E648A9F00000306B200454B
:100EC000001810050038B60834A909A0478BFDA00A
:100ED000768815B665000142000011241FBECFEFD1
:100EE000DAE0DEBFCDBF26E0A2EBB3E001C01D9289
:100EF000AE35B207E1F713E0A0E0B1E0E6E2FEE6CE
:100F000002C005900D92A23BB107D9F70E940E2EA8
:100F10000C94B2360C940000E8EDF0E080818E7FF6
:100F200080831092E2001092DA001092E100A0EEAD
:100F3000B0E08C9181608C9380818F77808319BC25
:100F4000A7EDB0E08C918E7F8C9380818F7E808323
:100F50001092210608952091E4003091E50095E675
:100F6000A9012091EC00822F817020FF06C08091A2
:100F7000E80080FF06C080E008952091E80022FD8F
:100F80001AC080914706882389F0853089F08091C6
:100F9000EB0085FD0FC02091E4003091E500421781
:100FA0005307F9F29150E1F684E0089582E0089544
:100FB00083E0089581E00895EF92FF920F931F93CD
:100FC000CF937C018B010E94AB07C82F882371F05F
:100FD0008C2FCF911F910F91FF90EF900895F70103
:100FE00081917F018093F1000150110901151105D4
:100FF00079F38091E80085FDF2CF8091E8008E774B
:101000008093E8000E94AB07882381F3C82FE0CFCC
:101010008091490687FF13C08091E80082FF06C0D7
:101020008091E8008B778093E80004C080914706A8
:101030008111F2CF0895809147068823D9F38091DA
:10104000E80080FFF8CF8091E8008E77ECCF982FF2
:101050009093E900242F762F50E0891731F070919A
:10106000EC002091ED005091F00021FD07C09F5F42
:10107000973071F78093E90081E008953091EB009B
:101080003E7F3093EB003091ED003D7F3093ED00DB
:101090003091EB0031603093EB007093EC002093C3
:1010A000ED005093F0002091EE0027FDE0CF80E0AE
:1010B0000895CF92DF92EF92FF920F931F93CF93F9
:1010C000DF93C8EDD0E088818F7E8883E7EDF0E084
:1010D00080818160808384E082BF81E080932106EB
:1010E00088818E7F888302EE10E0F80110821092D2
:1010F000DA0081EEC82ED12CF601108288818F771C
:10110000888388818068888388818F7D888319BCE3
:101110001092470610924806109246061092450615
:1011200090EEE92EF12CF70180818B7F80838881FE
:101130008160888342E060E080E00E942708F60139
:1011400080818E7F8083F8018081816080838081AF
:1011500088608083F70180818E7F808388818061B1
:101160008883DF91CF911F910F91FF90EF90DF90D7
:10117000CF900895FC0180914F06909150068617FC
:101180009707A0F06115710529F48091E8008E772A
:101190008093E80090E06115710551F4911108C049
:1011A0008091E80082FF35C080E00895BC01F2CF55
:1011B000809147068823C9F18530C9F18091E80004
:1011C00083FD31C08091E80082FDEACF8091E80084
:1011D00080FFE1CF8091F3002091F200382F61155C
:1011E000710519F02830310558F091E028303105AB
:1011F00009F090E08091E8008E778093E800CBCFF3
:1012000084918093F1003196615071092F5F3F4FB7
:10121000E6CF80914706882341F0853041F08091E8
:10122000E80083FFBDCF81E0089582E0089583E068
:101230000895FC0180914F069091500686179707FC
:10124000A0F06115710529F49091E8009E779093C4
:10125000E80090E06115710551F4911108C080918A
:10126000E80082FF34C080E00895BC01F2CF809195
:1012700047068823C1F18530C1F18091E80083FDE4
:1012800030C08091E80082FDEACF8091E80080FFC5
:10129000E1CF8091F3002091F200382F61157105A4
:1012A00019F02830310558F091E02830310509F067
:1012B00090E02091E8002E772093E800CBCF819139
:1012C0008093F100615071092F5F3F4FE7CF80910C
:1012D0004706882341F0853041F08091E80083FF84
:1012E000BECF81E0089582E0089583E00895809163
:1012F0002406089520914706243099F423E0209392
:10130000E90070E050E040E00E94DC07882321F013
:1013100010921F06109220068091E8008E7780932D
:10132000E800089590910606803F59F480910706E1
:1013300087FF0DC01092070691110BC01092010695
:1013400008C0813F81F48091070618169CF3992309
:1013500081F08091080690910906892B09F064C0FC
:101360001092FE050895823F49F497FFF0CF109246
:101370000606809107068111ECCFE0CF833F19F478
:101380001916ACF3E4CF20910806893F29F4121610
:10139000F4F610920806DBCF8A3F19F427FFD7CF67
:1013A000F8CF209109068B3F29F427FFD0CF109268
:1013B0000906CDCF8C3F19F41216CCF3C8CF843F69
:1013C00031F4809105068E7F80930506C0CF853F5E
:1013D00021F4809105068D7FF7CF863F21F480911F
:1013E00005068B7FF1CF873F21F480910506877F2B
:1013F000EBCF883F21F4809105068F7EE5CF8D3FAE
:1014000031F48091D2058E7F8093D205A0CF8E3F9C
:1014100021F48091D2058D7FF7CF8F3F09F097CFD0
:101420008091D2058B7FF0CF08958091D20580FD09
:101430001AC081FD14C082FD14C08091FE0588236E
:1014400091F08C3370F427E0829FC00111246CE38B
:1014500070E00E94BA32862F672B29F0089583E04E
:10146000089587E0089581E008958091D20580FD78
:1014700016C081FD16C082FD18C080910106882328
:1014800091F08C3390F423E2829FC00111246CE32D
:1014900070E00E94BA32862F672B49F0089588E0E9
:1014A000089581E1089585E0089583E2089581E03B
:1014B0000895803F31F40E94350A81958093070694
:1014C0000895813F19F40E94350AF8CF823F31F424
:1014D0000E94350A8195809306060895833F19F48A
:1014E0000E94350AF8CF893F29F40E94150A80939B
:1014F000080608958A3F21F40E94150A8195F7CFC6
:101500008B3F31F40E94150A819580930906089556
:101510008C3F19F40E94150AF8CF843F31F4809172
:1015200005068160809305060895853F21F480912A
:1015300005068260F7CF863F21F48091050684601E
:10154000F1CF873F21F4809105068860EBCF883F7B
:1015500021F4809105068061E5CF8D3F31F48091C3
:10156000D20581608093D20508958E3F21F4809149
:10157000D2058260F7CF8F3FB9F78091D2058460A2
:10158000F1CF9C014FB7F8948091CE059091CF0593
:10159000A091D005B091D1054FBF821B930B089548
:1015A000209118012223C9F02091EB0527FF15C0D7
:1015B000E62FE695E695E695EE31D8F4E80FF92F9B
:1015C000F11D677021E030E001C0220F6A95EAF753
:1015D00020958281282322830895FC013296089663
:1015E0002191621303C0DF0111971C92E817F907DC
:1015F000B9F70895209118012223C1F02091EB053D
:1016000027FF14C0E62FE695E695E695EE31F8F44F
:10161000E80FF92FF11D677021E030E001C0220FC3
:101620006A95EAF78281822B82830895FC013296C3
:101630002FEF30E04191641751F02F3F19F4411121
:1016400001C0232F3F5F3630A9F72F3F09F40895DB
:10165000820F911D27FD9A95FC0162830895CF9218
:10166000DF92EF92FF926C01EE24FF2420E0C11480
:10167000D104E104F10419F0C701B60120E1C72E3D
:10168000D82EE92EFF24C114D104E104F10419F08D
:10169000285FC701B6016B017C0154E0F694E79422
:1016A000D794C7945A95D1F7C114D104E104F10439
:1016B00019F02C5FC701B6016B017C0142E0F69482
:1016C000E794D794C7944A95D1F7C114D104E104A3
:1016D000F10419F02E5FC701B601969587957795AD
:1016E0006795672B682B692B09F02F5F822FFF907E
:1016F000EF90DF90CF9008958091C90581111092ED
:10170000C90508958091C8059091C705892B9091CE
:10171000C605892B8093B2039091C9059923A1F046
:10172000892B8093B20380911801882341F1809125
:10173000EB0587FF24C08EE1E4EBF3E090E08150FD
:1017400000F591110E947C0BE091ED05F091EE0502
:101750003097E1F080911801882359F08091EB05D2
:1017600087FF07C08091B2038093B30385E0809325
:10177000B2030280F381E02D82EB93E0099486E0CE
:10178000DBCF21912223D9F29F5FD9CF0895E92F92
:10179000EE0FE90FEE0F8E0F982F977086958695B6
:1017A000869525E0829FF0011124E257FA4F50E020
:1017B00040E080E0219130E0092E02C03695279567
:1017C0000A94E2F721703327042E01C0220F0A94F5
:1017D000EAF7822B4F5F5F4F4530510559F7089567
:1017E000E92FEE0FE90FEE0F8E0F982F977041E063
:1017F00001C0440F9A95EAF786958695869595E0FF
:10180000899FF0011124E257FA4F30E020E070E0A8
:101810005191DF011197CB01022E02C09695879559
:101820000A94E2F7817081958527842385278C931C
:101830002F5F3F4F2530310559F7089580918D0571
:1018400090915C05981301C008958F5F8770FACF5F
:10185000882341F080959091C70589238093C7051F
:101860000C94820B0895882339F09091C705982B2A
:101870009093C7050C94820B0895882341F08095BE
:101880009091C80589238093C8050C94820B089514
:10189000882339F09091C805982B9093C8050C9433
:1018A000820B089520914005309141052817390792
:1018B00071F09093410580934005E091ED05F09122
:1018C000EE05309721F00084F185E02D099408950C
:1018D00020913E0530913F052817390771F090930C
:1018E0003F0580933E05E091ED05F091EE053097C0
:1018F00021F00680F781E02D09940895E091ED052F
:10190000F091EE05309721F00190F081E02D0994DF
:1019100080E00895FA01811101C0FB010994803330
:10192000910538F5880F991F880F991FFC01EC5C11
:10193000FE4F5281338180818370E181A82FB0E016
:1019400070E9879FC00111248A509C4FE80FF92F3E
:10195000F11DB4976083FC01E50FF11DB49740833E
:10196000830F911DFC01B4972083AC50BC4F81E0E4
:101970008C930895FF920F931F93CF93DF93182FAB
:10198000062FF42ED0E0C0E02F2D402F612FCE0186
:101990000E948F0C2196C033D105B1F7DF91CF9112
:1019A0001F910F91FF90089580915506837011F457
:1019B00010921C01809155068C7F816080935506A2
:1019C00008950C94BA0C0C948F0C0F931F9310E095
:1019D000F801EE0FFF1FEF5DFC4F9081905797FDD0
:1019E0009195000F111FF801EE5DFC4F0081005230
:1019F000110B2003F001219FF00D112408E310E0EA
:101A0000091B110997FD139540039001419F300D6B
:101A10001124E20FF31F9F01220F331F2E0F3F1FD0
:101A200037FF02C021583F4F220F232F221F330BB5
:101A3000620F1F910F9108950F931F93522F10E083
:101A4000F801EE0FFF1FEE5DFC4FA081A052BB0B13
:101A50009D015203F001539FF00D1124000F111F3F
:101A6000D801AF5DBC4F0C910057110B40039001A2
:101A7000419F300D11242E0F3F1F37FF02C0215C04
:101A80003F4F96E0359527959A95E1F7620F1F91A4
:101A90000F9108950F931F93522F10E0F801EE0F4E
:101AA000FF1FEE5DFC4FA081A052BB0B9D015203B6
:101AB000F001539FF00D1124000F111FD801AF5DED
:101AC000BC4F0C910057110B40039001419F300D0A
:101AD00011242E0F3F1F37FF02C021583F4F220F06
:101AE000232F221F330B620F1F910F910895EF9246
:101AF0000F93972F23E0029FB001112475956795EE
:101B00006E0D792F0F91EF900895322F50E0FA016A
:101B1000EE0FFF1FEE5DFC4F9081905297FD919567
:101B2000440F551FFA01EF5DFC4F2081231B330B3F
:101B3000290F311D97FD3A95620F0895E42FF0E0CB
:101B4000EE0FFF1FEE5DFC4F6081621B0895E42FD6
:101B5000F0E0EE0FFF1FEF5DFC4F6081621B089508
:101B6000622F0895E42FF0E0EE0FFF1FEF5DFC4FB2
:101B7000408134EE439F412D1124E82FF0E050E0E6
:101B8000445E5F4FDA01A21BB1099D01B7FF03C09C
:101B900031952195310993E0220F331F9A95E1F792
:101BA000AF01421B530B9A0157FD20E0582F259F90
:101BB000212D1124822F0895E42FF0E0EE0FFF1F56
:101BC000EF5DFC4F408134EE439F412D1124E72F00
:101BD000F0E050E0445E5F4FDA01A21BB1099D01C5
:101BE000B7FF03C031952195310993E0220F331FD0
:101BF0009A95E1F7AF01421B530B9A0157FD20E084
:101C0000279F212D1124722F0895FC019B0100971D
:101C100029F480E077FF2BC080E80895AC0197FF9E
:101C200004C044275527481B590BB901640F751F81
:101C300037FD10C0241B350BC901A5E0880F991F83
:101C4000AA95E1F70E94BA3280E2861BF7FF0FC027
:101C500081950895CB0165E0880F991F6A95E1F79A
:101C6000BA01621B730B0E94BA3280E6EECF089570
:101C7000EF920F93CF93DF93D72FC82FC9010E197F
:101C8000BA010E94050E602F681B7D2F8C2FDF91FB
:101C9000CF910F91EF9008950F93CF93DF93D72FAC
:101CA000C82FC901BA010E94050E682F600F7D2F51
:101CB0008C2FDF91CF910F910895EF920F931F9387
:101CC000CF93DF93D62FC72F182FC9010E19010FFD
:101CD000BA010E94050E081B202F219F212D1124DF
:101CE000822F6D2F7C2FDF91CF911F910F91EF905D
:101CF0000895EF920F931F93CF93DF93D62F172F53
:101D0000C82FC9010E19070FBA010E94050E702FC6
:101D1000781B719F712D11246D2F8C2FDF91CF9126
:101D20001F910F91EF9008950F931F93CF93DF931F
:101D3000D62FC72F182FC901212F201B022FBA0120
:101D40000E94050E982F990F990F891B800F282F3D
:101D5000219F212D1124822F6D2F7C2FDF91CF9178
:101D60001F910F9108950F931F93CF93DF93D62F59
:101D7000172FC82FC901272F201B022FBA010E943D
:101D8000050E982F990F990F782F791B700F719F5F
:101D9000712D11246D2F8C2FDF91CF911F910F91F9
:101DA0000895E82F86FDE0952E2F2F7086FD2F5F7A
:101DB000E695E695E695E670F0E0E45DFE4F9181EC
:101DC000929F902D212D112492959F702295207F16
:101DD000922B2081920F87FD919580E8890F0895BD
:101DE000AC018230910508F408959FEF413E8EE1E9
:101DF000580740F49A0195E0369527959A95E1F7B2
:101E000098E0920F61E0E62FE90FFF27FF1F9F0187
:101E100035952795822F229FF001239FF00DF00D1D
:101E200011244E175F0738F49FEF920F961758F75B
:101E30008FEF860F08952F3FE9F361E0620FF6CF31
:101E40000F93CF93DF93D72FC82F47FD419588E39A
:101E500090E0841B910947FD9395889FB001899F6D
:101E6000700D700D1124229FC001239F900D900DC5
:101E70001124860F971F0E94F00E982F990F890F3B
:101E8000682F600F7D2F8C2FDF91CF910F910895D8
:101E900030E020E0869F212D969F200D311D1124DA
:101EA000C9010895AF92BF92CF92DF92FF920F9334
:101EB0001F93CF93DF93362F472FE82FF0E0E45D99
:101EC000FA4F71110FC0E4918E2F2E2F6E2F722FAB
:101ED000DF91CF911F910F91FF90DF90CF90BF9036
:101EE000AF900895C72FD0E02491F22E022F10E07A
:101EF00056E0659FC0011124EFEFF0E0BF010E94A2
:101F0000A632832F90E0880F991F35E5369FD001C8
:101F1000379FB00D11248A1B9B0B982F990F980F98
:101F20006F01CC1ADD0AC09ED001C19EB00DD09EBB
:101F3000B00D11248B2F499FA0011124452F552747
:101F40006F01C41AD50AC09EA001C19E500DD09E3B
:101F5000500D11245F01A91AB108AC9E6001AD9E1D
:101F6000D00CBC9ED00C1124CD2CDD24EC19FD0925
:101F7000E09FE001E19FD00DF09FD00D1124ED2FE7
:101F800062307105A1F050F46115710509F49ECF1E
:101F90006130710581F0EB2F852F98CF643071058A
:101FA00069F080F06630710509F490CFF4CFE22F2C
:101FB0002B2F8D2F8BCFE22F252F88CFEB2F822F2A
:101FC0002D2F84CF2B2F8F2DE52F80CF9F92AF9277
:101FD000BF92CF92DF92EF92FF920F931F93CF9316
:101FE000DF936C0180911901C82FCC0FCC0FC80F63
:101FF00015E01C0FB12E113310F030E3B32E6091B9
:1020000059066695669580915106909152060E94F8
:10201000480FF82E80E48F0D0E94D10E90E8A92E73
:10202000A80E8F2D0E94D10E20E8922E980ED0E09F
:10203000CB1580F081E0103308F080E0DF91CF9184
:102040001F910F91FF90EF90DF90CF90BF90AF90D6
:102050009F900895FE01EF57FC4F808190911A01E7
:102060008923A1F060915606709157068091580619
:10207000EF2C0C2F292D4A2DF60109950E94520FA5
:10208000462F282F672FCE010E94E30C2196D0CF38
:102090007F928F929F92AF92BF92CF92DF92EF92F8
:1020A000FF920F931F93CF93DF935C0180911901EF
:1020B000C82FCC0FCC0FC80F15E01C0FF12E113319
:1020C00010F030E3F32E6091590666958091510629
:1020D000909152060E94480F782ED0E0CF1590F0D4
:1020E00081E0103308F080E0DF91CF911F910F91D4
:1020F000FF90EF90DF90CF90BF90AF909F908F9028
:102100007F900895FE01EF57FC4F808190911A0156
:102110008923C9F1CE01880F991F83539D4FFC017C
:10212000EC5AFF4F2081422F4057550B6A018B5AC2
:102130009F4FFC018081282F2052330B4901449F7F
:102140009001459F300D300D1124889CC001899C61
:10215000900D900D1124820F931F0E94F00E082FF6
:10216000609156067091570680915806E72C9401AD
:10217000A601F50109950E94520F462F282F672FBF
:10218000CE010E94E30C2196A9CFCF92DF92EF926D
:10219000FF920F931F93CF93DF937C0180911901DE
:1021A000C82FCC0FCC0FC80F15E01C0FD12E113348
:1021B00010F030E3D32E6091590666958091510658
:1021C000909152060E94480FC82ED0E0CD1568F0BD
:1021D00081E0103308F080E0DF91CF911F910F91E3
:1021E000FF90EF90DF90CF900895FE01EF57FC4FE6
:1021F000808190911A01892311F1CE01880F991FD6
:1022000083539D4FFC01EB5AFF4F20812052330B2B
:102210008C5A9F4FFC0140814057550B60915606E8
:1022200070915706809158060C2DF70109950E9470
:10223000520F462F282F672FCE010E94E30C2196C4
:10224000C5CFDF92EF92FF920F931F93CF93DF934F
:102250007C0180911901C82FCC0FCC0FC80F15E05D
:102260001C0F012F113308F000E3609159066695A9
:10227000669580915106909152060E94480FD82E83
:10228000D0E0C01760F081E0103308F080E0DF910B
:10229000CF911F910F91FF90EF90DF900895FE0175
:1022A000EF57FC4F808190911A01892391F0609142
:1022B000560670915706809158062D2D4C2FF70128
:1022C00009950E94520F462F282F672FCE010E949A
:1022D000E30C2196D6CF9091EB0592FF06C0282FF4
:1022E00028712830F9F4877F846093FF06C0282F77
:1022F00028712831F1F4877E84612091EC0520FF5C
:1023000006C0382F38713830D9F4877F816021FFBB
:1023100006C0282F28712831D1F4877E816194FD71
:10232000877E0895282F24712430F9F68B7F8860EA
:10233000DCCF282F2471243101F78B7E8861DDCF1B
:10234000382F3171313019F78E7F8860E0CF282F18
:102350002171213121F78E7E8861E1CFCF93DF9308
:10236000972F70E026E0929F600D711D1124FB01F4
:1023700034E5839FE00DF11D1124EE0FFF1FE45D96
:10238000F94FC591D491CE01C238D105B9F1E8F524
:10239000C133D10509F499C050F5C932D10509F40A
:1023A0008DC0CA32D10509F497C0C11542E5D407E2
:1023B00008F0C4C0C11521E5D20708F038C1C83EF5
:1023C000D10508F09DC0C03ED10568F5C83AD105D9
:1023D00008F089C0C53AD10508F005C1C130D10562
:1023E00011F1209709F443C02497E8F440C0C533A5
:1023F000D10509F45CC0C933D105B9F62091EB05CC
:10240000237089F080EE90E00EC0C33ED10591F1BB
:1024100068F4C03ED105F9F0C23ED10531F62091F5
:10242000EB0522FD20C0DF91CF910895C63ED10576
:1024300061F1C73ED10581F1C43ED10509F0B5CFA8
:102440002091EC0521FFEFCF8091EB0584FD0FC0BB
:1024500087EE90E0E8CF2091EB0520FD19C1309187
:10246000EC0530FFE0CF83EE90E024FFDCCF90E07E
:1024700080E0D9CF2091EB0522FD0DC13091EC0514
:1024800030FDC0CF24FFCFCFF2CF2091EB0523FF4B
:10249000CACF24FDECCFDCCF2091EB0523FDFEC09D
:1024A0003091EC0531FFEECF84EE90E0BCCF20916F
:1024B000EB0525FFB8CF89E290E0B5CF2091EB0581
:1024C00025FFB1CF85E390E0AECF2091EB0526FF4D
:1024D000AACF8AE290E0A7CF2091EB0526FFA3CFF9
:1024E00081E390E0A0CFCF3BD10508F6C85AD0E0F9
:1024F000CC0FDD1FC156DD4F88819981946493CF45
:10250000C11530E2D30760F4C11541E0D40708F0EB
:102510008ACFCE019065C03FD10508F084CFA7CF08
:10252000C11580E4D80708F4A2CFC11590E5D907FA
:1025300008F061C0CE019F70906A75CFC11526E585
:10254000D20718F5C11535E5D30708F086C0C115C7
:1025500044E5D40708F07CC09C2F96959695AE0173
:1025600043705527C115D34508F466C021E030E01B
:1025700002C0220F331F4A95E2F740E2949FC00148
:102580001124822B932B9A684ECFC1159AE5D90757
:1025900078F4C11529E5D20708F069C0C11538E5FE
:1025A000D30708F464CF9C2F8827806F906A3BCFB5
:1025B000C1154BE5D40708F45ACFC1158CE5D807EF
:1025C00008F462C0CE0190568115904208F04FCFBA
:1025D0008D2F8F710E946B1190E0982F882788278C
:1025E0009F718C2B42C0C55AD0E0C456DD4F888104
:1025F00090E0906418CF9E01E4E036952795EA9527
:10260000E1F723708C2F86958695837030E2839F47
:10261000C0011124922BC37021E030E002C0220FD0
:10262000331FCA95E2F7822B932B9C68FCCE9C2F1C
:102630008827816F906AF7CE21E030E002C0220F38
:10264000331F4A95E2F740E2949FC0011124EBCF7B
:102650009C2F8827846F906AE6CE8C2F0E946B1186
:1026600090E0982F882788279F719062DCCE8C2F6E
:102670008F700E946B1134E0D695C7953A95E1F7BB
:10268000CF709C2F9069CFCECE0199279066CBCE8C
:1026900089E390E0C8CE82EE90E0C5CE86EE90E071
:1026A000C2CEBF92CF92DF92EF92FF920F931F9311
:1026B000CF93DF938C01C0901A06D0901B06E09058
:1026C0001C06F0901D068091CA059091CB05A09143
:1026D000CC05B091CD05C82AD92AEA2AFB2ACFE138
:1026E000D0E0BC2ED701C6010C2E04C0B695A7952C
:1026F000979587950A94D2F780FD0EC0219788F7A9
:10270000B12C8B2DDF91CF911F910F91FF90EF9006
:10271000DF90CF90BF900895B8018C2F0E94AE112A
:10272000019761F3EECFCF93DF93EC010E94511339
:10273000BE01DF91CF910C94AE110E949313292F0B
:102740002F7092959F7092509E3078F4E92FF0E0B0
:10275000EC54F94C0C94CE32803F19F020F4883EB2
:1027600020F481E00895843FE1F380E00895883EFD
:10277000C0F3813FD1F7F5CF822F86958695869558
:1027800008959F92AF92BF92CF92DF92EF92FF9205
:102790000F931F93CF93DF9320E9289FE001299F98
:1027A000D00D1124C455DF4F10E000E0FE0164910C
:1027B0003196749131968491962F972B982BC1F472
:1027C00020E040E060E0C8010E94E30C0F5F1F4F73
:1027D00023960033110551F7DF91CF911F910F918F
:1027E000FF90EF90DF90CF90BF90AF909F900895B3
:1027F0000E94520F962EB72EA82E6091580670E0B8
:1028000090E080E00E94B73520E030E04FE753E4ED
:102810000E9416356B017C016A2D70E090E080E02B
:102820000E94B935A70196010E9445360E9488355D
:10283000A62E692D70E090E080E00E94B935A701D6
:1028400096010E9445360E948835962E6B2D70E0C9
:1028500090E080E00E94B935A70196010E944536BC
:102860000E9488352A2D492DAECF27982F9808959C
:1028700026982E98089525982D98089556985E9834
:102880000895279A2F9A0895269A2E9A0895259AA0
:102890002D9A0895CF92DF92EF92FF92CF936B0122
:1028A0007C010E942F0BC82F0E943E140E943B14F3
:1028B0000E9438140E943514C150C73040F4EC2FE8
:1028C000F0E0EE53F94C0C94CE320E944714C7014D
:1028D000B601CF91FF90EF90DF90CF9008950E94C6
:1028E00047140E944414F3CF0E9447140E944114DD
:1028F000EECF0E9447140E944414F8CF20982898E5
:102900002198299822982A9823982B9852985A9877
:1029100053985B983E98469808958098889A819835
:10292000899A84988C9A85988D9A86988E9A879899
:102930008F9A0895CF9384E090E00E946B34C82F63
:1029400081E290E00E946B34982F8C2FCF910895F4
:10295000CF93DF9300D00F92CDB7DEB790914706AB
:10296000943019F589837B836A8382E08093E90040
:102970008FEF9091E800815095FD06C095ED9A95F6
:10298000F1F700008111F5CF8091E80085FF0DC0BF
:1029900050E040E063E070E0CE0101960E94DC0769
:1029A0008091E8008E778093E8000F900F900F9051
:1029B000DF91CF910895BC0184E00C94A814BC0170
:1029C00083E00C94A8149C0182E08093E9009FEFBF
:1029D0008091E800915085FD06C085ED8A95F1F75C
:1029E00000009111F5CF8091E80085FF0CC050E008
:1029F00040E066E070E0C9010E94DC078091E800D9
:102A00008E778093E8000895CF93DF93EC01809157
:102A100018018823B1F18091EB0587FF32C060E295
:102A200082E08093E9008FEF9091E800815095FD5E
:102A300006C095ED9A95F1F700008111F5CF8091D0
:102A4000E80085FF1BC08091180170E050E040E075
:102A5000811104C050E040E068E070E0CE010E94C7
:102A6000DC078091E8008E778093E80080E2FE0129
:102A7000A5E2B6E001900D928A95E1F7DF91CF9142
:102A8000089568E081E0CDCFEF92FF920F931F93FE
:102A9000CF93DF930E943E140E943B140E9438148F
:102AA0000E94351488E8E82EF12C8FEF90E0F701B2
:102AB000918380830AE810E0F80191838083CCE859
:102AC000D0E0998388830E944714FFEF20E782E0DB
:102AD000F15020408040E1F700C000000E94441403
:102AE0009FEFE0E7F2E09150E040F040E1F700C0F6
:102AF00000000E9441142FEF80E792E021508040B7
:102B00009040E1F700C000000E943B14EFEFF0E7B7
:102B100022E0E150F0402040E1F700C000000E94B8
:102B200038148FEF90E7E2E081509040E040E1F709
:102B300000C000000E9435148091D9058770FFEF16
:102B40008F9FC00111249595879595958795992715
:102B5000F70191838083F80191838083998388832F
:102B60000E943E140E943B140E943814DF91CF91C2
:102B70001F910F91FF90EF900C9435146FEE7EEF44
:102B800090E080E00E94AD3460E082E090E00E943E
:102B90008F3460E083E090E00E948F341092CA0589
:102BA0001092CB051092CC051092CD0560E084E028
:102BB00090E00E948F3460E081E290E00E948F34C8
:102BC00060E085E090E00E948F3460E086E090E075
:102BD0000E948F346FEF87E090E00E948F3440E0D6
:102BE00050E0BA0188E090E00E94A13460E08DE0FE
:102BF00090E00E948F3440E050E0BA0188E190E01C
:102C00000E94A13460E087E190E00E948F3440E0B0
:102C100050E0BA018CE190E00E94A13460E080E2D3
:102C200090E00E948F341092D9051092DA0510922C
:102C3000DB051092DC0584E080618093D90540912A
:102C4000D9055091DA056091DB057091DC058FE0C4
:102C500090E00E94A13440E050E0BA0183E190E0AE
:102C60000C94A1340F931F93CF93DF93082F000F81
:102C7000EB0114E21093E003E1EEF3E0DE018D914D
:102C8000819383E0E13FF807D1F724E630E041E1AA
:102C900050E060EE73E0802F0E947B32105F609600
:102CA000143B41F7DF91CF911F910F9108958091CF
:102CB000F403882329F066EF73E084E70E9432165C
:102CC0001092F4038091F503882329F066E874E0FC
:102CD00087E70E9432161092F5030895E0EEF3E0C4
:102CE0006083418324E630E042E050E0BF01880F7A
:102CF0000C947B320F931F93CF93DF93082FE62F13
:102D0000F0E0E65CFA4F8081882379F082E1689FE9
:102D1000E0011124CA5EDA4F10E04991612F802F43
:102D20000E946E161F5F1231C1F7DF91CF911F9184
:102D30000F910895CF93DF93C82F4BE06DEF0E9462
:102D40006E1640E06AE08C2F0E946E168FE39CE9BD
:102D50000197F1F700C0000040E060E08C2F0E9476
:102D60006E1640E061E08C2F0E946E1640E066E037
:102D70008C2F0E946E1640E06DEF8C2F0E946E1615
:102D8000D0E040E06D2F8C2F0E946E16DF5FD231B5
:102D9000C1F740E06D2F8C2F0E946E16DF5FD4329A
:102DA000C1F740E06D2F8C2F0E946E16DF5FD43B81
:102DB000C1F74BE06DEF8C2F0E946E1641E06AE088
:102DC0008C2F0E946E1640E06DEF8C2FDF91CF911B
:102DD0000C946E166F927F928F929F92AF92BF92D9
:102DE000CF92DF92EF92FF920F931F93CF93DF93D7
:102DF0000E94C63184E70E949A1687E70E949A16BD
:102E000064E3E62E61E0F62ED12CC12C72E1772E20
:102E1000E8E08E2E912CAA24A394B12C662463940E
:102E2000F701418150E0CA01849702810452110BDD
:102E3000C381C452DD0BF601EE0FFF1FEE0FFF1F23
:102E4000EC5CFE4F2081237030E0FC0197FD37964B
:102E500043E0F595E7954A95E1F7729EA001739ED0
:102E6000500D11244A5E5A4FE40FF52FF11DB401A5
:102E70000E94BA32A50101C0440F8A95EAF7808109
:102E8000842B8083F80117FD379693E0F595E7953D
:102E90009A95E1F7729EC001739E900D11248A5E8F
:102EA0009A4FE80FF92FF11DC801B4010E94BA3200
:102EB000A50101C0440F8A95EAF78081842B8083A5
:102EC000FE01D7FD379683E0F595E7958A95E1F702
:102ED000729EC001739E900D11248A5E9A4FE80F76
:102EE000F92FF11DCE01B4010E94BA32A50101C033
:102EF000440F8A95EAF78081842B8083265C3A4FC1
:102F0000F9016082FFEFCF1ADF0A84E0E80EF11CBE
:102F1000E0E3CE16D10409F083CF60E084E70E949D
:102F20007A1661E087E7DF91CF911F910F91FF90B3
:102F3000EF90DF90CF90BF90AF909F908F907F9059
:102F40006F900C947A161F93CF93DF93EC01FC01E2
:102F5000EF57FC4F80816823A1F00E942033182F87
:102F60000E942033612F782F809158060E94520FC3
:102F7000462F282F672FCE01DF91CF911F910C9400
:102F8000E30CDF91CF911F910895DF92EF92FF92B2
:102F90000F931F93CF93DF938C01FC01EF57FC4FEE
:102FA0008081682381F1D0905706D0915806C09156
:102FB0005606EC2EF12C0E942033282FC7018C548A
:102FC0009F4F68E671E00E94BA328E199F0997FD03
:102FD0000396959587959595879523706C2F289FD7
:102FE000600D11247D2D8D2F0E94520F462F282F0A
:102FF000672FC801DF91CF911F910F91FF90EF9044
:10300000DF900C94E30CDF91CF911F910F91FF9013
:10301000EF90DF90089545E050E06CE170E085E5C9
:1030200096E00C947F3490915506937089F081114D
:1030300007C094609093550610921C010C940B18D5
:10304000893110F09066F6CF880F880F982BF2CF59
:1030500008958091550686958695815009F488E1FA
:103060000C94131880915506869586958F5F89314B
:1030700008F081E00C94131890915506937041F07C
:103080008093560660935706409358060C940B188D
:103090000895E5E5F6E0438120E1421B08F440E0B5
:1030A0008181628190E00C943C18E5E5F6E0438173
:1030B00020E1420F08F44FEF8181628190E00C948F
:1030C0003C18E5E5F6E0628120E1621B08F460E06F
:1030D0008181438190E00C943C18E5E5F6E0628143
:1030E00020E1620F08F46FEF8181438190E00C943E
:1030F0003C18E5E5F6E08181438162818850990BB7
:103100000C943C18E5E5F6E0818190E04381628112
:1031100008960C943C18E5E5F6E0248130E1230F95
:1031200008F42FEF24830C940B18E5E5F6E02481D6
:1031300030E1231B08F420E024830C940B18E5E510
:10314000F6E085E3808380911D0190911E01A0919E
:103150001F0181839283A3838CE384830C940B18D7
:103160000E94EA1690E080E00E9479348F3E9E4FE4
:1031700021F00E94BE150E949F1845E050E06CE1CE
:1031800070E085E596E00E945B34809155068C7F67
:1031900011F40C949F18089580E290E090930D0133
:1031A00080930C018091D20381110EC00E94C63120
:1031B00081E08093D2032FEF83ED90E32150804094
:1031C0009040E1F700C0000064E670E080E40E94F7
:1031D000CC3190930D0180930C01892B09F04EC0E6
:1031E00064E670E080E00E94283290930D018093A5
:1031F0000C01892B09F042C064E670E080E00E9477
:10320000283290930D0180930C01892BB9F564E667
:1032100070E08FE30E94283290930D0180930C019F
:10322000892B61F50E94A23264E670E080E40E947E
:10323000CC3190930D0180930C01892BF9F464E655
:1032400070E08CE00E94283290930D0180930C0175
:10325000892BA1F464E670E080E00E94283290930C
:103260000D0180930C01892B49F464E670E08FE333
:103270000E94283290930D0180930C010E94A2328B
:1032800080910C010895CF93C82F873070F58091FD
:103290000C0190910D01892B89F564E670E080E4C2
:1032A0000E94CC3190930D0180930C01892BD1F4B5
:1032B00064E670E082E10E94283290930D018093D1
:1032C0000C01892B79F481E090E001C0880FCA9548
:1032D000EAF764E670E080950E94283290930D0131
:1032E00080930C01CF910C94A2328A30B9F040F453
:1032F000883071F0893079F0209A2898CF9108951C
:103300008C3091F070F08D30B9F73E9A4698F6CF38
:10331000219A2998F3CF229A2A98F0CF239A2B98B2
:10332000EDCF529A5A98EACF539A5B98E7CFCF9352
:10333000873050F580910C0190910D01C0E0892BF0
:1033400071F464E670E081E40E94CC3190930D0149
:1033500080930C01892B31F0C0E00E94A2328C2FA7
:10336000CF91089584E690E00E94573297FF05C000
:1033700090930D0180930C01EFCFC82FC095109250
:103380000D0110920C01E9CFCFB18FB186958695D2
:103390008C73C3708C2BC82FC095E1CF78941F928B
:1033A0001FB61F9211248F939F93AF93BF93809169
:1033B000CE059091CF05A091D005B091D105019691
:1033C000A11DB11D8093CE059093CF05A093D0058C
:1033D000B093D105BF91AF919F918F911F901FBE68
:1033E0001F9018952FB7F8948091CE059091CF0536
:1033F000A091D005B091D1052FBF08950E94F21978
:103400009C019091060680910706982B21F030933D
:103410000306209302069091080680910906982BD6
:1034200021F0309300062093FF05E091ED05F09127
:10343000EE05309749F082E0809304060480F58120
:10344000E02D84E096E0099408951092C70510924B
:10345000C6050E94820B86E0E4E0F6E0DF011D92E3
:103460008A95E9F7109201061092FE051092D20596
:103470000E94FE1990E080E00E94680C90E080E0DD
:103480000C94520CCF92DF92EF92FF92CF93DF9386
:1034900000D000D0CDB7DEB70E944A146B017C018A
:1034A00080911E06882321F080911F06811115C08E
:1034B000C0921A06D0921B06E0921C06F0921D06DE
:1034C0000E94251A0F900F900F900F90DF91CF91CF
:1034D000FF90EF90DF90CF900895198282E08A8369
:1034E000C701B6010E942F0B8B838EEF8C8364E0A3
:1034F000CE0101960E947A09DBCF0F931F9341E022
:1035000050E060E070E004C0440F551F661F771F55
:103510008A95D2F7CB01BA01609570958095909508
:1035200000911A0610911B0620911C0630911D0671
:1035300060237123822393231F910F910C94421ACD
:103540009091C505809589238093C505282F277004
:1035500071F4282F082E000C330B9217130639F044
:103560008595859585950E947D1A1092C5050895CB
:103570000F931F9341E050E060E070E004C0440FFF
:10358000551F661F771F8A95D2F780911A06909172
:103590001B06A0911C06B0911D068A019B01082BF9
:1035A000192B2A2B3B2BC901B8011F910F910C94A9
:1035B000421A6093CA057093CB058093CC05909313
:1035C000CD050C94251A1092C80580911801E4EBE2
:1035D000F3E0882359F08091EB0587FF07C08EE167
:1035E000DF011D928A95E9F70C94251A86E0F8CF41
:1035F0001F93CF93DF93CDB7DEB7AA970FB6F8949A
:10360000DEBF0FBECDBF89E496E02091F100FC0142
:103610002193CF01F6E081359F07B9F780914A06E3
:10362000893009F444C018F5823009F4B7C08330FA
:1036300009F46CC0813031F580914906813A11F569
:103640008091E800877F8093E80080914D069091FB
:103650004E06892B41F560E285E296E070E00E941B
:1036600019098091E8008B778093E8000BC08B30BC
:1036700009F469C008F481C0823409F4A0C085341B
:1036800009F4BAC08091E80083FF65C280914906C1
:1036900090914A069A3008F05EC2E92FF0E0E753B5
:1036A000F94C0C94CE3260E090E080E0D7CF80916E
:1036B0004906813239F780914D0690914E06029766
:1036C00008F78091E800877F8093E8008091E80008
:1036D00082FF17C09091F3008091F200029729F4C5
:1036E0008091F1008B7F813021F48091F1008093F3
:1036F00024068091E8008B778093E8000E940808F8
:10370000C1CF809147068111E1CFBCCF809149069E
:10371000813A09F0B7CF80914D0690914E06892BE2
:1037200009F0B0CF8091E800877F8093E800809116
:10373000E80080FFFCCF809118018093F100809118
:10374000E8008E77D9CF80914906813209F09ACF6F
:1037500080914D0690914E06892B09F093CF809170
:10376000E800877F8093E8000E94080880914B065C
:10377000809318010E94E31A85CF80914906813217
:1037800009F080CF8091E800877F8093E8000E9455
:10379000080880914C068093230674CF80914906D7
:1037A000813A09F06FCF8091E800877F8093E8002D
:1037B0008091E80080FFFCCF80912306BECF8091EE
:1037C0004906803C09F05ECF80914D0690914E06EF
:1037D000029739F580914B0690914C06892B09F59B
:1037E0008091E800877F8093E8006BE170E086ECD1
:1037F0009CE00E94BA0882CF80914906803C09F083
:1038000041CF80914D0690914E06079751F48091DB
:10381000E800877F8093E80062EB70E084E19CE041
:10382000E8CF8091EB0080628093EB002BCF803853
:1038300099F0823809F08FC180914D068F708730E2
:1038400008F089C18093E9008091EB0085FB88270F
:1038500080F91092E90006C08091450690914606D5
:10386000911182609091E800977F9093E800809397
:10387000F1001092F1008091E8008E7768C18823F2
:1038800009F456C1823009F066C180914B0681115E
:1038900059C180914D068F702FEF280F263008F008
:1038A0005AC18093E9002091EB0020FF4BC1933077
:1038B00031F48091EB0080628093EB0043C19091E2
:1038C000EB0090619093EB0021E030E001C0220F0B
:1038D0008A95EAF72093EA001092EA008091EB00C3
:1038E0008860EACF811137C110914B061F77809114
:1038F000E3008078812B8093E3008091E800877F4C
:103900008093E8000E9408088091E80080FFFCCFC7
:103910008091E30080688093E30082E0111183E0EE
:103920008093470618C18058823008F014C18091F6
:103930004B0690914C068C3D23E09207A1F583E065
:103940008A838AE289834FB7F894DE01139620E0D8
:103950003EE051E2E32FF0E050935700E49120FF66
:1039600003C0E295EF703F5FEF708E2F90E0EA307A
:10397000C0F0C7968D939D932F5F243159F74FBFA9
:103980008091E800877F8093E8006AE270E0CE01D2
:1039900001960E9419098091E8008B778093E800D6
:1039A000DAC0C096E7CF40914D0650914E06292FC0
:1039B00033272330310569F1A0F42130310509F4B2
:1039C0006CC062E570E08EED9DE02230310509F0BB
:1039D000C2C02091E800277F2093E8000E94BA0827
:1039E000DACF2132310509F440C02232310509F421
:1039F00048C02F30310509F0AEC0E2EAFEE0E491A4
:103A00006E2F70E080EA9EE06115710509F4A3C095
:103A1000E0CF992781309105C1F0009771F0823095
:103A20009105D9F0039709F096C0E2E4FEE0E49135
:103A30006E2F70E082E49EE0E7CFECE9FEE0E491D7
:103A40006E2F70E08CE99EE0DFCFEAE6FEE0E491C5
:103A50006E2F70E08AE69EE0D7CFE8E4FEE0E491C6
:103A60006E2F70E088E49EE0CFCF41155105D1F074
:103A70004130510509F06FC069E070E089E09EE0D7
:103A8000A8CF4115510599F04130510509F063C0A7
:103A90006CEB70E082EE9CE09CCF62E170E080E332
:103AA0009EE097CF69E070E080EF9DE092CF60E408
:103AB00070E08EE99DE08DCF803809F04CC0809198
:103AC000E800877F8093E800809148068093F100AA
:103AD000D2CE811140C010914B061230E0F580919A
:103AE000E800877F8093E800109348060E9408084A
:103AF000112311F084E005C08091E30087FDFACF27
:103B000081E08093470642E061EC81E00E94270853
:103B100042E261EC82E00E94270842E361EC83E02C
:103B20000E94270842E360EC84E00E94270813C04B
:103B300080914B06813079F481E0933009F080E088
:103B4000809346061092E9008091E800877F809379
:103B5000E8000E9408088091E80083FF0AC0809175
:103B6000E800877F8093E8008091EB00806280937B
:103B7000EB00AA960FB6F894DEBF0FBECDBFDF9163
:103B8000CF911F9108951F920F920FB60F9211249B
:103B90002F933F934F935F936F937F938F939F9355
:103BA000AF93BF93CF93DF93EF93FF93D091E9004F
:103BB000DF708091EC00C82FC17080FDC0E81092CA
:103BC000E9008091F000877F8093F00078940E9454
:103BD000F81A1092E9008091F00088608093F0005C
:103BE000CD2BCF70C093E900FF91EF91DF91CF9182
:103BF000BF91AF919F918F917F916F915F914F9105
:103C00003F912F910F900FBE0F901F9018951F920C
:103C10000F920FB60F9211242F933F934F935F9300
:103C20006F937F938F939F93AF93BF93EF93FF9384
:103C30008091E10082FF09C08091E20082FF05C00F
:103C40008091E1008B7F8093E1008091DA0080FF1A
:103C500024C08091D80080FF20C08091DA008E7F40
:103C60008093DA008091D90080FFA1C080E189BDF6
:103C700082E189BD09B400FEFDCF81E08093470653
:103C800080912106811109C00E948C070E94590869
:103C90008091E20084608093E2008091E10080FFE7
:103CA00017C08091E20080FF13C08091E2008E7FF8
:103CB0008093E2008091E20080618093E200809135
:103CC000D80080628093D80019BC85E080934706B5
:103CD0008091E10084FF2FC08091E20084FF2BC01F
:103CE00080E189BD82E189BD89B5982F917080FFFF
:103CF000FBCF8091D8008F7D8093D8008091E10028
:103D00008F7E8093E1008091E2008F7E8093E200BD
:103D10008091E20081608093E200809148068823D0
:103D200009F44BC084E0809347060E94E31A0E9486
:103D30007E0C109222068091E10083FF27C08091C3
:103D4000E20083FF23C08091E100877F8093E10040
:103D500082E080934706109248068091E1008E7FB2
:103D60008093E1008091E2008E7F8093E200809159
:103D7000E20080618093E20042E060E080E00E9427
:103D800027088091F00088608093F000FF91EF9108
:103D9000BF91AF919F918F917F916F915F914F9163
:103DA0003F912F910F900FBE0F901F90189519BC47
:103DB000109247061092210670CF8091E30087FD94
:103DC00093E090934706B1CF8823B1F19CEF980F11
:103DD000913A38F4682F82EB93E00E94D00A0C9459
:103DE000820B90E2980F983088F4877021E030E0E1
:103DF000A90102C0440F551F8A95E2F7CA018095B8
:103E00009091C80589238093C805E9CF9BE5980F59
:103E1000933020F490E080E00C94680C98E5980FC3
:103E2000973120F490E080E00C94520C803F20F019
:103E30000E9492090C94FE190895CF93C82F8823ED
:103E400009F46EC08CEF8C0F813AB8F5809118019F
:103E5000882311F18091EB0587FF1EC0EC2FE695BA
:103E6000E695E695F0E0EE54FC4F828190E04C2F11
:103E7000477021E030E002C0220F331F4A95E2F77D
:103E800082239323892B89F06C2F82EB93E00E948D
:103E9000D00A0E94820B09C0E4EBF3E08191C817BD
:103EA00099F383E0EA3BF807C9F76C2F82EB93E0C4
:103EB0000E94FA0ACF910C94820B80E28C0F88301A
:103EC00068F4C77021E030E001C0220FCA95EAF71C
:103ED0008091C805822B8093C805ECCFEBE5EC0FF1
:103EE000E33040F4F0E0E456FD4F808190E0CF9164
:103EF0000C94680CE8E5EC0FE73150F4F0E0EE0FBD
:103F0000FF1FE156FD4F80819181CF910C94520C9F
:103F1000C03F30F08C2F0E94590ACF910C94FE19AB
:103F2000CF910895CF93C82F0E941D1FC93349F424
:103F30002FEF87EE93E0215080409040E1F700C0E2
:103F400000008C2FCF910C94E41E0F931F93CF93FE
:103F5000DF93C42FD22FFC0182818823A1F04093EC
:103F600051050E94F21990933D0580933C05C7705E
:103F700081E001C0880FCA95EAF7DF91CF911F91C8
:103F80000F910C94480C10915105141335C0809179
:103F90003C0590913D050E94C10A8C38910560F561
:103FA000C0E2CD0F1D17B9F080E2810F883040F4D8
:103FB000177081E001C0880F1A95EAF70E943D0C46
:103FC000C83048F481E09D2F977001C0880F9A9502
:103FD000EAF70E94480C802F0E94921FC83098F484
:103FE000D77081E001C0880FDA95EAF7DF91CF91B1
:103FF0001F910F910C943D0CC77081E001C0880F98
:10400000CA95EAF7F3CFDF91CF911F910F910895F1
:104010004F925F926F927F928F929F92AF92BF92D8
:10402000CF92DF92EF92FF920F931F93CF93DF9384
:1040300000D000D00F92CDB7DEB77C01FC018381A8
:104040009481892B39F01081D180812F8D218F3F70
:1040500009F0D6C60F900F900F900F900F90DF9140
:10406000CF911F910F91FF90EF90DF90CF90BF9075
:10407000AF909F908F907F906F905F904F9008953A
:104080000E945113082F682F89819A810E94F00B9A
:10409000E12FF0E026E0D29EE00DF11D112434E581
:1040A000039FE00DF11D1124EE0FFF1FE45DF94F9A
:1040B0000591149180911E06882321F080911F069E
:1040C00081118AC6F70182810932FDE51F07C9F116
:1040D0000A322DE5120709F4CFC0023C3CE5130774
:1040E00009F0F0C08823E9F090911A018091D90578
:1040F0009F3F09F0E0C010921A018F7E8093D9058E
:1041000040E060E080E00E94E10C4091D9055091D0
:10411000DA056091DB057091DC058FE090E00E948C
:10412000A1348091C505877009F494CFF70182818D
:10413000882309F48FCF82E00E94A01A8BCF81E1FF
:1041400051C6882309F440C18091D90591E0980FA8
:104150009770887F953008F4892B8093D9058091DA
:10416000D9058770EFEF8E9FC00111249595879533
:1041700095958795992790938900809388009093CF
:104180008B0080938A0090938D0080938C004091E7
:10419000D9055091DA056091DB057091DC058FE05F
:1041A00090E00E94A13460911A0670911B068091E4
:1041B0001C0690911D060E944A14F70182818823F3
:1041C00009F48CC09801215E3C452530310508F08A
:1041D00085C06FE1600F6093D5058CE090E00E9490
:1041E0008F34F7019281992309F41BC6109251056F
:1041F0000230FCE51F0708F422C606312CE5120741
:1042000038F098012A5F3C452730310508F017C681
:104210000E949A149093EC058093EB050F303CE5D7
:10422000130709F4D5C108F04FC108309CE5190700
:1042300009F4B8C108F024C10430FCE51F0709F4F3
:10424000A5C108F00AC102303CE5130709F496C184
:1042500003301C4509F496C16091EB051091EC0503
:1042600084E090E00E948F34612F81E290E00E9410
:104270008F340E94E31A55CF882309F4A5C090918A
:10428000D905892F877F93FF88608093D90583FFA5
:1042900005C040E060E080E00E94E10C4091D9055B
:1042A0005091DA056091DB057091DC058FE090E0BC
:1042B0000E94A13482CF9FEF90931A018061809376
:1042C000D90523CF0B32FDE51F0709F076CF8823F0
:1042D00009F427CF81E00E94131823CF17FF74C081
:1042E000882309F47ECF8091C805809350051092F1
:1042F000C8058091D505813009F441C08823D9F1E2
:10430000823009F449C0843009F44DC08FE39CE940
:104310000197F1F700C000005801E894B7F8ECE00D
:10432000CE2ED12C95010C2C02C0369527950A94DF
:10433000E2F72F7087E290E029F0822F90E02A3098
:10434000B8F54D960E94921F94E0C91AD108ECEF7F
:10435000CE16EFEFDE0631F78091D505813071F191
:10436000882341F1823031F1843061F18091500530
:104370008093C80536CF82EE0E941D1FC7CF83E011
:104380000E94330C88E10E941D1F88E10E94E41EF8
:1043900083E00E94280CBACF82EE0E941D1F87E5A1
:1043A0000E94921FB3CF86EE0E94921F88E1F8CF41
:1043B0000697C8CF82EE0E94E41ED8CF8CE20E94FE
:1043C000921FD4CF88E2FBCF033FFCE51F0769F1C2
:1043D000B0F4083D3CE5130711F1093D8CE51807E1
:1043E000B1F1073D9CE5190709F0FBCE06E221EE8D
:1043F00041EE67ED7CE5C7010E94A51F92CE053F07
:10440000ECE51E07F1F0B8F0063F2CE5120709F0C5
:10441000E8CE07E225EE46EE66EF7CE5ECCF07E25C
:1044200025EE45EE68ED7CE5E6CF06E221EE40EEB6
:1044300063EF7CE5E0CF07E225EE44EE64EF7CE538
:10444000DACF06E221EE42EE65EF7CE5D4CF08E25A
:1044500021E045EE69ED7CE5CECF8091EB058061F2
:1044600006309CE5190709F447C08091EB05886088
:1044700007301C4508F440C08091EB0580623CC0C9
:104480000B30FCE51F0709F49BC068F409303CE5DC
:10449000130709F48BC00A301C4509F0DDCE80916A
:1044A000EB058C6029C08091EB058B7F0D309CE57E
:1044B000190711F18091EB058D7F0E301C45E0F05E
:1044C0008091EB05877F18C00A3FFCE51F0709F4C0
:1044D00061C060F502313CE5130709F481C078F44E
:1044E00000319CE5190709F477C08091EB058F7BBB
:1044F00001311C4509F0B0CE8093EB05ADCE0431FF
:10450000FCE51F0709F47AC008F470C005311C45AA
:1045100009F0A2CE8091EB0582FB992790F921E06A
:10452000922790FB82F990FB83F9E6CF0D3F8CE553
:10453000180709F449C070F40B3FECE51E0771F150
:104540008091EC058E7F0C3F1C4509F085CE809351
:10455000EC0582CE0F3F2CE5120709F44BC060F149
:1045600001151D4509F078CE8091EC05982F9095A6
:1045700091708E7F892B90FB81F9E9CF8091EB05BB
:104580008160BACF8091EB058260B6CF8091EB0558
:104590008460B2CF8091EC058160D9CF8091EC0529
:1045A0008260D5CF8091EB058064A6CF0E94E31A8C
:1045B0008091EB058068A0CF8091EC058360C7CF28
:1045C0008091EB058E7F98CF8091EC058D7FBFCFDA
:1045D0008091EB058F7E90CF8091EB058F7D8CCF06
:1045E0000E94E31A8091EB058F7786CF8091EB05CF
:1045F000837F82CF8091EC058C7FA9CF0E94E31A44
:104600009091EB05892F97FB87F9805875CF9923F7
:1046100009F4A8C08091C8058272F801E25CFC45EB
:10462000E431F10508F049C0ED52F94C0C94CE325A
:104630008091550691E089278093550610921C01C0
:104640000E940B186ECD49E258E162E378E10E94C6
:104650008A0C67CD42E358E169E278E1F8CF49E797
:1046600058E162E878E1F3CF42E858E169E778E1A0
:10467000EECF41E658E16DE678E1E9CF4DE658E14D
:1046800061E678E1E4CF49E458E165E578E1DFCF20
:1046900045E558E169E478E1DACF45E958E16BE8AE
:1046A00078E1D5CF4BE858E165E978E1D0CF85E0F6
:1046B00012CE8DE010CE82E10ECE0E3DECE51E074F
:1046C00009F446C00830FDE51F0709F444C0011590
:1046D0001C4509F047C00E94E31A3FEF84E39CE0C9
:1046E000315080409040E1F700C00000F89481E034
:1046F0008093E00080E28093D8001092C900EFE13F
:10470000FEE43197F1F700C000001DBA1092680076
:104710001CBC10BE1FBA10927A0010926E0010924C
:104720006F0010927100109272001092C9001092E6
:10473000BC0014B817B81AB81DB810BA1092BC0053
:1047400015B818B81BB81EB811BA0C94003FE9CCC4
:104750000E94BE15E6CC8091200691E089278093C7
:104760002006DFCCF70100811181992309F444C0B0
:10477000C8010E945113D82E682FC8010E94F00B67
:10478000B8018D2D0E94AE11082FD92EB82EF70139
:10479000C580C2947FE0C722128111111092C70513
:1047A0008091C5058770C1F01123B1F08D2D807FF8
:1047B000803449F090E2900F983070F0803619F410
:1047C000F6EFBF1649F082E00E94A01A8091C5055D
:1047D0008770AA24A3948111A12C9D2C92945FE050
:1047E00095226BE0462E491408F441C0E92DF0E013
:1047F000E951F94C0C94CE32C8010E94C70BD82E57
:10480000BFCF2D2D2F70C22E8D2D807F19F0C29419
:1048100040EFC4221123C9F0CC2069F080E2800F60
:10482000883010F0B1100BC08091C805C82AC09222
:10483000C8050E94820B802F0E941D1F18C0809106
:10484000C705C82AC092C705F4CF802F0E94E41E76
:10485000CC2069F0C094005E083010F0B11057C051
:104860008091C805C822C092C8050E94820B292DDC
:104870002850330B2430310510F40E947E0C112394
:1048800079F08D2D807F803619F436EFB31641F024
:1048900080915305823009F097C283E080935305DD
:1048A000AA20A9F08091C50580FD11C0F7011282F0
:1048B0008595859585950E94B81AC7010E940820A4
:1048C0008091C5058595859585950E947D1A85E021
:1048D000F701DE01119601900D928A95E1F7898129
:1048E0009A810E94C70B9A81E981F0E026E0929FAD
:1048F000E00DF11D112434E5839FE00DF11D11241D
:10490000EE0FFF1FE45DF94F85919491A3CB809149
:10491000C705C822C092C705A8CF3D2D3F70832E82
:104920008D2D807F803219F0829430EF8322BB205E
:1049300041F081E0B81631F1112381F1CC2049F129
:104940007ACF112391F09091C905892F8829C11040
:1049500003C00E94480C8BCFE1E0CE12FACF89173A
:1049600009F485CF8093C90582CFC11006C00E948B
:104970007C0B882D0E943D0C7ACFF1E0CF1609F414
:1049800076CFF5CF112339F0442443944C1408F426
:104990006ECF882DDECFC1106ACFEBCFCC2049F38C
:1049A00029E3522EB51009C02FEF37EE83E02150D6
:1049B00030408040E1F700C00000802F0E94E41EDC
:1049C00056CF8D2D86958695837069F0813009F0DC
:1049D0004ECF802F9D2D9370111102C090E080E08A
:1049E0000E94520C44CF802F9D2D9370111102C054
:1049F00090E080E00E94680C3ACF802F112329F0CC
:104A00000E94590A0E94FE1932CF0E949209FACFE1
:104A10008D2D837009F067C0111129CF202F2295A9
:104A200026952770220F220F402F4F7050E070E024
:104A300060E0022E04C0440F551F661F771F0A94C2
:104A4000D2F780E090E0DC0104FF0FC08FE090E03F
:104A5000A0E0B0E004C0880F991FAA1FBB1F2A95D1
:104A6000D2F780959095A095B0952D2D26952695F9
:104A70002370223029F1D8F44090CA055090CB051C
:104A80006090CC057090CD05213069F0842B952B7A
:104A9000A62BB72BBC01CD0164217521862197215E
:104AA0000E94D91AE4CE44295529662977292A017A
:104AB0003B01482A592A6A2A7B2AC301B201F0CF56
:104AC000842B952BA62BB72B4090CA055090CB0575
:104AD0006090CC057090CD05BC01CD016425752595
:104AE00086259725DDCF8695112311F08D2D8170B8
:104AF000882309F4BCCE202F229526952770220FFB
:104B0000220F402F4F7050E070E060E0022E04C092
:104B1000440F551F661F771F0A94D2F780E090E07C
:104B2000DC0104FF0FC08FE090E0A0E0B0E004C023
:104B3000880F991FAA1FBB1F2A95D2F780959095C1
:104B4000A095B0952D2D269526952370223029F11C
:104B5000D8F440901A0650901B0660901C06709086
:104B60001D06213069F0842B952BA62BB72BBC0199
:104B7000CD0164217521862197210E94421A77CEAA
:104B800044295529662977292A013B01482A592AAF
:104B90006A2A7B2AC301B201F0CF842B952BA62B66
:104BA000B72B40901A0650901B0660901C06709020
:104BB0001D06BC01CD016425752586259725DDCF11
:104BC0002D2D2F70C22E112329F0822F0E94B81A8A
:104BD000802FBFCE802F0E943D0C8C2D0E947D1A0D
:104BE00046CE802F32EFB31609F452C03B1578F051
:104BF00090EFB91629F1E1EFBE1609F441C0112377
:104C000009F46AC0C11017CE8D2D8F713EC0F3EF2D
:104C1000BF1609F442C094EF492EB410F0CF11230F
:104C200009F44FC00D2D0F71802F0E94B81A28E093
:104C3000029FC001112483608093C505802F25C089
:104C40001123C1F0C11013CE2D2D2F7161E070E042
:104C500080E090E004C0660F771F881F991F2A9597
:104C6000D2F740901A0650901B0660901C06709078
:104C70001D06A1CF552453945C1408F4F8CDE4CF5D
:104C80008D2D8F71112309F4A9CF0E94B81AEFCD91
:104C90008D2D8F711123C9F3A1CF60E070E0CB019E
:104CA000112309F46ACF2D2D2F7161E070E080E0AF
:104CB00090E004C0660F771F881F991F2A95D2F7CE
:104CC0005CCF81E00E94A01A31E03C1508F0CFCD06
:104CD00082E00E94A01ACBCDCC2059F0893309F094
:104CE0006CCE8FEF97EEE3E081509040E040E1F72B
:104CF00062CE8D2D8F7172CFE0E1E00FE73008F0CA
:104D00003EC0F0E0ED50F94C0C94CE32112309F482
:104D1000AECD8091550591E0892780935505A7CDAB
:104D200010935505A4CD81E08127F7CF11119FCDB8
:104D300081E0F3CF11119BCD1092550598CD112331
:104D400021F082E080935305F3CF809153058230A8
:104D500021F481E0809353058ACD833009F087CD1B
:104D600010925305E9CF112339F08091540588231F
:104D700081F2109254057BCDCC2059F278CD8091F0
:104D80005405CC20A9F0882341F08091550591E08D
:104D900089278093550510925405802F11114CCD11
:104DA0000E94E41E86E0F70111928A95E9F75FCD33
:104DB000882309F45CCD11115ACD8091550591E0FD
:104DC000892780935505D5CF813009F069CD1092A0
:104DD00053051092550564CDF70182811982811126
:104DE000AEC982E18A83F70180818B8381818C83C4
:104DF0008EEF8D8365E0CE0101960E947A0962C92B
:104E000085E0DE01119601900D928A95E1F7F70198
:104E1000228189819A81211133C90E94C70B082FF1
:104E200037C906311C4509F09DCC8091520569E2D5
:104E3000811165E382EB93E00E94D00A14C0063131
:104E40002CE5120709F0E3CB8091C8058A7A91E03E
:104E500009F490E09093520569E2811165E382EBD9
:104E600093E00E94FA0A0E94820B5BC91F93CF93C2
:104E7000DF9380915B05807FA9F48091580588239A
:104E800089F080918D05D0915C05609156057091F7
:104E90005705A0915905B0915A05C62FC72316E0B2
:104EA000D81304C0DF91CF911F91089590E010971F
:104EB00011F0CF3F19F401968770F2CF189F90013F
:104EC000199F300D1124F901E35AFA4F418147131C
:104ED000F2CF40814613EFCF42814111ECCF4381A5
:104EE00054814A1B5B0B4C38510528F780915B05B8
:104EF0008F70806180935B05F901EE59FA4F8081D4
:104F00008F708061808386E595E00E940820DF91A4
:104F1000CF911F910C941E0CAF92BF92CF92DF9253
:104F2000EF92FF920F931F93CF93DF93CDB7DEB72E
:104F300061970FB6F894DEBF0FBECDBF8C0185E040
:104F4000F801DE011D9601900D928A95E1F7F801B6
:104F500080819181E28026E5A22E25E0B22E60912B
:104F6000590570915A056115710509F43EC13091DA
:104F7000560540915705232F24232F3F09F435C1AF
:104F8000C380D480F0905805F601E61BF70BFF2094
:104F900009F4FBC020915B05522F507FEC38F105DE
:104FA00008F0BBC0511178C0FE2C491321C0381342
:104FB0001FC0E1101DC02F70206120935B05C5014B
:104FC0000E94082080915B05F80185838F2D6196F2
:104FD0000FB6F894DEBF0FBECDBFDF91CF911F910A
:104FE0000F91FF90EF90DF90CF90BF90AF9008951A
:104FF000CD2829F0282F29232F3F09F022C120E0B6
:10500000F22FF170DF2E20FF3DC020918D054091E1
:105010005C0556E0241315C08D879E878D859E857F
:105020000E949313292F22952F702230F8F02430FC
:1050300020F59F70F9F0F8019581907FD9F4D12C7B
:105040001FC030E0529FF001539FF00D1124E35A2E
:10505000FA4F6181961306C06081861303C0628196
:10506000E61210C02F5F3F4F2770D4CF9F7011F012
:10507000882329F3805E883010F3C8010E9408203D
:10508000FD2CA4CFEE2009F4A1CF80915B058160B7
:1050900080935B05F12C9ACF491312C0381310C0CE
:1050A000E1100EC0F8012583C8010E94082086E0A7
:1050B000F801A6E5B5E001900D928A95E1F786CF5B
:1050C0008D879E878D859E850E949D13882309F17B
:1050D000EE20F9F080915B05803270F0209156054A
:1050E0003091570538872F831986DB86CA868C87CF
:1050F000CE0107960E94082086E0F801A6E5B5E0FB
:1051000001900D928A95E1F70E943627FF24F394CF
:105110005DCFC8010E940820F9CF51110AC086E571
:1051200095E00E94082086E0F50111928A95E9F742
:10513000B1CF49130FC038130DC0E1100BC0F801F7
:105140002583C8010E94082086E0F50111928A9506
:10515000E9F73CCF8D879E878D859E850E949D13A4
:105160008823B9F2EE20A9F280915B05803220F20B
:1051700020915605309157053A8329831B82DD82A1
:10518000CC828E83CE010196B5CFEC38F105E0F6E6
:10519000FE2CEE2009F4BDCF491316C0381314C0FD
:1051A00080915B0580FD83CF982F907F09F47FCF9E
:1051B000F8018583903F09F477CF982F907F905F17
:1051C0008F70892B858370CF8D879E878D859E8577
:1051D0000E949D13811190CF80915B058160809327
:1051E0005B05C8010E940820F1CEEE2009F491CFA2
:1051F0008D879E878D859E850E949D13F82E88231E
:1052000009F487CF86E0F801A6E5B5E001900D929C
:105210008A95E1F780915605909157050E94931366
:1052200092959F70963051F4863F41F080915505DC
:1052300091E0892780935505909354050E94362765
:10524000C5CE21E02E25DCCE1F93CF93DF93CDB7C3
:10525000DEB767970FB6F894DEBF0FBECDBF6D8B7C
:105260007E8B8F8B8E899F89892BE1F0852F8423FC
:105270008F3F09F098C05FEF4FEF14C03091550594
:10528000332309F44EC0E42FF0E036E0539FE00DE5
:10529000F11D1124EE0FFF1FEC50FE4F4081518194
:1052A000822B8C931A8A198A4B8B5C8B85E0FE01CA
:1052B0007396DE011D9601900D928A95E1F786E0C6
:1052C000FE013D96DE01179601900D928A95E1F759
:1052D000CE0107960E948C27811112C086E0FE0144
:1052E0003796DE01119601900D928A95E1F78A8535
:1052F0009B85892B29F08F81988589238F3FC9F55C
:1053000016E080918D0590915C05891320C0679609
:105310000FB6F894DEBF0FBECDBFDF91CF911F91C6
:10532000089580958223BDCF96E0929FD001939FF0
:10533000B00D1124A35ABA4FFE01319601900D927F
:105340009A95E1F780935C050E941E0CD9CF819F4E
:10535000C0011124835A9A4F0E948C278823B9F2E6
:1053600080918D0590E001968770992780938D0537
:10537000C8CF20915C0530E0C9010196877099275C
:1053800040918D054817190679F60E94E31A10928C
:105390005C0510928D0586E0E6E5F5E0DF011D92E3
:1053A0008A95E9F7ADCF81E090E0042E01C0880F27
:1053B0000A94EAF7A52FB0E0AE5BBA4F2C913D8975
:1053C00031115CCF322F38235BCF7F928F929F9227
:1053D000AF92BF92CF92DF92EF92FF920F931F9303
:1053E000CF93DF9380910C0190910D01892BA1F057
:1053F0008091D3038F5F8093D30381110DC00E94EE
:10540000CC1890E090930D0180930C01892B21F42E
:105410000E9444150E94B018EDED8E2EE5E09E2E00
:10542000640100E010E077E0E72EE10E812F0E949A
:1054300043198E2D0E944319812F0E949719E6016E
:1054400099916E01F12C891729F0FE013197808323
:10545000FF24F3948E2D0E949719F60196818917E7
:1054600009F47CC0868381E08F29082B0E947E147A
:105470001F5F1730C1F60E94F2196091D503709139
:10548000D6039093D6038093D5032091D40330E0C4
:10549000261B370B820F931F6BEF70E00E94A63222
:1054A000E82E392F182F8093D403F090D803FF20D3
:1054B00009F45BC31092D803E091D305F091D405B1
:1054C000AF01425F5F4F20E06BEFB62E6BEF70E0F5
:1054D000A191AB3FA1F0CA2ED12C8E2D932F1A177C
:1054E00008F43EC08C199D09092E000CAA0BBB0BB9
:1054F0004E97A105B105D0F1DF011197BC924E176F
:105500005F0731F72093D803011102C021112FC387
:105510001092D703A091D305B091D4059091D803F0
:10552000E0EFF5E04EEF55E080E03191E4012991A4
:105530004E01321751F03C913B3FD1F41C93BF0117
:1055400061507109EB01288391E011964E175F07B6
:1055500061F79093D8038093D7030DC380E084CF85
:10556000DB01AC19BD098A0F9B1FBECF2F2DC7CF02
:1055700081E0EBCF109219014093510650935206EF
:10558000609353067093540681E080931C01F110E0
:1055900027C38091D90583FD23C360911A067091BA
:1055A0001B0680911C0690911D060E942F0B8230D5
:1055B00009F48BC208F077C2882309F47EC28130D7
:1055C00009F480C280911A0181110AC340E060E0B1
:1055D0000E94E10C05C380910B01C1E018130BC0C0
:1055E00020915506237080910A0190E0C1E02817B0
:1055F000190609F4C0E0C170C0931B01193140F4D1
:10560000E12FF0E0E650F94C0C94CE32C11102C00B
:10561000C0E027C040E060E080E00E94E10CF8CFED
:1056200080911901C82FCC0FCC0FC80F45E0E42E94
:10563000EC0EDE2CD0E3DE1510F430E3D32E6091B7
:10564000560670915706809158060E94520FC62E3A
:10565000B72EA82ED0E0CD15C0F0C1E0FFE2FE15B8
:10566000B8F2809119018F5F80931901C111B1C205
:1056700082E080931C0180911B018111AAC211114B
:10568000A8C283E080931C01A4C2FE01EF57FC4F27
:10569000808190911A01892331F02A2D4C2D6B2D98
:1056A000CE010E94E30C2196D6CF80911901C82F1C
:1056B000CC0FCC0FC80F25E0E22EEC0EDE2C20E341
:1056C0002E1510F490E3D92EB0905706C0905806CE
:1056D000D09156066D2F7B2D8C2D0E94520FA62E39
:1056E000972E882E609159066D0F7B2D8C2D0E9470
:1056F000520FC62EB72E782ED0E0CD1530F0C1E077
:105700008FE28E1508F0ADCF83CFFE01EF57FC4F2F
:10571000908180911A01892359F0272D4C2D6B2DF2
:1057200090FD03C0282D4A2D692DCE010E94E30C67
:105730002196E3CF80911901C82FCC0FCC0FC80F51
:1057400085E0E82EEC0ECE2C90E39E1510F4D0E30D
:10575000CD2EB0905706A090580620915906B0E47F
:10576000DB2E3D2D329F312D1124D32ED0E0CC15D0
:1057700030F0C1E09FE29E1508F073CF49CFFE01E3
:10578000EF57FC4F808190911A018923B9F0FE01F7
:10579000EE0FFF1FEE5DFC4F808182958F70609150
:1057A00056068D9D600D11247B2D8A2D0E94520F6F
:1057B000462F282F672FCE010E94E30C2196D7CFCA
:1057C00080911901C82FCC0FCC0FC80FE5E0EE2E49
:1057D000EC0ECE2CD0E3DE1510F470E3C72EB090A3
:1057E0005706A09058062091590660E4D62E3D2D0C
:1057F000329F312D1124D32ED0E0CC1508F0B9CF33
:10580000FE01EF57FC4F808190911A018923D9F056
:10581000FE01EE0FFF1FEF5DFC4F6081D69EB001D1
:10582000112455E0759567955A95E1F780915606D4
:10583000680F7B2D8A2D0E94520F462F282F672F2D
:10584000CE010E94E30C2196D8CF80911901C82F78
:10585000CC0FCC0FC80F35E0E32EEC0EDE2CD0E3DE
:10586000DE1510F420E3D22EC0905606D0915706D4
:10587000B090580660915906669566956695809138
:105880005106909152060E94480F0E94D10E8058F6
:1058900087FD8195880F282F3B2D239F212D1124D3
:1058A000822F6C2D7D2F0E94520FC62EB72EA82E50
:1058B000D0E0CD1508F05DCFFE01EF57FC4F8081A1
:1058C00090911A01892331F02A2D4C2D6B2DCE0198
:1058D0000E94E30C2196EDCF8CED9DE00E942111FA
:1058E000C82FBFCE82EB9DE0F9CF83EB9EE00E94F4
:1058F000C510F6CF84E99EE0FACF89E79EE00E94CA
:105900004810EECF8DE59EE0FACF80EB9DE0E6CF2C
:1059100087EA9DE0E3CF8EE99DE0E0CF85E89DE05A
:10592000DDCF87E79DE0EBCF80E29FE0E0CF8CE426
:105930009EE0DDCF88E39EE0E2CF8AE49DE00E9416
:10594000E60FCECF8CE19DE0FACF85EE9CE0F7CF5D
:10595000C1111EC06091590620E1620F08F46FEF7B
:1059600080915106909152060E94480F6AE070E0C3
:105970000E94A632892B09F04BCE0E94203360E3AF
:1059800070E00E94BA3260911A010E94C51769CE78
:1059900080911901C82FCC0FCC0FC80F95E0E92ECC
:1059A000EC0E8E2DD0E3DE1508F480E3D0E0C82E97
:1059B000D12CCC15DD0534F0C1E0EFE2EE1508F096
:1059C00050CE26CE60911A01CE010E94C5172196B5
:1059D000F0CFC1111EC06091590620E1620F08F49A
:1059E0006FEF80915106909152060E94480F65E03A
:1059F00070E00E94A632892B09F00ACE0E94203363
:105A000060E370E00E94BA3260911A010E94A3170D
:105A100028CE80911901C82FCC0FCC0FC80F85E07C
:105A2000E82EEC0E8E2DF0E3FE1508F480E3D0E0B6
:105A3000C82ED12CCC15DD0534F0C1E02FE22E1597
:105A400008F00FCEE5CD60911A01CE010E94A31798
:105A50002196F0CF10930B018091550683708093AF
:105A60000A010E9457160DCE4091510650915206E0
:105A700060915306709154062FB7F8948091CE052B
:105A80009091CF05A091D005B091D1052FBF841B77
:105A9000950BA60BB70B4A97A105B10508F499C061
:105AA00010921C0196C0853099F08730A1F08430A7
:105AB00009F088CD84E090E002C090E080E00E9490
:105AC000C1138EC081E090E0FACF82E090E0F7CF82
:105AD00085E090E0F4CF87E090E0F1CF9170892BE2
